:020000040800F2
:1000000028190020D5000008BD2D0008312C00085B
:1000100000000000000000000000000000000000E0
:10002000000000000000000000000000293400086B
:100030000000000000000000052E0008313F00080D
:10004000E7000008E7000008DF2E0008E7000008CE
:10005000E70000080504000815040008250400084E
:10006000E7000008E7000008F1030008FD030008AE
:10007000E7000008E7000008E7000008E7000008C4
:10008000DD410008E7000008E7000008000000006C
:10009000E7000008E7000008E7000008E7000008A4
:1000A000E7000008E7000008E7000008994E000894
:1000B000E7000008E700000800000000E700000873
:1000C0000348854600F0A6F800480047E94F0008BD
:1000D000281900200448804704480047FEE7FEE74F
:1000E000FEE7FEE7FEE7FEE7C53F0008C1000008A7
:1000F00030B50B46014600202022012409E00D46C0
:10010000D5409D4205D31D469540491B2546954047
:1001100040191546521E002DF1DC30BDF0B51FB45C
:100120000646002082B005464024019100901BE065
:10013000019922460F46304600F05BF8049A059B71
:10014000801A994110D310461946224600F041F812
:10015000361A8F410197224601200021009F00F0AE
:1001600038F838184D4100902046641E0028DFDC26
:10017000019B00982946324607B0F0BD03460B4369
:100180009B0703D009E008C9121F08C0042AFAD24D
:1001900003E00B780370401C491C521EF9D27047D3
:1001A000D2B201E00270401C491EFBD2704700220F
:1001B000F6E710B513460A4604461946FFF7F0FF66
:1001C000204610BD421C0178401C0029FBD1801A3A
:1001D000704710B5202A04DB0146203A91400020E8
:1001E00010BD914020239C1A0346E34019439040E0
:1001F00010BD10B5202A04DB0846203AD04000216B
:1002000010BD0B46D340D0402024A21A9140084391
:10021000194610BD064C0125064E05E0E36807CCE3
:100220002B430C3C98471034B442F7D3FFF74CFFF4
:100230004C5700087C57000810B5022214490123CE
:1002400086B000281ED0012804D002281AD0032826
:1002500007D117E0CA6A1A43CA62C96AC907C90F37
:10026000059141000B4A8000515A009100210291F2
:1002700003210391084901930858694600F04AFA9E
:1002800006B010BDCC6A1443CC62C96A1140E7E7DE
:1002900000100240F85500082400002010B5054A5F
:1002A0004100515A044A80001058002200F0F4FA2C
:1002B00010BD0000F85500082400002010B5054AC4
:1002C0004100515A044A80001058012200F0E4FA1B
:1002D00010BD0000F85500082400002010B50220D1
:1002E000FFF7DCFF024A78210B2004F021F810BD53
:1002F0002503000810B50020FFF7D0FF024A642153
:10030000092004F015F810BD3D03000810B50320C6
:10031000FFF7C4FF024A82210C2004F009F810BD47
:100320005503000810B50220FFF7C8FF024A0A2152
:10033000072003F0FDFF10BDDD02000810B500200E
:10034000FFF7BCFF024A0A21052003F0F1FF10BDB0
:10035000F502000810B50320FFF7B0FF024A0A219A
:10036000082003F0E5FF10BD0D03000870470000F2
:1003700030B587B014216846FFF719FF1A4CE16ABF
:1003800002200143E162E16A184D01400120019021
:1003900002900320039005910F200003009069460E
:1003A000284600F0B7F90022A114284600F074FA9C
:1003B000012100224903284600F06EFA002229019B
:1003C000284600F069FA00226901284600F064FA24
:1003D000606B29030843606300F054F800F062F892
:1003E00000F058F807B030BD001002400004005083
:1003F00010B502F08FFA02F0CBFF10BD10B504F07B
:1004000061FF10BD10B5012000F078F9022000F066
:1004100075F910BD10B5042000F070F9082000F047
:100420006DF910BD10B5102000F068F9202000F023
:1004300065F9402000F062F9802000F05FF9FF20AC
:10044000013000F05BF90120400200F057F9012073
:10045000800200F053F90120C00200F04FF90120A2
:10046000000300F04BF90120400300F047F90120A0
:10047000800300F043F90120C00300F03FF910BDF4
:10048000FEE70000024841680122114341607047C5
:1004900000580140024841680422114341607047FE
:1004A00000580140024841680222114341607047F0
:1004B00000580140F8B50446006801684908490041
:1004C000016000F0EFF900272546064620350EE0D2
:1004D00000F0E8F9811B7D20C000814207D9E06B64
:1004E00020210843E0632F7103206871F8BD206864
:1004F0000068C007ECD12F71012068710020F8BDA1
:1005000070B50024024620325179022903D004211B
:10051000C16301243CE001680B680E25AB430B600E
:1005200001680B685B085B000B601A4B016899421D
:1005300001D1012121E0174B1433994201D110213F
:100540001BE0144B2833994201D1891515E0114B5A
:100550003C33994201D189140FE00E4B503399423C
:1005600002D10121090408E00A4B6433994202D107
:100570000121090501E001210906064B083B5960EC
:100580000121517100211171816B002900D0884730
:10059000204670BD0800024070B5002805D0034613
:1005A00020335979002902D003E0012070BD0021D9
:1005B000197102215971046822683749C5680A40D7
:1005C000816846692943056935432943856929437B
:1005D000C5692943056A2943114321602F492F4CDE
:1005E00002687831A24206D18A6A120912018A622F
:1005F0008A6A406849E0294C1434A24207D18A6AC9
:10060000F024A2438A628A6A406800013DE0234CDC
:100610002834A24208D18A6A0F242402A2438A62A3
:100620008A6A4068000230E01C4C3C34A24208D187
:100630008A6A0F242403A2438A628A6A40680003FC
:1006400023E0164C5034A24208D18A6A0F242404B5
:10065000A2438A628A6A8088000416E00F4C6434E0
:10066000A24208D18A6A0F242405A2438A628A6AB8
:100670008088000509E08A4209D18A6A0F2424068D
:10068000A2438A628A6A0079000602438A620120D4
:100690005871002070BD00000FC0FFFF080002402D
:1006A00001B5009801F08CFF08BD000002484168C8
:1006B00082151143416070470020024003484168A1
:1006C00001221143416000207047000000200240D9
:1006D00005484168C90705D00449C1600449C160A3
:1006E000002070470120704700200240EFCDAB8909
:1006F0000504030210B501F0DBFE10BD10B504497E
:100700004A69024202D04861FFF7F4FF10BD0000C1
:1007100000040140F8B500230124A7E027469F40CC
:100720003A4070D04D68022D01D0122D14D1DD0851
:10073000AD002D1800952D6A5E07AC46F50E0F260C
:10074000AE46AE406546B543AC460E697546AE4012
:1007500065462E43009D2E624D68012D05D0022D69
:1007600003D0112D01D0122D16D185680326AC4679
:100770005D00AE46AE406546B543AC46CE687546B4
:10078000AE4065462E43866046680D79BE43ED0651
:10079000ED0F9D403543456006685F000325BD4071
:1007A000AE46AE430D79B446AE07B60FBE406546C1
:1007B0002E430660C6687546AE438D68BD4035431E
:1007C000C5604D68ED0050D52B4D6E6B26436E63B2
:1007D0009E082A4DB6007519AC46AD689E07360FC7
:1007E0000F27B740BD4305273F07B84201D1002777
:1007F0001AE0234FB84201D1012715E0214FB8423A
:1008000002D1022710E030E01F4FB84201D1032788
:100810000AE01E4FB84201D1042705E01C4FB84240
:1008200001D1052700E00627B7402F436546AF609A
:10083000184D2E684F689643FF0300D516432E606F
:100840006E684F689643BF0300D516436E60AE686E
:100850004F689643FF0200D51643AE60EE684F68BE
:100860009643BF0200D51643EE605B1C0A6815462E
:10087000DD4000D052E7F8BD00100240000001400A
:100880000004005000080050000C00500010005000
:10089000001C005000040140002A01D08161704713
:1008A0008162704701484068704700005000002096
:1008B000F8B5224C6068401C6060214F3888401CAD
:1008C00038806078401C607000251E4E25702078AE
:1008D000C000315C012909D181194A883B889A42BC
:1008E00004D1355401204870486880472078401C66
:1008F000C0B220700F28EAD3607864281CD16570DC
:10090000114F124E3868401C3860257020780C2139
:100910004843315C012909D181194A683B689A42F0
:1009200004D1355401204870886880472078401CE5
:10093000C0B220700228E9D3F8BD000050000020AA
:100940006600002094050020680000200C060020AE
:1009500010B506480168022211430160104600F0FC
:1009600007F800F019F8002010BD00000020024038
:1009700010B504460748472109010068FFF7B8FB96
:1009800001F058FA00222146501E00F043F80020E2
:1009900010BD00004C00002010B50B48816B020414
:1009A0001143816300F04AF800F040F807480268FC
:1009B00008210A43026002688A43026000F02EF8B0
:1009C00001F0A6FD10BD0000001002400020024012
:1009D000C106C90E01208840014908607047000027
:1009E00080E200E0C106C90E01208840014908608C
:1009F0007047000000E100E005490968C206D20E18
:100A000001209040014201D0012070470020704732
:100A100000E200E010B502F0D3F910BD0248016811
:100A200002151143016070470070004002480168E0
:100A30004215114301607047007000400248016890
:100A4000102291430160704700700040F8B566497C
:100A5000074601250020ED03624B634A4031102F09
:100A60006FD011DC012F77D0022F6CD0042F6BD008
:100A7000082F24D1C9680324240321407BD0BD0260
:100A80006C10A9427CD0A0E00326584C3604202FDD
:100A90000BD0402F35D0FF3F012F10D1C968314016
:100AA00069D07C04A1426BD096E00B6909690127EB
:100AB00031403F04B94203D1990559E02846F8BDB9
:100AC00001256D04A94203D19907F8D54848F8BD1E
:100AD000B142FCD111688903F9D5116803200005E2
:100AE000014001200005091A09D0091A05D08142E8
:100AF00001D14048F8BD2046F8BD3F48F8BD3F4809
:100B0000F8BDC9680125AD06294006D0A942F7D134
:100B100091688907F4D53A48F8BD11688901FBD579
:100B2000D068D1688002374D000F2D5C0802810F1C
:100B3000D068491CC0030AD41068C00605D52046F9
:100B400006E045E008E023E030E0184600E02E48EB
:100B50006843FFF7CDFAF8BDCC68A407A40F0CD00A
:100B6000022C0DD0012C10D0032CF4D10969890579
:100B70000029A3DBF8BD16E002E000F0D1F9F9E7A7
:100B800011684907F6D51846F4E700F0D9F9F1E7FE
:100B9000CC680C26344006D0082CF1D0042CF4D0BC
:100BA0000C2CE3D0E6E700F0ABF9E3E7CC680326D2
:100BB000B6023440F7D00127FF02BC42E0D07A10E1
:100BC0009442E2D0B442D1D0D4E7A142DDD0D1E703
:100BD000916B4902E7D4CDE7012212049142D4D0AF
:100BE000C8E700000024F4000010024000093D00A6
:100BF0008890000020A1070040420F0080841E0062
:100C0000006CDC021056000800127A00F8B50446A9
:100C100000785E4D800672D55C4E0027403EB06B7A
:100C2000C00004D4B06BA9050843B063012758483D
:100C30000168C90511D40168821511430160FFF7ED
:100C400031FE009005E0FFF72DFE0099401A642860
:100C500037D84F480068C005F5D53268032109052B
:100C600060680A400140914208D08103890F03293E
:100C700004D13168890301D50120F8BD2A69032117
:100C800009040A4022D0084090421FD020788006F4
:100C90001CD528692A6988430121C9040A432A61AD
:100CA0002A698A432A612861C0050FD5FFF7FAFD3A
:100CB000009008E0FFF7F6FD0099411A354881429F
:100CC00001D90320F8BD28698005F3D56168880340
:100CD000800F032805D132680005824301400A4392
:100CE00032602869032261681204114008432861B8
:100CF000002F04D0B06B012109078843B06320782E
:100D0000C00705D0E868A168800880000843E86053
:100D10002078800705D5E8680C218843E1680843FE
:100D2000E8602078400706D5E868032189028843F7
:100D300021690843E8602078000706D5E8680321A8
:100D40000903884361690843E8602088C00506D527
:100D5000E868032109048843A1690843E860207812
:100D6000400606D5E868012189068843216A0843C0
:100D7000E8602078000606D5E868032189048843E6
:100D8000E1690843E8600020F8BD0000401002401F
:100D90000070004088130000F8B5054653480E4621
:100DA0000068C007C00FB0420AD250480168490825
:100DB0004900314301600068C007C00FB0426FD1E5
:100DC00028784B4C800705D5E068F0218843A96856
:100DD0000843E0602878C00752D06868022817D01E
:100DE000032818D02168012818D08905002957DA6E
:100DF000E168890889000143E160FFF753FD6968F4
:100E00000746022912D003291CD0012926D033E03D
:100E100021688903EAE721688901E7E74907E5E7EF
:100E2000FFF740FDC11B3348814223D8E06800072B
:100E3000800F0228F4D123E0FFF734FDC11B2D48B9
:100E4000814217D8E0680007800F0328F4D117E02B
:100E5000FFF728FDC11B274881420BD8E068000737
:100E6000800F0128F4D10BE0FFF71CFDC11B2148C6
:100E7000814201D90320F8BDE0680007800FF3D15B
:100E80001A480168C907C90FB1420BD9016849085E
:100E90004900314301600068C007C00FB04201D073
:100EA0000120F8BD2878400706D5E068072109022F
:100EB0008843E9680843E0602878000707D5E068C0
:100EC0000721C90288432969C9000843E06000F08E
:100ED00037F8E168084A0906090F515CC84007491C
:100EE00008600320FFF744FD0020F8BD0020024009
:100EF0000010024088130000005600084C0000203B
:100F0000044805490068C968044A4905490F515C0D
:100F1000C84070474C0000200010024019560008DD
:100F2000044805490068C968044A8904490F515CAE
:100F3000C84070474C0000200010024019560008BD
:100F400010B5184AD1680C20084004280BD0082896
:100F500010D00C2810D050680004410F0120C003AD
:100F6000491C884010BD1068C00601D50E4810BD50
:100F70000E4810BD0E4810BD88020E4B000F185CC5
:100F80000902D368890F491CDB0301D5084A05E033
:100F90001268D20601D5044A00E0044A5043FFF724
:100FA000A7F810BD0010024000093D000024F40025
:100FB00000127A0010560008F8B504460078FF4D7C
:100FC000C0074CD0E8680007800F022807D0E86807
:100FD0000007800F032809D1E868C00306D52868F8
:100FE00080033CD56068002875D038E00120626835
:100FF0000004824203D129680143296011E00523DE
:1010000001211B0489049A422A6802D10A432A60FA
:10101000F1E782432A602A680240009228688843E8
:101020002860606800280DD0FFF73CFC0646E44FBE
:1010300004E0FFF737FC801BB8427DD828688003A6
:10104000F7D50CE0FFF72EFC0646DD4F04E0FFF776
:1010500029FC801BB842F0D828688003F7D4207898
:10106000800741D5E8681F270007800F3F0201284D
:1010700007D0E8680007800F032809D1E868C0039B
:1010800006D42868400717D5E068012823D113E06B
:10109000E068002817D0296809229143014329609C
:1010A000FFF700FC064604E0FFF7FCFB801B02286C
:1010B000C3D828684007F7D568682169B843090292
:1010C0000843686010E02868400840002860FFF787
:1010D000E9FB064605E090E0FFF7E4FB801B0228F1
:1010E000ABD828684007F7D42078C00676D5E868E2
:1010F000B44E0007800F0BD0E06900285DD028684F
:10110000FF21013108432860FFF7CCFB074644E08C
:101110002868800502D5E06900286ED0606A696899
:101120003140884212D901F06FFE0028AED16868C4
:10113000616AB043084300E0E4E068606868218CBD
:101140000002000A0906084368600FE06968B143BD
:10115000014369606868218C0002000A090608439F
:101160006860606A01F050FE00288FD1606A410B10
:101170000120C003491C8840E968934A0906090F09
:10118000515CC840914908600320FFF7F1FB25E05E
:10119000FFF788FBC01B02288AD828688005F7D58E
:1011A0006868616AB043084368606868218C00021F
:1011B000000A09060843686010E02968FF20013032
:1011C00081432960FFF76EFB064604E0FFF76AFBE8
:1011D000801B022884D828688005F7D420787C4EAC
:1011E000000723D560690028306910D00121084329
:1011F0003061FFF757FB074605E009E1FFF752FBB7
:10120000C01B02287ED830698007F7D50EE0400861
:1012100040003061FFF746FB074604E0FFF742FB62
:10122000C01B02286ED830698007F7D420784007A9
:1012300061D5A86B0027C00005D4A86B0121090760
:101240000843A863012763480168C90511D40168F0
:10125000821511430160FFF725FB009005E0FFF7C1
:1012600021FB0099401A64284CD85A480068C005F0
:10127000F5D5FF20A2680130824203D131690143D4
:10128000316111E001218902002A07D005231B02E8
:101290009A4203D132690A433261EFE732698243ED
:1012A0003261306988433061A06800280ED0FFF7B2
:1012B000F9FA009006E0FFF7F5FA0099411A404864
:1012C00081421FD830698005F5D50DE0FFF7EAFAB5
:1012D000009006E0FFF7E6FA0099411A384881428B
:1012E00010D830698005F5D4002F04D0A96B0120F7
:1012F00000078143A9632078800630D53649A0696C
:101300004A1400E07DE0002816D0AB6801200343BA
:10131000AB606B6B03436B63086A10430862FFF7B3
:10132000C1FA064604E0FFF7BDFA801B022868D820
:10133000A8688007F7D512E0A86840084000A860B8
:10134000086A90430862FFF7ADFA064604E0FFF72B
:10135000A9FA801B022854D8A8688007F7D4A06A8D
:10136000002853D0E9680907890F032950D00126C6
:1013700036060228286805D0B0432860FFF792FAA5
:10138000044640E0B0432860FFF78CFA074604E0CB
:10139000FFF788FAC01B022833D828688001F7D4E9
:1013A000216BE06AEA680843616BFD231B049A43E2
:1013B00011430843E860286830430FE00010024002
:1013C0008813000000E00000005600084C000020D8
:1013D0004010024000700040000001402860FFF70C
:1013E00061FA044604E0FFF75DFA001B022808D802
:1013F00028688001F7D509E0FFF754FA001B02289E
:1014000001D90320F8BD28688001F5D40020F8BD7B
:101410000120F8BD30B5014620310A78012A15D0E7
:1014200001220A7002234B700468CA2363620468B5
:101430005323636203689C6820252C439C600068EA
:10144000FF2343624A700020087030BD022030BD87
:1014500010B503F0D1F810BDF8B5054604462035A7
:10146000287801281DD00120287002206870226889
:10147000CA205062226853205062FF2001300026AB
:10148000FF2781421CD121688A6882438A602068D4
:1014900081680122120391438160FFF703FA0090F3
:1014A00009E00220F8BDFFF7FDF90099411A7D20FF
:1014B000C00081421BD82068C068C007F3D020E07C
:1014C000206881680122520291438160206881680E
:1014D000120191438160FFF7E5F900900DE0FFF7FD
:1014E000E1F90099411A7D20C000814205D92068A8
:1014F0004762032068702E70F8BD2068C0688007BE
:10150000EDD520684762012068702E700020F8BD7C
:1015100010B500680B464068C021C9430140000275
:10152000000ECC04D870E40E5C708C06A40E090486
:10153000490F9C701970002A0AD101F0A1FCD870E3
:10154000587801F09DFC5870987801F099FC9870DB
:10155000002010BD30B50B460168896A59600168EA
:1015600009694904490C9960006804680F482146DC
:10157000014088024D04800E18706D0E49065D70A2
:10158000490E99706102490E40242140D970002A09
:101590000AD101F075FC1870587801F071FC587090
:1015A000987801F06DFC9870002030BD7F7F7F003F
:1015B00070B5040005D0254620356878002802D093
:1015C00006E0012070BD00202870204600F042F89F
:1015D000022068702168CA2048622168532048624E
:1015E000204601F060FCFF210028206803D0416202
:1015F00004206870E5E78268154B1A408260226813
:1016000090686368A6691843236933431843906060
:101610002268E06810612068026923891B041A436C
:1016200002612068C26880239A43C2602068C26C4D
:1016300092089200C264E269606902432068C36C48
:101640001A43C2642068416201206870002070BDA6
:10165000BFFF8FFF00B597B00420009000200A90D4
:10166000FF20013002906846FFF7A6FC002801D059
:10167000FEF706FF20200E90C0020F900EA8FFF785
:10168000C5FA002801D0FEF7FBFE084801690122D7
:10169000920411430161002201210220FFF7BAF9EF
:1016A0000220FFF79FF917B000BD00004010024074
:1016B000FEB506460446203630780B46012842D057
:1016C000012030700220707020681D4600272035F0
:1016D0008068002A39D0400655D5187801F0D0FB33
:1016E000287801F0CDFB19789878090408435978D7
:1016F000DA780902120411430843297809060843DD
:10170000D9690843596908430546996958680843E7
:1017100000902168CA204862216853204862FF2057
:101720005A6A0130802182424AD1226893688343F9
:1017300093602268D0680840FF388238D060FFF795
:10174000B1F8019029E00220FEBD400600D4DF7010
:10175000187801F09DFB0204587801F099FB000213
:101760000243987801F094FB0243D87800040243C6
:10177000287801F08DFB00060243D86902435869BE
:1017800002431546C1E7DF70AAE7FFF78BF801991E
:10179000411A7D20C00081422AD82068C068C00755
:1017A000F3D02068C561216800984864206881688A
:1017B000FF2201321143816020688168120130E00C
:1017C0002068826801235B029A4382602068C268B5
:1017D0000A401D495118C160FFF764F801900EE0FE
:1017E000FFF760F80199411A7D20C000814206D9B7
:1017F0002168FF204862032070703770FEBD2068AA
:10180000C0688007ECD5206805622168009888646C
:10181000206881680122520211438160206881683A
:1018200012011143816009480268012149040A43F9
:10183000026082680A4382602168FF2048620120BA
:10184000707037700020FEBD7FFDFFFF0004014077
:10185000F8B505460446203528780B46012815D0F2
:1018600001202870022068705878002A10D001F0FA
:1018700007FB987801F004FBD8789E7800040643B3
:101880005878197800024903084316E00220F8BD91
:10189000C10603D5EF2108400A305870D87801F00E
:1018A000F7FA0604587801F0F3FA00020643987834
:1018B00001F0EEFA06431878400306432168CA2077
:1018C0004862216853204862204601F0ECFA002764
:1018D000002811D110480640206846602068C16881
:1018E00080229143C1602068806880060CD4204625
:1018F00000F08CF8002807D02168FF2048620420FF
:1019000068702F700120F8BD2168FF204862012017
:1019100068702F700020F8BD3FFFFF00F8B5064645
:101920000446203630780D4601280ED00120307054
:1019300002207070206800278068002A07D04006C7
:101940001AD5287801F09CFA17E00220F8BD40066D
:1019500000D4EF70287801F09BFA0204687801F057
:1019600097FA00020243A87801F092FA0243E8785D
:101970000004024300920BE0EF702978A878090474
:1019800008436978EA780902120411430843009079
:101990002168CA204862216853204862204601F02D
:1019A00082FA00281FD11849009808402168086071
:1019B0002068816801229204914381602969E86866
:1019C000084321688A68104388602068C1688022C3
:1019D0009143C1602068806880060CD4204600F0E6
:1019E00015F8002807D02168FF2048620420707095
:1019F00037700120F8BD2168FF2048620120707017
:101A000037700020F8BD00007F7F7F0070B504466E
:101A10000068C168A0229143C160FEF743FF7D26A4
:101A20000546F60006E0FEF73DFF401BB04201D937
:101A3000032070BD2068C0688006F4D5002070BD0A
:101A400010B50446006C002801D0FEF733FD606C31
:101A5000002801D0FEF72EFD206841680222914344
:101A600041602068416849084900416001204034D4
:101A70006074002010BD70B5040006D025464035C6
:101A8000687C0026002802D005E0012070BD2E747D
:101A9000204600F033F80220687420680168402274
:101AA00091430160A168606822690843E1681143BD
:101AB0000843616901220843A169520211400843A9
:101AC000E1690843216A0843A16A08432168086064
:101AD000A0690421000C0840616A0843216848603D
:101AE0002168E06A08612068C16992009143C16180
:101AF000666501206874002070BD000038B51C497F
:101B00000546486B8A1410434863086B0122104352
:101B10000863086B1040009000F094FF154C0820FB
:101B200060601020A0600020E06080202061400004
:101B300060618000A0612020E061000220620E4808
:101B400020602046FEF728FD2C64002211460A2062
:101B5000A562FEF75FFF0A20FEF744FF0022114650
:101B60001920FEF757FF1920FEF73CFF38BD000093
:101B7000001002401804002030000240F8B504466E
:101B800000276846078026464036707C012802D030
:101B9000707C22287ED100290CD0002A0AD0002B8C
:101BA00008D0307C012875D001203074707C012869
:101BB00002D003E00120F8BD322070746765A26393
:101BC000A387E3872163A386E386A764E7640125EF
:101BD000A06A6D03A84207D120680168A94301608B
:101BE000206801682943016020680168490603D420
:101BF00001684022114301600121FF20E268C9020F
:101C000005308A42616866D1002904D081420CD136
:101C1000E08E012809D1206B21680088C860206B04
:101C2000801C2063E08E401EE086E08E002843D1B9
:101C3000A06AA84246D1206801680122120311431C
:101C400001603FE02068C068A16B0880A06B801C29
:101C5000A063B0E0002202212046069B01F023FB96
:101C600000287DD1206B21680088C860206B801C13
:101C70002063E08E401EE086E08E002808D1A06A36
:101C8000A84205D1206801680122120311430160B6
:101C9000002200E0CCE001212046069B01F003FB7E
:101CA00000287FD12068C068A16B0880A06B801CD1
:101CB000A063E08F401EE087E08E0028CAD16068F4
:101CC00000287BD1002201212046069B01F0EBFA7F
:101CD000002867D1B6E7002904D081420BD1E08EFD
:101CE000012808D1206B411C216321680078C8605D
:101CF000E08E401EE086E08E002845D1A06AA84212
:101D000005D12068016801221203114301600022FD
:101D100001212046069B01F0C6FA002842D1206826
:101D2000C068A16B087046E0002202212046069B95
:101D300001F0B9FA002835D1206B411C21632168DC
:101D40000078C860E08E401EE086E08E00280AD150
:101D5000A06AA84207D1206802680121090300E0B7
:101D600020E00A430260002201212046069B01F088
:101D70009AFA002816D12068C268A06B411CA163A2
:101D80000270E08F401EE087E08E0028CCD16068B2
:101D9000002813D1002201212046069B01F083FA7E
:101DA000002802D00320F8BD08E02068C168A06BBD
:101DB000421CA2630170E08F401EE087A06AA84227
:101DC0000FD1002201212046069B01F06CFA002869
:101DD00002D0606D02210EE02068C068694608806C
:101DE0000888012280212046069B01F05CFA002829
:101DF00004D0606D202108436065D3E70120707432
:101E0000A06AA84211D120688168C943C9060CD4D0
:101E1000616D0222114361650168A9430160206878
:101E20000168294301603774C4E637740020BAE7BB
:101E30000220B8E7094910B5401E884201D90120A7
:101E400010BD074C60610321081F00F0B9FF00209E
:101E5000A06107202061002010BD0000FFFFFF00EF
:101E600000E000E070B502462032137D012B1BD04C
:101E70000123137502245475046865687026B54300
:101E80006560046865680E68354365600468A56828
:101E90008026B543A5600068846849680C43846067
:101EA00053750020107570BD022070BD70B5040020
:101EB00005D025462035687D002802D006E00120A7
:101EC00070BD00202875204600F00AF802206875D1
:101ED000211D206802F048FA01206875002070BDBD
:101EE00070470268D36801210B43D3600068026821
:101EF0000A43026000207047F8B5054604462035C5
:101F0000287D012817D001272F75022068752268C7
:101F100090687726FF23B0431B02984390600868BF
:101F2000502837D00EDC202857D006DC00284ED0B1
:101F3000102840D14EE00220F8BD302850D0402873
:101F400039D13CE060282DD0702817D0012212032F
:101F5000801A0ED090422ED1CB684A6889682068DA
:101F600002F03DFA206881680122920311438160EA
:101F700021E020688168C908C900F8E7CB684A6891
:101F80008968206802F02BFA21688868B0433043E2
:101F9000886010E0CA684968206802F09AFA502107
:101FA000206806E0CA684968206802F0A3FA602148
:101FB000206802F01FFA6F7500202875F8BDCA6806
:101FC0004968206802F085FA40212068F1E7002185
:101FD0002068EEE710212068EBE720212068E8E781
:101FE00030212068E5E7704770B504460068016954
:101FF0000025C9438907002915DBC168C943890742
:1020000011D4E91E016101202075206880698007D4
:10201000204602D0FFF7E7FF04E000F0A0F82046DA
:1020200000F0D4F8257520680169C943490717D421
:10203000C168C943490713D40421C943016102207F
:102040002075206880698005800F204602D0FFF748
:10205000CAFF04E000F083F8204600F0B7F82575C9
:1020600020680169C943090716D4C168C943090733
:1020700012D40821C9430161042020752068C06979
:102080008007204602D0FFF7AEFF04E000F067F8BB
:10209000204600F09BF8257520680169C943C906F0
:1020A00017D4C168C943C90613D41021C9430161BB
:1020B000082020752068C0698005800F204602D066
:1020C000FFF791FF04E000F04AF8204600F07EF8A8
:1020D000257520680169C943C90708D1C168C9438A
:1020E000C90704D1891E0161204600F070F82068FC
:1020F0000169C943490609D4C168C943490605D4E1
:102100004021C9430161204600F062F870BD70B5FE
:1021100004462034237D012B0CD001252575022394
:102120006375002A08D0042A0AD0082A0CD00C2A89
:1021300011D10DE0022070BD006802F063F90AE0E1
:10214000006802F077F906E0006802F08CF902E01E
:10215000006802F0A3F965750020207570BD704716
:1021600070B5040005D025462035687D002802D0D2
:1021700006E0012070BD00202875204600F00AF816
:1021800002206875211D206802F0EEF801206875B4
:10219000002070BD0248816B0122114381637047AA
:1021A0000010024010B504460068002202F00CF94D
:1021B0002068016A044A114203D1016849084900B4
:1021C0000160002010BD0000111100007047704731
:1021D0007047704770470000F8B502680446D06940
:1021E00011680607360F07D1830605D58B0603D580
:1021F000204602F06AFBF8BD95682023002E65D0CA
:10220000EE07F60FFF2721370F4037435ED0C70791
:1022100006D0CF0504D501271762E26E3A43E26685
:10222000820708D5EA0706D0276802223A62E26EE2
:1022300004273A43E266420708D5EA0706D0256834
:1022400004222A62E26E02252A43E266020709D5C9
:102250000A461A40324305D0236808221A62E36E08
:102260001343E366E26E002AC5D0800604D58806D3
:1022700002D5204602F029FBE06E000703D4206857
:10228000806840061CD5204602F010FB206881685B
:10229000490611D5826840218A438260606E002819
:1022A0000AD01D498163606EFEF72AF90028A2D08A
:1022B000606E816B8847F8BD2046FFF78BFFF8BD45
:1022C0002046FFF787FF0020E066F8BD2646C702DC
:1022D0006036002F0ADA6D0208D501200005106271
:1022E0007372B3722046FFF774FFF8BD050605D57B
:1022F0000D0603D5204602F03FFCF8BD4006FCD594
:102300004806FAD52046146840218C431460737245
:1023100000F065F8F8BD00009948000870B50400A9
:1023200005D025466035687A002802D006E00120F5
:1023300070BD00202872204600F026F82420687224
:1023400020680168490849000160606A002802D0DD
:10235000204602F00BFA204602F0F6FA0128E7D0F8
:10236000206841680922D202914341602068816857
:102370002A22914381602068016801221143016093
:10238000204602F059FA70BD00B50068114985B0C9
:1023900088421DD11048416B0122920311434163D1
:1023A00003204002009002200190012002900320AF
:1023B000039004200490052069460007FEF7AAF95F
:1023C000002211461B20FEF725FB1B20FEF70AFB0F
:1023D00005B000BD00380140001002407047704752
:1023E00010B5094C2078AA280CD0FEF771F9FEF739
:1023F0005DF9AA20207058220449201DFDF7BEFE79
:10240000FEF75CF910BD0000000008088C560008BB
:1024100010B5FEF753F910BD10B5FEF759F9FEF7E8
:1024200045F910BD014600200A0A00D00820084ADC
:10243000114201D004221043064A114201D0022267
:102440001043054A114201D00121084370470000A2
:10245000F0F00000CCCC0000AAAA000038B50B2395
:102460001B07C518114B0FD01C152D1B18D02D1B89
:1024700019D0A542DD6A05D108242543DD62DB6A57
:10248000234007E08024F8E7DC6A01252C43DC6266
:10249000DB6A2B40009311601146FEF73BF938BD13
:1024A000DD6A0224E9E7DD6A0424E6E70010024061
:1024B00010B5FFF7B7FF810002484058002800D050
:1024C000804710BD6C02002070B51C4615460E46B4
:1024D0000846FFF7A7FF0A49002C0DD080000C50DA
:1024E000304600F053FC044600222946FEF792FADB
:1024F0002046FEF777FA70BD002280000A5070BDBA
:102500006C02002010B5D2B2FEF7C6F910BD000073
:10251000F0B587B014216846FDF749FE224CE06A09
:1025200001210843E062E06A08400590E06A022564
:102530002843E062E06A28400590E06A04263043C0
:10254000E062E06A30400590E06A80273843E0624C
:10255000E06A69463840059003200190002002900F
:102560001248009005200007FEF7D4F810480090AC
:1025700069461048FEF7CEF869460F48FEF7CAF8DC
:1025800069460E48FEF7C6F8E06A40084000E0627F
:10259000E06AA843E062E06AB043E062E06AB84300
:1025A000E06207B0F0BD000000100240FF9F000095
:1025B000FFFF00000004005000080050001C005005
:1025C00070B5410EC0017D220023FDF7A7FD054631
:1025D00000F072F8044600E000BF00F06DF8001B48
:1025E000A842F9D370BD000070B505460C46002224
:1025F0002048FEF7AFFF002229461E486668FEF716
:1026000087FF002221461B48FEF7A4FF6068B04206
:10261000F1D1E878184A01465043C01C8308880766
:1026200026D0164968783D220646504302463C3A79
:102630007000801EC1408807D10F8918800F491093
:10264000081AC018A978401E08180D493C224843B2
:102650006178E123514322781B015A438918A278FB
:1026600010180818074A61688002511A401870BD96
:102670000549D7E7AC020020B5050000A0AA9900E3
:1026800080510100FF0300005055440003207047B3
:102690000148006870470000F802002000B587B0CC
:1026A000694605A8FFF7A0FF0249096807B0401A6C
:1026B00000BD0000F802002000B587B0694605A8FB
:1026C000FFF792FF07B000BD10B5084C2078002836
:1026D0000AD100F041F8FF2101310548FEF7BCFEA8
:1026E00000F06AF80120207010BD000058000020A2
:1026F000AC02002010B50D4C0021042000F016FBA8
:1027000001200B494004486121688868C0040BD54A
:10271000C868C00508D5C86880221040FF388238D4
:10272000C8602046FEF794FE10BD0000AC020020F9
:102730000004014010B50446FFF7B0FF201A03283B
:1027400001D9002100E00121042000F0EFFA204629
:1027500000F03EF810BD000010B51449144886B0D2
:10276000002412C01F21016084600461114944618A
:1027700041600838FEF71CFF6946CC75012048759A
:1027800088750875002205A90948FFF761F80094CB
:10279000019404940022694605480394FFF7BEF8AB
:1027A0000348FEF737FE06B010BD000000280040C9
:1027B000AC020020FF03000010B5044C2046211D90
:1027C0001830FFF711FF206010BD0000F802002054
:1027D000F0B587B0044614223F4901A8FDF7CEFCAE
:1027E0003D485038406E009000F07EF83B4802991A
:1027F0003B4A401AA105890D081887B2A10A68460C
:102800008078534202E08918401C80B29942FAD283
:102810006A461579E122120102E0891A6D1CADB2F7
:102820009142FAD26A46547902E0641CA4B23C395F
:102830003C29FAD2927951188EB20121890203E023
:102840007A1A761C97B2B6B28F42F9D203E03C3EB8
:10285000641CB6B2A4B23C2EF9D203E03C3C6D1C21
:10286000A4B2ADB23C2CF9D203E0183D401CADB28D
:1028700080B2182DF9D26946C978890769464A7825
:1028800027D01849491E515C814202D2FDF730FC25
:1028900008461249CA1B10492C394A6005225206C3
:1028A0008A618E704C700A460D7020321070684636
:1028B000C079C8700020C861FF2248610132C86039
:1028C0004A620861024608462438FEF7F1FE07B066
:1028D000F0BD04490C31D5E7FC020020FF030000E5
:1028E00080AEFEFF2856000810B5FF2101310748D1
:1028F000FEF7B2FD05480168C86880221040FF3825
:102900008238C86002499002486110BDAC020020C4
:1029100000040140F0B52948294B016C284C284D92
:10292000274E274A0868143328343C3550369042E5
:1029300001D102201BE0984201D1202017E0A042E3
:1029400002D10120400212E0A84202D1012040033E
:102950000DE0B04202D10120400408E0184F643776
:10296000B84202D10120400501E001204006144F89
:10297000083F78600868904201D104201BE098422B
:1029800001D1402017E0A04202D10120800212E0D4
:10299000A84202D1012080030DE0B04202D1012003
:1029A000800408E006496431884202D10120800594
:1029B00001E0012080067860F0BD000014030020D3
:1029C0000800024001B582B00020C04300900123FE
:1029D00001AA02A90248FFF7D1F8684680880EBD17
:1029E0001403002010B5144812490160144A134B17
:1029F0000021126803E05208491C072901D29A42BB
:102A0000F9D8C900C1610021816001614161FF22E3
:102A1000C16005328162426001220162520282611C
:102A200041620548FFF727F8002801D0FDF728FD8F
:102A300010BD000000300140140300200024F40009
:102A40004C00002030B585B014216846FDF7AFFB7F
:102A500002200190029003200390002004906A4617
:102A600008210F48FFF7FAFC052424076A46402195
:102A70002046FFF7F3FC6A4680212046FFF7EEFC74
:102A800001210191CD0302916A4629462046FFF7B4
:102A9000E5FC012229462046FFF734FD05B030BD94
:102AA0000004005038B51248006801680122D202C3
:102AB000914301600F48C16A01221143C162C06A9B
:102AC00005241040D503240700902946204600F035
:102AD000FBF86068A843606002222946204600F0A7
:102AE00007F900222946204600F0F8F8A56138BD14
:102AF000140300200010024010B50848046CFEF7D3
:102B00009FFF2068016804229143016020680168EA
:102B1000022291430160FFF7C5FF10BD140300209E
:102B20000948016801221204114301600168890308
:102B3000FCD5C16889088900891CC160C168090782
:102B4000890F0229FAD170470010024008B51348D6
:102B5000016801221143016001684907FCD5016841
:102B6000012212061143016001688901FCD5C16888
:102B700003221143C160C1680907890F0329FAD1F3
:102B80000268012109048A43026002680A40009237
:102B90000168012292049143016008BD00100240C7
:102BA0007FB50120134C8007206000256560FF2061
:102BB00025619030A560E0602046FFF7D1FA6020E3
:102BC0000090022001900295002269462046FFF7FE
:102BD0009EFA10200090452001900295042269463B
:102BE0002046FFF794FA2068C1680122920211433F
:102BF000C1607FBD5804002010B50C4C0120216835
:102C0000C043086120680169C943C907FBD107486F
:102C1000FFF7C8FA04210548FFF7C4FA216800202D
:102C200048622168C01E086110BD000058040020E1
:102C300000BFFDE7F8B5D46893685569234314696C
:102C40002C43234394692343D4692343946A234345
:102C5000104C6418203CE67F85590F4F3D401D43C2
:102C60008551E57F03460C33EF585668EE50E67FFA
:102C70001B1FF7581568F550E47F031DE658156AC9
:102C8000360C36042E43E650526A00F011F801204B
:102C9000F8BD0000215600080F80FFFF034A5118BD
:102CA0002039C97F4058C007C00F704784560008BC
:102CB00010B589000F24091F8C408030836A8A4038
:102CC000A3431343836210BD10B5036849434C000E
:102CD0000C19A34351430B43036010BD10B5C368E7
:102CE00049434C000C19A34351430B43C36010BD2F
:102CF00010B5836849434C000C19A34351430B435F
:102D0000836010BD10B5EFF3108272B6064B002938
:102D10005C6803D0012903D1044300E084435C6074
:102D200082F3108810BD00008800002010B5EFF37A
:102D3000108272B6064B00291C6803D0012903D10A
:102D4000044300E084431C6082F3108810BD00003F
:102D50008800002000207047054A002153184033A6
:102D60005B7C4354491C0429F8DB002070470000B9
:102D70000400080802460020C82A02D8024A0A6055
:102D8000704711207047000090040020FF2201329C
:102D9000811A90420CD009DC08280DD008DC0128EB
:102DA00008D0022806D0042802D105E00F22120222
:102DB00007207047052070470620704770470000C5
:102DC0008307FF22DB0E9A408907090E99400028ED
:102DD0000BDA0007000F0838830808489B00181812
:102DE000C36993430B43C3617047830804489B0046
:102DF0001B181868904308431860704700ED00E006
:102E000000E400E07047000070B517490023CA686D
:102E10001206120F18D18A6B154CD500134A02D531
:102E20001268224009E08E6B01252D072E438E6328
:102E300012688E6B2240AE438E63A24204D10321FE
:102E40008903884200D101230A48016849084900E2
:102E5000194301600068C007C00F984201D00120EB
:102E600070BD002070BD00000010024000700040E6
:102E700000180000002002400002C9B20843704759
:102E800001090A2200075143000F4018C0B27047E1
:102E9000002102E00A38C0B2491C0A28FAD2090708
:102EA000090E0843704770B504460068C1684906BA
:102EB00013D40021C943C160FDF7F4FC7D2605460B
:102EC000F60006E0FDF7EEFC401BB04201D90320FE
:102ED00070BD2068C0684006F4D5002070BD10B5F4
:102EE000FFF708FC10BD000070B5092000F0F4FDEC
:102EF0000546062000F0F0FD0404072000F0ECFD7C
:102F000000020443082000F0E7FD0443200A010208
:102F1000184A611A514380315043090A461800216A
:102F2000092000F09FFF3B2000F0D6FD4024204305
:102F300001463B2000F096FF3B2000F0CDFD8006CF
:102F4000FAD40D4800F07CFE3B2000F0C5FD204384
:102F500001463B2000F086FF3B2000F0BDFD8006CF
:102F6000FAD42946092000F07DFF304600F068FEC3
:102F700070BD0000093D000000A1BC33EFF31080DC
:102F800072B680F310887047EFF3108272B680003B
:102F9000024B195082F3108870470000640800202B
:102FA00070B51B4C1FE00021030C01D1102100045F
:102FB000030E01D100020831030F01D10001091DE8
:102FC000144B000F185C4118EFF3108072B61F23EA
:102FD000591A01238B409A4380F3108888000E49C8
:102FE000226008588047226860681040DBD1EFF308
:102FF000108572B610466168E2680840A168114009
:10300000084301D1FFF7BAFF85F3108870BD0000B7
:1030100074000020EB56000864080020EFF31081D4
:1030200072B601228240034883681A4381F31088F4
:103030008260704774000020EFF3108172B60122A5
:103040008240034803681A4381F310880260704786
:1030500074000020FEB5504D04462878002801D0A9
:103060001120FEBD002C09D03B206946087168463E
:10307000FFF772FE002803D0102187E01320FEBD69
:10308000684600793B2801D01220FEBD42496C20E1
:10309000091DFFF76FFE69680029EDD00028EBD10C
:1030A0000846643000F0CEF8060004D06868FFF7E8
:1030B00051FE3046FEBD6846018868688184627BA7
:1030C0000021022A02D0012A18D021E00323334A2A
:1030D0008360C2600161226982620246267E2032DC
:1030E00016742F4F6669BE4204D1FF21F531C162CB
:1030F00053740DE0C1620221517409E0294AC16094
:103100008260016101213222115469464988818619
:1031100021680160616841600146627B40318A75C7
:10312000A2688265227B012A02D0022A02D004E032
:10313000642201E04B22D2008A83237B682213544D
:10314000194EA2683C23B24202D1CB83174812E049
:10315000174EB24204D10820C8837D2000010AE046
:10316000144EB24202D1CB830C4804E0124EB2425C
:1031700009D11248CB830884607B042809D0012040
:1031800028700020FEBDFFF7E5FD1421FFF774FE57
:10319000FEBD0220F4E70000C000002088130000FC
:1031A000E0930400FF01000000EE0200085200005E
:1031B000D4300000A08C000000770100A86100005E
:1031C00070B50D461B4C0146207801282FD1606850
:1031D0000A6882604A68C26089680161C90508D5C9
:1031E000154A816D914204D114498165144A6021C8
:1031F0000A525621095C012907D100F03AF86168AA
:103200000028C88607D020318D7460685621095C7B
:10321000022902D009E0412070BD8168002902D056
:10322000C068062801D2402070BD02202070002016
:1032300070BD0000C0000020A08C000000EE020065
:103240000852000010B5044614F09FFF002801D07A
:10325000000207E0204614F093FF040004D014F0AD
:103260008DFF2002993010BD14F088FF0028EFD1A7
:1032700010BD70B500231A460124002195002D18B9
:10328000AE6825468D402E4201D05B1C9BB2491C86
:10329000C9B22029F5D3521CD2B2032AEDD306209D
:1032A000434398B270BDF8B51D4616460F46044616
:1032B000FDF7F8FA314626464036009000291ED028
:1032C00043E0681C1BD0002D05D0FDF7EBFA0099F8
:1032D000401AA84213D920684168E0229143416016
:1032E0002068026840218A43026023E021680A685E
:1032F00082430A6021680A6802430A601FE020686E
:10330000816838468843DCD124E0681C1DD0002D3C
:1033100006D0FDF7C7FA01460098081AA84214D94A
:1033200020684268E0218A434260206801684022A8
:10333000914301600120A16A40038142D6D001205F
:103340007074002030740320F8BD2068816838460E
:103350008843DAD00020F8BD10B5002804D0012140
:103360000220FFF7E3FC10BD0021F9E710B50128AA
:1033700002D0FFF7D5FB10BDFFF7E8FB10BD10B57D
:103380000020FFF74BFE10BD10B5FFF735FC10BD58
:1033900070B5214CA089C207204600894100002A4F
:1033A0000DD01E480D18A089628990420DD2284682
:1033B000FCF7FDFE60698047002802D027E0174D2A
:1033C000F1E7284601F0AAF821E0A08990420ED04A
:1033D000A389501C834206D12846FCF7E8FE284604
:1033E00001F0CEF813E0A089921C904203D1284648
:1033F000FCF7DDFE0BE0FFF7C7FF00F011F800203F
:10340000FFF7AAFF0120FFF7B1FFFFF7B8FFA08980
:10341000401CA08170BD000090000020A408002086
:1034200010B5FFF769FB10BD704700000149486007
:1034300070470000000000200E2801D9802070474E
:103440000020704705207047F8B51E4D1E492860C2
:103450001E4801F0BBF81D481B49143001F0B6F8B6
:103460001A481949283001F0B1F86868016801204C
:10347000884700F061FBFFF737FD002000F040FCBB
:1034800068688168284608308847114E002460002B
:103490002718F05D00F0FCFBB8198178407800F047
:1034A000E1FC641CE4B2102CF1D3002000F0F0FB2E
:1034B0000649002068390871686840688047801CA8
:1034C000F8BD000000000020113A00083002002082
:1034D0001455000830B585B014216846FCF767FE26
:1034E0001748FFF7A3FF174801900320164D01244A
:1034F000039002946A4610212846FEF7AFFF6A4601
:1035000002212846FEF7AAFF6A4601212846FEF757
:10351000A5FF6A4661030D48FEF7A0FF05252D07AC
:103520006A4620212846FEF799FF002002906A464D
:10353000210301942846FEF791FF05B030BD00003D
:10354000340000200000111000040050000800505A
:1035500070B50E4D04460368002210212846FEF780
:10356000B3FF0022022128466368FEF7ADFF002268
:1035700001212846A368FEF7A7FF01210022490385
:103580000348E368FEF7A0FF70BD00000004005090
:1035900000080050F8B5002069460870924C207968
:1035A000012809D0022859D12046683001F0AEF830
:1035B000607901287ED104E16079002818D00128C3
:1035C0004CD14021122000F04DFC122000F084FA72
:1035D000694608700878844D8006403500286ADA0C
:1035E0002021122000F03EFCA87D002879D088E040
:1035F0007D4D402620352879012837D13F2000F025
:103600006BFA69460870087880072FD40B213E209A
:1036100000F028FC10213F2000F024FC28465C30FC
:1036200001F074F8A879002819D00D2000F054FAA0
:10363000304301460D2000F015FC2846703001F0A3
:103640002DF86A480068002803D00069002800D0DF
:103650008047002028746874A0876087F8BD62489E
:10366000903001F053F800202071EAE7618F604F3D
:1036700000290AD1A08F002807D1A878002831D0CE
:10368000322000F029FA6087618FA08F091AC9B231
:10369000C01900F04AFA608FA08753487C3001F0CF
:1036A00035F8A879002823D00D2000F015FA304312
:1036B000014601E089E031E00D2000F0D3FB4A48EB
:1036C000903000F0EBFF494800680028C1D08668C0
:1036D000002EBED01222AA56618F00234448B04764
:1036E000B7E70CE0404801213A3000F01EFACBE782
:1036F000002020713C48903001F008F8E3E70020FA
:10370000207139487C3001F001F838480068002801
:10371000A4D000690028A1D08047F8BD192000F08E
:10372000DBF9314E40B260363070010605D5C0433A
:10373000401C0006800E474201E00006870E1A205A
:1037400000F0CAF92B49A268002F09DA8A4203D98E
:1037500001110818C01907E001110818C01907E085
:103760008A4203D9011108189D3802E00111081896
:10377000A4386884132000F0AFF93071102000F0F5
:10378000ABF901460D2000F06DFB3179184800F0CF
:10379000CCF9A87D002800D1207113487C3000F0BE
:1037A000B5FF124800680028B7D08468002CB4D058
:1037B00000232222F356AA5E31790D48A0470EA0BD
:1037C0000EE00821122000F04DFB00202071074878
:1037D00000680028A1D0006800289ED0804709A07A
:1037E00001F0C8FDF8BD0000C80100200000002065
:1037F000C800002040DD4A1F7278446F6E650A0DD4
:10380000000000007478446F6E650A0D000000002F
:1038100070B5304C25462379E61F6A79698FA88FE9
:10382000F93E2035012B11D0022B28D1002A26D1B8
:103830000A1A23469B8FE97F304618188A4243DDD7
:1038400000F037FBA08FE97F40183BE0002A17D03B
:10385000012A14D11F487C3000F058FF802112202B
:1038600000F000FB002020711B480068002806D0F3
:10387000C068002803D0804718A001F07BFD70BD10
:10388000002908D1002806D1A87800280FD03220BE
:1038900000F022F96087618FA08F0A1AA97F8A42FF
:1038A0000BDD801900F041F9A08FA97FCCE7094812
:1038B00001213A3000F039F9EDE7D1B2801900F07A
:1038C00034F904E0A08770BDD1B200F0F2FA608F45
:1038D000F8E70000C8010020000000207278546959
:1038E0006D654F75740A0D0070B52A4D2A4C294636
:1038F00008462A7940304979C07C012A04D0022A3E
:1039000001D1002902D170BD002916D00129FAD1B8
:103910000128F8D10221122000F0A4FA2068002822
:10392000F1D040690028EED01C2000F0D5F82168C5
:1039300080064969800E884770BD164C2034207C73
:103940000128F9D1607C0028F6D12046703000F0C3
:10395000DDFE01206074112000F0BEF840084042F6
:10396000A0741B2000F0B8F806021C2000F0B4F888
:103970000643300A0102094A711A5143803150430B
:10398000090A401868630C2000F0A6F84009207668
:1039900070BD0000C801002000000020093D0000AB
:1039A00010B51248407900281FD001281DD11220DF
:1039B00000F092F80E4CC0070BD00521122000F049
:1039C00051FA2068002810D0816900290DD001200B
:1039D0000AE00421122000F045FA2068002804D0F3
:1039E0008169002901D00020884710BDC80100204E
:1039F0000000002005484079002806D10348203007
:103A0000017C002901D1012101747047C801002007
:103A1000F8B52E4D287901282BD0022828D100F0A6
:103A20008BF8FFF761FA002000F06AF9284E0024B5
:103A300060002718F05D00F02BF9B8198178407804
:103A400000F010FA641CE4B2102CF1D3002000F056
:103A50001FF91E484030007F00F080F900202871D7
:103A60001C480068002803D04068002800D0804728
:103A7000F8BD6879002816D1144E0024203634741D
:103A80007474AC876C870B213E2000F0EBF9102199
:103A90003F2000F0E7F9B07901280AD030462C71B8
:103AA000703000F033FE0B4800680028E0D0C0689A
:103AB000DBE70D2000F010F8402101430D2000F05D
:103AC000D1F90248903000F0E9FDECE7C801002090
:103AD000145500080000002008B50122694600F0D6
:103AE00003F86846007808BDF8B504460127154676
:103AF0000E46FF030520002239460007FEF702FDAF
:103B00006006400EFEF75EFF002405E00020FEF791
:103B100059FF3055641CE4B2AC42F7D305200122B2
:103B200039460007FEF7EEFCF8BD0A4610B501461F
:103B30000020FFF7D9FF10BD30B585B014216846CD
:103B4000FCF735FB0120019003200E4D002403906B
:103B500002946A4601212846FEF780FC00220121DA
:103B60002846FEF7CFFC0120FCF79AFD6A460121AA
:103B700028460194FEF772FC0620FCF791FD05B083
:103B800030BD00000008005070B504460920FFF762
:103B9000A3FF0C4D032C08D0002028700520012223
:103BA00002210007FEF7AEFC70BDC109064802D035
:103BB0000122022101E001220421FEF7A3FC0120E1
:103BC000287070BDC801002000080050F0B5052520
:103BD000002703242D07194E85B0002826D0142174
:103BE0006846FCF7E4FA01946A46022128460297E7
:103BF0000394FEF733FC002202212846FEF782FCE4
:103C00006A4602213046FEF729FC00220221304696
:103C1000FEF778FC6A4604213046FEF71FFC0022BE
:103C200004213046FEF76EFC05B0F0BD1421684655
:103C3000FCF7BDFA01200190D6E700000008005013
:103C400070B505461048114E856031462846FCF790
:103C50004FFA044630466043281A0002711040189B
:103C60003146FCF745FA210244182002010E0620D5
:103C700000F0F8F82004010E072000F0F3F8E1B29C
:103C8000082000F0EFF870BDC8010020093D0000D9
:103C900010B504460120FFF71FFF0106174801D5A4
:103CA000012100E000214171C9B2A14224D0447138
:103CB000012C0FD000F0B0F80120FFF70DFF4106F6
:103CC000490E012000F0CEF80021402000F0CAF893
:103CD00030210EE000F0A0F80120FFF7FDFE80216A
:103CE0000143012000F0BEF80021402000F0BAF8A6
:103CF0000021412000F0B6F810BD0000C8010020EE
:103D000070B5154C050015D0606801680120884722
:103D100060680169002088476068416928468847D3
:103D20000120FFF7D9FEC108C9002943012000F096
:103D300099F870BD0120FFF7CFFEC108C90001202E
:103D400000F090F8606801690120884760680168A8
:103D50000020884770BD00000000002010B5044618
:103D60000120FFF795FF0548002C047701D034218E
:103D700000E01221392000F075F810BD0802002083
:103D800070B504460920FFF7A7FE06464D20FFF751
:103D9000A3FE0546E0B2FFF74FFB7106490E08434C
:103DA00070210843C1092AD0112C02DD07210D43DF
:103DB00002E0ED08ED002D1DE943490703D0022C78
:103DC0000CDA02240DE0052C01DA052402E0142CA3
:103DD00000DD142401090901641F05E0112C00DD38
:103DE000112401090901A41E2007000F0143092025
:103DF00000F038F829464D2000F034F870BD00215D
:103E0000C9438C4201DA0C4602E00E2C00DD0E2480
:103E100001090901641CE7E710B5074800F076FCCA
:103E20000548143800F072FC0020FFF769FF0249D2
:103E300000207C39087110BD4402002001210523B7
:103E400010B509031B07012804D000221846FEF70D
:103E500059FB10BD01221846FEF754FB0520FCF764
:103E60001FFC10BD13B5012201A900F001F81CBD13
:103E7000F8B50446012715460E46FF03052000222B
:103E800039460007FEF73EFB204680210843FEF737
:103E900099FD002404E0305DFEF794FD641CE4B25B
:103EA000AC42F8D30520012239460007FEF72AFB71
:103EB000F8BD0A4610B501460020FFF7D9FF10BD36
:103EC00010B588B0FCF744FD00F036F8FCF750FA66
:103ED00000F0D2F9154C2078002816D11C21684634
:103EE000FCF765F901202070FEF77CFDFEF7ECFB86
:103EF000FEF756FEFCF73AFAFFF7ECFA6846FFF7D2
:103F0000A3FA01214020FFF7ADFFFEF769FA01F0A7
:103F1000B9F900F095FE0220FCF78EF90020FCF7BD
:103F20008BF90320FCF788F908B010BD7000002061
:103F300010B5FCF7BDFC10BD10B594B014210EA84F
:103F4000FCF735F938216846FCF731F9022000907A
:103F500001210A90039180040C9000240001019437
:103F600010210D900B9404916846FDF725F8002868
:103F700001D0FCF785FA1148816B0204114381637B
:103F80000F4801680322D2029143C21489180160CC
:103F90004168C943C906FBD50F200E9003200F903E
:103FA00010941194012112940EA8FCF7F5FE00283C
:103FB00001D0FCF765FA14B010BD000000100240FB
:103FC0000070004010480168821511430160C1680B
:103FD0000E4A1140C16001680D4A114001608168BC
:103FE00049084900816001680122920491430160FF
:103FF000C168FD2212049143C1600021016105499D
:10400000C003886070470000001002400C40FF8829
:10401000F6FFF6FE00ED00E010B5074A907A0128A1
:1040200008D106480021817341739172082104A0D0
:1040300000F0C4FE10BD000084070020BC06002074
:10404000546573745F6F6B0D0000000010B50B4872
:10405000017A01290CD14172002202724278521C6D
:10406000D2B2427003789A4203D2017200F0A2F8F1
:1040700010BD81720920FEF7DFFF10BD840700200C
:1040800010B509220AA10D48FCF778F80B48092160
:104090000B38C1770121017201700021417000F0DD
:1040A00089F8FF21064AF5310E2000F041F910BDD4
:1040B0004D454449444F52200D0000008F07002019
:1040C0006150000870B5082210A11348FCF756F89B
:1040D000114C08200B3CE077204620300A220FA12B
:1040E0000546FCF74BF80A202875012020720220B3
:1040F000207000206070204600F05CF8FF210A4A22
:10410000F5310E2000F014F970BD0000454E455207
:104110004749410D000000008F070020454E4552E1
:1041200047494120520D00006150000810B50A2295
:1041300014A11748FCF722F8154C0A200B3CE07735
:1041400014A207CA2346203307C320460C2120307F
:1041500001750B2213A11530FCF710F820460B2136
:1041600040304172012020720320207000206070D6
:10417000204600F01FF8FF210D4AF5310E2000F017
:10418000D7F810BD564F4C54414A4520410D000010
:104190008F070020434F525249454E544520410D50
:1041A00000000000504F54454E43494120410D004E
:1041B0006150000810B500214172074901228A733D
:1041C00008224A734178152251430818C17F0B30E9
:1041D00000F0F4FD10BD0000BC060020F8B5102072
:1041E000FCF7F6FB1E48FDF7FFFE1E4C00251E4F98
:1041F0001E4E25702078C000315C012909D181193B
:104200004A883B889A4204D1355401204870486856
:1042100080472078401CC0B220700F28EAD3607815
:1042200064281CD16570124F124E3868401C3860EB
:10423000257020780C214843315C012909D181196E
:104240004A683B689A4204D1355401204870886816
:1042500080472078401CC0B220700228E9D3F8BD06
:10426000240600205900002066000020940500204C
:10427000680000200C06002010B500F025F80F495A
:10428000002008700E4C0F4A0146CB00E0541B1969
:104290005870491C5880C9B25A600F29F5D3084C90
:1042A000002178340C234B43E0541B195870491CEF
:1042B000C9B29A6058600229F4D310BD640000208E
:1042C000940500206150000810B5104886B00E49D2
:1042D000016000240E498460416009210461C160CD
:1042E000FDF7E4FD01200003009069460748FDF753
:1042F00003FE049404A905480594FDF7B3FD0348A3
:10430000FDF7EFFD06B010BD0004004024060020BC
:10431000FF7C0000C2000448002181541018417045
:1043200041800249416070479405002061500008B7
:10433000F0B40F2812D2C400094801250555002603
:104340002318084F5E707F887F185F805A600029AD
:1043500004D106555D705868F0BC0047F0BC70474A
:104360009405002064000020F0B502680124A40731
:10437000124D134E134FA04205D0A84203D0B042B5
:1043800001D0B84204D11346702293434A681A43BD
:10439000A04205D0A84203D0B04201D0B84204D117
:1043A00003231B029A43CB681A4302608A68C262E5
:1043B0000968816201214161F0BD000000040040F4
:1043C000000801400014014010B50123046A8B402D
:1043D0009C430462036A8A401343036210BD30B5F4
:1043E0008468FF252D021B021343AC430B43234378
:1043F000836030BD826870239A430A4307210A43D1
:104400008260704730B5026A520852000262026A46
:10441000456883697024A3439C080B68A400234368
:104420000224A2438C684560144383614968416358
:10443000046230BD30B5026A10239A430262036AF7
:104440004568826973242402A2430C682402144341
:10445000202293438A68456012011A4384614968A7
:104460008163026230BD30B5026AFF2301339A4393
:104470000262026A4568C3697024A3439C080B6802
:10448000A400234301246402A2438C6845602402F3
:104490001443C3614968C163046230BD30B5026A28
:1044A00001231B039A430262036A4568C2697324AD
:1044B0002402A2430C6824021443012252039343B2
:1044C0008A68456012031A43C46149680164026244
:1044D00030BD30B5036A046A64086400046284690C
:1044E000F025AC43120122430A24A3430B4382610B
:1044F000036230BD30B5036A1024A34303628469AC
:10450000036A0F252D031203AC432243A024A343C7
:10451000090119438261016230BD000070B5164C7B
:10452000A2885108511A1309CD1A144B11000AD050
:104530000E461E43B6B20680801CA94201D90680F1
:10454000801C491EF4D103806188802671406180FF
:104550005F246402214341800121001D09E00C46D3
:104560001C43A4B20480801CA94201D90480801C91
:10457000491C9142F3D970BD9000002000C5000095
:1045800010B50F4989884A088A1A0B09D31AC5221F
:10459000120200290AD00C461443A4B20480801CE5
:1045A000994201D90480801C491EF4D169210280FE
:1045B00049024180034981800349C18010BD000048
:1045C0009000002080810000709E000000220260A8
:1045D000426002720261C1607047000010B5054A76
:1045E0001168002901D000230B720161106000F0F6
:1045F0003FF810BD8400002070B5FEF749F804466E
:10460000FEF7DAF8031B194C206800282DD001466C
:10461000002507E016689E4202D9F61A166000E0EF
:10462000156009690A69002AF4D100281DD00169C2
:104630002160C068002800D1FEE78047206800287C
:1046400013D0FEF72BF8014620680268914205D985
:1046500001692160C0680028EFD1FEE7002804D07E
:10466000017A002901D100F003F870BD8400002018
:1046700070B50446FEF70AF8054601202072FEF7E1
:104680000DF821684019884201D8084603E0FEF77A
:1046900005F840192060FEF74DF870BDF8B504002C
:1046A000EFF3108572B62CD0174F3868014602E040
:1046B000A04226D000690028FAD100266068206058
:1046C000267200290CD0FDF7E9FF21680918216046
:1046D00038680268914206D22046FFF77FFF10E05B
:1046E000FEF76AF8F8E70169002908D022680B682C
:1046F0009A4201D90846F6E70461216101E00461AC
:10470000266185F31088F8BD8400002070B5EFF3B2
:10471000108572B6144C21680A1E21D000281FD0C3
:1047200081421BD1087A00260128086903D000289D
:104730000AD0206014E0002804D00E722060FFF739
:1047400097FF0DE0FEF7D0F8266009E0814203D123
:1047500008691061002803E00A4609690029F5D1BB
:1047600085F3108870BD00008400002010B5818C96
:10477000C90707D001684A6801235B049A43836A2A
:104780001A434A60818C890707D501684A6801236A
:104790001B049A43C36A1A434A60818C490707D5B0
:1047A00001684A6801239B049A43036B1A434A60D9
:1047B000818C090707D501684A680123DB039A4306
:1047C000436B1A434A60818CC90607D50268916819
:1047D00001231B039943836B19439160818C8906E4
:1047E00007D501688A6801235B039A43C36B1A43A8
:1047F0008A60818C490612D503685A68012109052F
:10480000046C8A4322435A60026C8A4207D10268D0
:10481000516803235B059943436C19435160818CB4
:10482000090607D501684A680123DB04806C9A43B6
:1048300002434A6010BD0000F8B500260446C66673
:10484000FCF730F8054620680068124F000709D5CC
:1048500001212B46002249052046009700F0BFF9B0
:1048600000280DD12068006840070BD501212B4698
:10487000002289052046009700F0B1F9002801D0F8
:104880000320F8BD202060346072A07226720020E0
:10489000F8BD0000FFFFFF0110B5806A002201464D
:1048A00040314A834A82FDF795FC10BD01680A68D1
:1048B000FF2321339A430A6001688A685208520034
:1048C0008A60202160308172704770B502464032A4
:1048D00001466031938B8D7A0C460168222D05D0FC
:1048E0008869082210438861022070BD496A012648
:1048F0008568360389B2B54202D10569002D0BD017
:104900001940436D5D1C45651970518B491E0904A2
:10491000090C518307D015E0456D19402980416D80
:10492000891C4165F1E701680A68FF2321339A4336
:104930000A6001688A68520852008A602021A172C8
:10494000FDF74CFD002070BDFEB50446016880688F
:104950002269E36910436269102700261A43104355
:104960000A683546784B1A4002430A60206841685D
:10497000032212039143E26811434160734A2168A4
:10498000A069914201D0226A10438A680B231B025E
:104990009A4302438A606E4A20686E4990420CD165
:1049A000C8688007800F06D0012843D002283FD076
:1049B000032826D124E0012723E0674A90420AD148
:1049C000C8680C21084031D0042833D008282FD0E3
:1049D0000C2816D114E0614A904227D0604A9042D8
:1049E00024D05A4A90420CD1C96803208002014069
:1049F0001CD01015091A1DD0091A19D0814200D1F6
:104A000008270220FCF722F80190504B51492268F8
:104A10004039D81300929A4235D1002F0CD0022F82
:104A20000DD0042F12D0082F1CD113E00027E8E787
:104A30000227E6E70427E4E7FCF762FA08E00868E3
:104A4000C00601D5474805E0474803E0FCF778FA7F
:104A5000002873D0626851005118814202D81103B6
:104A6000814201D2012569E0010E060250080023AF
:104A700030185941FBF752FB032109023B4A411A06
:104A8000914259D9EEE7E26982422DD13B0000F014
:104A90000DFA0906080B24192424241F2400019868
:104AA00012E0FCF73DFA0FE008686168C00602D525
:104AB00048082F4A01E02F4A48088018FBF718FBE6
:104AC00086B20BE0FCF73CFA616840004A08F4E764
:104AD0006168012248081204EFE701253109090144
:104AE0003007400F084327E03B0000F0DFF90907DB
:104AF0000A0D061D060606290600B3E7FCF700FAB4
:104B000014E0FCF70DFA11E008686168C00602D5F0
:104B10004A08144801E014484A081018FBF7E8FA5C
:104B200081B20098C16009E0FCF70AFA61684A089E
:104B30008018FBF7DDFA80B22168C8602846FEBD08
:104B400061684A08E9E70000F369FFEF00480040A8
:104B5000003801404010024000440040004C00403A
:104B60000050004000093D000024F400FFFC0F004D
:104B700000127A000048E8016921095C212901D06E
:104B80000220704702464032518A002912D0012388
:104B900081681B03994202D10169002915D0C16CBB
:104BA0004B1CC364006809788162508A401E5082A1
:104BB0000020704701680A6880239A430A600068F1
:104BC0000168402211430160F2E7C16C0368098863
:104BD000C905C90D9962C16C891CC164E5E7FFB5BF
:104BE00081B017460E4604460A9D1DE0681C1BD086
:104BF000002D05D0FBF756FE0499401AA84213D9A0
:104C000020680168FF22A132914301602068816819
:104C1000490849008160202060346072A072002041
:104C20002072032005B0F0BD2068C169304688437A
:104C300004D00020B842D9D00020F3E70120F9E7E2
:104C4000F8B500F057F8244D2248A8630220FFF77A
:104C500061FB23492148086000242C706C702148B6
:104C600068632F46AC70203728463C727830E86283
:104C70002C862E463C716036EC841E21E81CFBF726
:104C800096FA28466C8432217830FBF790FA05209A
:104C9000387701207877144868661448A86634701D
:104CA00003203073BC77FC772846AA30286420376D
:104CB000BC803C77FC8314216438FBF778FA7C8352
:104CC0002C606C60AC607473B473094828677475A9
:104CD0003475F8BDF54C00085C0600202823000060
:104CE0006C000020894D0008614E0008954E0008B8
:104CF0000038014010B5224C204820604B20C001F4
:104D000060600020A060E0602061A061E0610C2193
:104D10002062616160620120A0632046FDF7FEFA17
:104D2000002201211B20FBF775FE1B20FBF75AFE1A
:104D300001222046A16812034030FF23914204D192
:104D40002169002918D10F490AE07F2200290ED0DD
:104D500001231B07994204D1216900290AD03F2170
:104D600081832068016820221143016010BD216900
:104D7000002901D08283F4E78383F2E70038014001
:104D800014070020FF01000070B50A4D01202875AE
:104D9000002428466C7560384484047044700649C9
:104DA000416301467831C1622046FFF7B3FA2C75A2
:104DB00070BD0000BC060020894D0008F0B58DB024
:104DC0000D460646EFF3108472B601212020FDF750
:104DD000ADFF1F480121026B0A430263006B6A4664
:104DE00008400B90102002901A4800900020069076
:104DF0000196039004908026089503210596164D90
:104E0000079009910A9004212846FDF713FF134FDC
:104E1000F8782958022211432950002201210B2041
:104E20001C3FFBF7F7FD0B20FBF7DCFD094828389A
:104E3000816831438160F97F6A5801231A436A50BF
:104E4000016840221143016084F310880DB0F0BD69
:104E5000001002402838014000000240E4560008DB
:104E600070B50A4C01202075002521466575052284
:104E700040390A774877064A20394A660A46AA32F4
:104E80000A64FFF747FA257570BD0000BC060020D4
:104E9000614E00087047000010B51B20FBF798FD1D
:104EA0000148FDF799F910BD1407002030B474468D
:104EB000641E2578641CAB4200D21D46635D5B0016
:104EC000E31830BC184702E008C8121F08C1002AC6
:104ED000FAD170477047002001E001C1121F002A7B
:104EE000FBD17047FFB505463E480C4695B00168BA
:104EF000139120991F9F490601D540681390189877
:104F0000801E232802D3002019B0F0BD2098C007CE
:104F100001D0302000E02020129000201190209835
:104F2000800707D5002A05DA2D2011901E985242DD
:104F3000401E1E900026002A15D010461899FBF737
:104F4000D7F8139A525C69468A55761C0200F4D150
:104F5000BE4200DD374620991E98CA07C01B20219B
:104F6000002A0AD00DE03020694608700126EFE7DC
:104F70002970641E6D1C002C31D00246401E002A90
:104F8000F6DC119A002A04D02A70641E6D1C002CD5
:104F900025D00246401E002A07DD129AF4E72A7047
:104FA000641E6D1C002C01D119E030223B467F1E8F
:104FB000B342F4DC6A463346761E002B0BDD935D6C
:104FC0002B70641E6D1C002CF5D108E02970641E46
:104FD0006D1C002C03D00246401E002AF6DC284639
:104FE00092E700005C0000208CB02022174904A842
:104FF000FBF7C4F8FEF764FF08A80FC8009001A8EB
:105000000EC004A80FC800F059F8FDF705FA1048C3
:1050100000210171FDF7FCF901210846FDF772FE40
:105020000C490320FDF7B0FF0B490920FDF7ACFF49
:105030000A490820FDF7A8FFFBF750F9FBF75AF9DA
:10504000FBF764F9FDF7ACFFFCE7000040560008F1
:10505000240008086D500008194000084D40000861
:10506000704710B50320FDF7E7FF10BD10B51048DD
:1050700041781031C9B24170402901D310214170EB
:10508000C8B2102804D0202805D0302808D105E067
:10509000FEF7F6FF04E0FFF715F801E0FFF746F82A
:1050A000044B012204210448FDF70EFA10BD000054
:1050B0007000002063500008000400500FB40EB5CB
:1050C0006846027C04A8012A0BD01649022A0CD09B
:1050D000032A0CD0042A19D0102003B008BC04B055
:1050E0001847001DFDF7B6FFF7E720310FE02C3120
:1050F0000EC9001D029301920091FDF7ABFF00283D
:10510000EBD100216846FEF75BF8E6E738310EC9BF
:10511000001D029301920091FDF79CFF0028DCD155
:105120000121EFE740560008FFB585B00746069815
:105130001646002802DC002009B0F0BD401E3C46A7
:1051400003908EE00399E21B8A4270DA252801D091
:10515000207045E072780020761C302A00D10120B2
:105160000021C943303A0D46092A0BD800253246A2
:105170000A2312785D43303D761C55193278303A57
:10518000092AF4D98C4631780A23692950D006DCE3
:10519000582948D063291AD0642906D148E07329D8
:1051A00020D075294CD078293FD0252902D025213F
:1051B0002170641C0399E21B8A4241DA317800298C
:1051C00039D02170641C37E02070641C00E020207E
:1051D0006D1E002DF8DC089801782170001D0890E4
:1051E000641C3DE0089802C800910890002901D095
:1051F000084601E021A00090FAF7E4FF202101E039
:105200002170641C2A466D1E8242F9DC002107E0F1
:10521000009A491C12782270009A521C641C009259
:105220008142F5DB1CE040210843102308E020E028
:105230000221084304E0761E0399E21B8A420FDB39
:105240008107089904C90891614601910290069866
:10525000E11B411A00952046491EFFF743FE044614
:10526000761C3078002800D06CE70399E21B8A4254
:10527000FADA00202070E01B5EE700003C4E554C3F
:105280004C3E000010B586B014216846FAF78FFF37
:1052900009480190012002900320084C03906A46BF
:1052A00004212046FDF7DAF8054B012204212046AF
:1052B000FDF70AF906B010BD0000111000040050FF
:1052C0006350000870B5164801688901CA0F154976
:1052D000002A1DD0144B9A7984580225AC4384507F
:1052E00042680402224342608C694A691219D41749
:1052F000640EA418E409E401121B4A619A798358E8
:105300005B085B0083500948826880239A4382606F
:1053100048690969884201D000F00AF870BD0000B0
:1053200000000240EC0300208456000800380140D1
:10533000F8B5EFF3108672B60D4C2069012187B2E3
:10534000A08A85B22020FDF7F1FC20468038AF42CC
:1053500001D9791B01E08021491BA161A169401994
:1053600089B2103000F08EF886F31088F8BD000086
:10537000EC0300200FB4F0B5A5B000263F4C019619
:10538000E2682BAB1D4605AF002A15D021463846F2
:10539000FAF7F4FEE0682B46C01980212A9AFFF73D
:1053A000C3FE0190E0680199401801900A2120464F
:1053B000FAF7FDFEE66005E0802138462A9AFFF7FD
:1053C000B3FE01902D4C1C3C206961698025401A78
:1053D0008030C117490E0918C909C901401A281A95
:1053E000009017E00120FBF75BF920696169401A22
:1053F0008030C117490E0918C909C901401A281A75
:10540000009072B60B20FBF7F7FA012801D1FFF7E5
:1054100059FF62B6019900988142E3DC2069019945
:10542000164E40188C3E8028206908DA0A468019FA
:1054300005A9FAF7A3FE2069019940180FE0281A80
:10544000C5B220692A46801905A9FAF797FE019886
:105450007919421B3046FAF791FE0198401B2061F2
:1054600007210748FDF71AFC002801D1FFF760FF6C
:1054700025B0F0BC08BC04B01847000008040020A8
:105480000000024070B51F4A8CB0146B01231C430E
:105490001463126B80251A400B92102202921A4A52
:1054A0000092002206920492039201900595052035
:1054B000164C079208910A9209906A4607212046E5
:1054C000FDF7B8FB124EB07921580222114321504A
:1054D000002202210B20193EFBF79CFA0B20FBF760
:1054E00081FA09482838816829438160F17F625830
:1054F00001231A43625001684022114301600CB03D
:1055000070BD000000100240283801400000024039
:1055100084560008000C23000D1E000ED2001A0154
:10552000001FAA0024070027120028C100299400A8
:105530002AC10030D800358F003B020040000041F6
:1055400030012340280A0000170000001C0C000056
:105550000F0000003C0F0000070000005014000086
:10556000160000009C1800000E000000781E0000CD
:1055700006000000A028000015000000D430000044
:105580000D000000F03C000005000000405100004C
:1055900014000000A86100000C000000447A000024
:1055A00004000000E4A200001300000050C300004B
:1055B0000B00000024F400000300000085450100FA
:1055C00012000000A08601000A00000048E8010067
:1055D000020000002C8B020011000000400D0300AF
:1055E0000900000090D0030001000000E0930400D7
:1055F00000000000060004002000200040008000A1
:105600000000000000000000010203040607080972
:10561000030406080C1018203000000000010203EB
:1056200004081C3044586C801F1C1F1E1F1E1F1FA7
:105630001E1F1E1F1F1D1F1E1F1E1F1F1E1F1E1F82
:1056400002000000C07AC6358041F43500EE020049
:105650000201000000000000000000000000000047
:105660000100000000000000000000000300000036
:10567000881300000000000000000000000000404F
:1056800000000000081C3044586C80000000AA0E86
:1056900002000000C07AC6358041F43500EE0200F9
:1056A00002010000000000000000000000000000F7
:1056B00000000000010000000000000000000000E9
:1056C000030000008813000000000000000000003C
:1056D0000000004000000000FF00000FFF0000007D
:1056E00000000000081C3044586C800403020201D2
:1056F00001010100000000000000000030313233E1
:105700003435363738394142434445464748494A9B
:105710004B4C4D4E4F505152535455565758595A61
:1057200000000000303132333435363738396162A9
:10573000636465666768696A6B6C6D6E6F707172C1
:10574000737475767778797A000000007C570008CA
:1057500000000020C8000000C64E000844580008A1
:10576000C800002060180000D64E0008000008089D
:10577000000008085C000000D64E00080000000091
:10578000000000009535000811380008E9380008CD
:10579000A1390008F539000800000000000400509D
:1057A00000040050000000500004005000040050AD
:1057B0003D3E00084534000851350008813D000891
:1057C000CD3B0008893B00080048E80100000000CC
:1057D000000000000000000024570008FC560008EC
:1057E00000000000000000000000000000000000B9
:1057F00000000000FFFFFFFF0000000000000000AD
:105800000000000000000000000000000200000096
:10581000E70010002003000000000000000000006E
:10582000000000004D4F44554C4154494F4E204C10
:105830004942205245563A31323300000000000000
:045840000000000064
:020000040801F1
:10700000945E35DB07D7E94B7C534E8AE317D9935F
:107010003952F77290175ACDE23B0D46C7A4AD1016
:107020000D7C34113F9546BECBC1FC8708293F88B3
:020000040801F1
:10800000F0B50024DBB00F460546611E304A0194EE
:108010000294039420200494135C002B00D00021D0
:10802000401C3028F8D3002907D030223946284692
:10803000E8F7A4F800205BB0F0BD0D940E940F9407
:108040000A210DA8109400F05FF811AA10210DA8C4
:1080500000F01EF911AE01AB032229463846009606
:1080600000F099F8287B0B28E4D105940694079436
:1080700018A308940FCB09AF0FC7302229464EA88A
:10808000E8F77CF80194029403940B210DA8049462
:1080900000F03AF811AA102109A800F0F9F801AB94
:1080A000012205A90DA8009600F0B6F801940294EB
:1080B000039411AA102105A8049400F0E9F82946B8
:1080C00001AB0222103152A8009600F064F8B1E72B
:1080D00000700108460B18D2B151F3087061C3CB90
:1080E0002F7D72A510B58CB0044630220549684634
:1080F000FFF786FF042269462046E8F73FF80CB0F8
:1081000010BD00000070010870B50546154816A6A0
:108110000088CAB0020559CE049601AE19C60024E3
:1081200015480594069407940894036909934369D4
:108130000A93406A0B90120D9720400512021043DB
:1081400008430C900DAA102101A800F0A1F80DA879
:10815000009005AB0122294609A800F05DF82046F1
:108160004AB070BD0058014028DBA560306D7B1E11
:1081700096396295404A9D434000F81F00207047A1
:1081800010B5FFF7AFFF002010BD0020704710B5FD
:1081900000F016FC10BDFFB589B0129C17462546AD
:1081A000E03532E004A8099900F032F90A98089005
:1081B000287C099900282DD002011219684600F088
:1081C000E5F8684600F086FA2E7C07E031010919CF
:1081D0006846FFF7DCFF684600F03CF9761E36067D
:1081E000360EF3D122466946089800F0CFF80C9974
:1081F0000A9800F0E5FB04A90C9800F009F9099829
:10820000103009900A9810300A9038467F1EC9D263
:108210000DB0F0BD0120FBE7FFB585B017460E9C01
:108220002FE00599089800F0CBFB08992646E03628
:108230000491307C002829D02246684600F0A6F838
:10824000012508E000F07AFA290109196846FFF7CC
:108250009EFF6D1CEDB2307CA8426846F2D800F05B
