:020000040800F2
:10000000D81E0020D5000008854E0008953B00084A
:1000100000000000000000000000000000000000E0
:100020000000000000000000000000005167000810
:100030000000000000000000EF4E0008B57300084B
:10004000E7000008E700000873520008E700000816
:10005000E7000008F10B0008010C0008110C000873
:10006000E7000008E7000008410A00084D0A000800
:10007000E7000008E7000008E7000008E7000008C4
:10008000A1760008E7000008E70000080000000073
:10009000E7000008E7000008E7000008E7000008A4
:1000A000E7000008E7000008E700000855860008A0
:1000B00069860008E700000800000000E70000086B
:1000C0000348854600F0D2F8004800477D880008C4
:1000D000D81E00200448804704480047FEE7FEE79A
:1000E000FEE7FEE7FEE7FEE779740008C1000008BE
:1000F00030B50B46014600202022012409E00D46C0
:10010000D5409D4205D31D469540491B2546954047
:1001100040191546521E002DF1DC30BD70B500248B
:100120002546002801DA01244042002901DA012590
:100130004942FFF7DDFFAC4200D04042002C00D026
:10014000494270BDF0B51FB40646002082B0054696
:100150004024019100901BE0019922460F46304651
:1001600000F072F8049A059B801A994110D310464A
:100170001946224600F058F8361A8F410197224658
:1001800001200021009F00F04FF838184D410090E9
:100190002046641E0028DFDC019B00982946324679
:1001A00007B0F0BD03460B439B0703D009E008C925
:1001B000121F08C0042AFAD203E00B780370401C17
:1001C000491C521EF9D27047D2B201E00270401CA5
:1001D000491EFBD270470022F6E710B513460A46C7
:1001E00004461946FFF7F0FF204610BD421C017877
:1001F000401C0029FBD1801A704730B5044600200E
:10020000034600E05B1C934203D2E05CCD5C401BE4
:10021000F8D030BD0321001D401E037812021A439E
:10022000491EF9D51046704710B5202A04DB014657
:10023000203A9140002010BD914020239C1A034693
:10024000E3401943904010BD10B5202A04DB084656
:10025000203AD040002110BD0B46D340D04020248E
:10026000A21A91400843194610BD0000064C012512
:10027000064E05E0E36807CC2B430C3C984710344E
:10028000B442F7D3FFF720FF3491000874910008BF
:1002900038B50446064805490068FFF729FF604362
:1002A00000E0401E00900028FBD138BD40420F0006
:1002B00038000020F8B50446006881688907890F76
:1002C000012902D10168C90722D18168114A10268B
:1002D0001140012500290ED1816829438160012048
:1002E000FFF7D6FF01F0D4F807460CE001F0D0F894
:1002F000C01B0A2807D9A06D3043A065E06D2843D4
:10030000E0650120F8BD20680068C043C007EDD15A
:100310000020F8BD1700008010B505488078030064
:1003200008F0C2F904050505030500F003F810BD47
:10033000D00B002010B50948C078402807DA1028F3
:1003400006D0202807D0302801D100F083F810BD56
:1003500000F006F810BD00F02FF810BDD00B002003
:100360007CB5002000900190FF2209210E48FFF784
:100370002BFF0E4C0E4D0622E11C281DFFF712FF2D
:10038000291D0C4D0622284600F012FC0622694663
:10039000284600F0FFFB04480922E11CC01CFFF7BF
:1003A00001FF00F09DF87CBDE50B0020040C00204F
:1003B000D00B00200003080810B588B0002005907D
:1003C0000190039004900090029006901E4CFF2034
:1003D000A0710C221D4903A8FFF7E4FE1C4803AAE4
:1003E000C07D6946012802D0022829D114E00020EE
:1003F00013189B780B54401CC0B20C28F8D30A2267
:1004000006A808F091F90698010EE171010C21721D
:10041000010A6172A07213E0002013189B780B543C
:10042000401CC0B20C28F8D30A2206A808F07CF9B8
:100430000698010EE172010C2173010A6173A07329
:1004400000F04EF808B010BDDF0B0020070C0020B4
:10045000EC02002010B58AB00020059004900690B0
:100460000790009008221B4904A8FFF79BFE00207C
:1004700004A906AA0B185B781354401CC0B20728C5
:10048000F8D3062206A903A808F02AF903986C46B7
:1004900001020B0E01040A0E2370C1B262700E48F5
:1004A000A170C47D0D48012C04D0022C06D0032C71
:1004B0000BD107E08371C271017206E04372827250
:1004C000C17202E003734273817300F009F80AB04D
:1004D00010BD0000070C0020EC020020DF0B002004
:1004E00010B50848C17D0279914208D100210176FA
:1004F00005490120C8720F2004F07AFF10BD00F0FA
:1005000073F810BDEC020020D00B002010B50922BA
:1005100006490748FFF746FE0548092120300177C4
:100520000621203001700121017110BDEC8E000800
:10053000AC02002010B50A220B490C48FFF732FE2E
:1005400009490A48082211390F30FFF72BFE0748E6
:100550000A2120300177082141770C2120300170D9
:1005600041700221017110BDF58E0008AC0200201F
:1005700010B50A2210491148FFF714FE0E490F4822
:100580000C220A310F30FFF70DFE0B490B480B22EE
:1005900016311E30FFF706FE08480A212030017789
:1005A0000C2141770B2181770721203001704170A8
:1005B00081700321017110BDFF8E0008AC02002084
:1005C00010B5092205490648FFF7ECFD0549B020A2
:1005D000C8700F2004F00CFF10BD0000298F000828
:1005E000E50B0020D00B0020F8B51C4807F032FBCB
:1005F0001A4C1C3C207E002801D100F035F8012364
:1006000017492376154AE77D08461025154E3C3AD2
:100610006030002F10D0012F17D0022F0BD1A778F8
:100620006775437505750E67917F901E07F00EFF85
:100630000A4807F03FFBF8BD2778677543750575D5
:1006400006480E67117F5C38F0E767786775437579
:10065000057502480E67517F4D38E7E70803002013
:10066000040C00206907000810B5054880780300D5
:1006700008F01AF804050505030500F003F810BD9D
:10068000D00B002010B50E48C07840280EDA102894
:1006900004D0202805D0302808D105E0FFF736FF28
:1006A00004E0FFF747FF01E0FFF762FF054801792B
:1006B000012901D0012100E00021417610BD000098
:1006C000D00B0020EC0200201CB500206946888079
:1006D00000901849184807F06BFA184C0222694636
:1006E000204600F057FA69460878FF2801D0002814
:1006F0000ED188216846017013214170022269469B
:10070000204600F055FA02226946204600F042FADF
:100710006846007801026846808801436846818007
:10072000417880880143684681808188024807F0CB
:10073000AFFA1CBD410700080803002006030808A3
:1007400010B5092205490648FFF72CFD0549D020C0
:10075000C8700F2004F04CFE10BD0000208F000870
:10076000E50B0020D00B002070B517480021174C76
:100770004175207E012822D1134E603E708C401EB0
:1007800080B27084617D88421AD120461C3007F007
:10079000C9FA20461C3007F05DFA607E651D01280D
:1007A00003D120461C3007F0BDFA728CF11C28469C
:1007B000FFF7F8FCE07D401CE075FFF7ADFD70BD74
:1007C000FFF7FEFE70BD0000640C0020EC0200206C
:1007D00010B50B4A0023D370D38007E00378D47898
:1007E0001B19D370D3885B1CD380401CD3888B42E9
:1007F000F4D3D078FF210131081AD070D07810BD21
:100800007000002010B50C48C078030007F04CFFC2
:1008100007070508070B0E11070000F00FF810BDC1
:1008200000F018F810BD00F021F810BD00F02AF813
:1008300010BD00F033F810BDD00B002010B50448F7
:10084000002141730121C1720F2004F0D1FD10BDC0
:10085000D00B002010B50448002141730121C17262
:100860000F2004F0C5FD10BDD00B002010B50448CA
:10087000002141730121C1720F2004F0B9FD10BDA8
:10088000D00B002010B50448002141730121C17232
:100890000F2004F0ADFD10BDD00B002010B50448B2
:1008A000002141730121C1720F2004F0A1FD10BD90
:1008B000D00B0020BFF34F8F04490348C860BFF33B
:1008C0004F8F00BFFDE700000400FA0500ED00E0D7
:1008D00030B587B014216846FFF77DFC1A4CE16AF9
:1008E00002200143E162E16A184D014001200190BC
:1008F00002900320039005910F20000300906946A9
:10090000284600F0FDFC0022A114284600F0BAFDA4
:10091000012100224903284600F0B4FD00222901EC
:10092000284600F0AFFD00226901284600F0AAFD2C
:10093000606B29030843606300F04AFB00F058FB3A
:1009400000F04EFB07B030BD001002400004005024
:1009500010B5092206490748FFF724FC0648032181
:10096000C170022181720F2004F042FD10BD000011
:10097000358F0008E50B0020D00B002010B50322B6
:1009800009490A48FFF70EFC094C08480622211DB8
:10099000C01CFFF707FCC020E0700220A0720F20EF
:1009A00004F026FD10BD0000328F0008E50B00208A
:1009B000D00B002010B586B000200090019003906D
:1009C0006946049008721C4CE178012914D0022970
:1009D00012D0042910D005290ED006290CD00622E9
:1009E000164903A8FFF7DEFB062203A9201D07F026
:1009F00045FE002815D11CE020786A461070517021
:100A000000A806220D490230FFF7CCFB07216846FB
:100A1000FFF7DEFE6A4610720848117A4079884274
:100A200004D10F2004F0E4FC06B010BDFFF790FFE6
:100A3000FAE7FFF7A3FFF7E7D00B0020DF0B00205A
:100A400010B502F0B9FE05F01FFE10BD10B508F09C
:100A50009DF810BD10B5046863608368102B0368AF
:100A600003D099600068C26010BD9A600068C160E0
:100A700010BD000010B5044605280ED908490948E4
:100A800007F096F82146074807F002F9054807F0F5
:100A900011F9012004F0BAFC10BD00F0CEFB10BD2E
:100AA000CD4E0008F804002010B58AB00020694639
:100AB0000870324C082201A9204600F06BF8082289
:100AC0002FA101A8FFF799FB002804D008222CA130
:100AD000204600F06DF8294C0122123C01A9204665
:100AE00000F058F8694608790870012805D00120FF
:100AF00008700246204600F05BF8204C0122113CB1
:100B000001A9204600F046F8694608790870F528E2
:100B100005D0F52008700122204600F049F8174C56
:100B200004223B3401A9204600F034F808A804F060
:100B30003DFD042208A901A8FFF75FFB002804D0AF
:100B4000042208A9204600F033F80C4C08223F3458
:100B500001A9204600F01EF806A804F02BFD08228B
:100B600006A901A8FFF749FB002804D0082206A91E
:100B7000204600F01DF80AB010BD00002002080851
:100B800050523030323432300000000010B5FFF7E0
:100B90008BFF10BD10B50023D2B204E00478CC5412
:100BA0005B1CDBB2401C9A42F8D8012010BD00004B
:100BB000F8B516460D460746002400F07FFB0B49AA
:100BC0000948886109E02A783919002000F04CFBB7
:100BD0000120641C6D1C00F030FBB442F3D300F024
:100BE00039FB0120F8BD0000002F03000020024067
:100BF00010B5012000F078FB022000F075FB10BD5D
:100C000010B5042000F070FB082000F06DFB10BD53
:100C100010B5102000F068FB202000F065FB40209C
:100C200000F062FB802000F05FFBFF20013000F04D
:100C30005BFB0120400200F057FB0120800200F026
:100C400053FB0120C00200F04FFB0120000300F025
:100C50004BFB0120400300F047FB0120800300F024
:100C600043FB0120C00300F03FFB10BDFEE7000086
:100C700010B5214A00219069C305204804D5416977
:100C8000022319434161911593699B0505D5436979
:100C90000124234343616302194393695B0505D52E
:100CA0004369082423434361E301194393691B0506
:100CB00005D54369042423434361630219439369BF
:100CC0009B0405D543691024234343616302194300
:100CD00093699B0304D5446920231C434461194351
:100CE0009369DB0305D54369402423434361A00294
:100CF0000143916110BD00000020024094020020D9
:100D000070B5054600F0C4FB0646184C0AE0681CA6
:100D100008D0002D04D000F0BBFB801BA84201D9F5
:100D2000032070BDA069C007F1D1A069800701D57B
:100D30000220A061A069C00511D4A06980050ED46D
:100D4000A06940050BD4A069000508D4A0698004FF
:100D500005D4A069800302D4A069C00303D5FFF7BE
:100D600087FF012070BD002070BD00000020024000
:100D7000F8B5054604464035287D0026012808D0F0
:100D800001202875206881688907890F01290ED103
:100D900001E00220F8BD0168C90708D0A06D20213C
:100DA0000843A0650126002028753046F8BDA16DD6
:100DB000FF220132914302221143A165C1688907D4
:100DC000890F0091C16889088900C1602068816825
:100DD00092071143816000F05BFB07460EE000F0D4
:100DE00057FBC01B0A2809D9A06D02218843102196
:100DF0000843A065002028750120F8BD20688068A0
:100E00000028ECDB2068C168009A1143C160A06D26
:100E100080088000401CA065C5E70000F8B50646C4
:100E20000D464036317D01290DD001213175016813
:100E30008A68520709D5816D2022114381650020FF
:100E400030750120F8BD0220F8BD174B6A68D8053F
:100E500047109A42154C8A6A2B6812D05B035B0BD1
:100E60001A438A622968490305D5A1680143A16034
:100E70000A20FFF70DFA2868800312D5A0683843CE
:100E80000EE05B035B0B9A438A622968490302D533
:100E9000A1688143A1602868800302D5A068B84397
:100EA000A06000203075F8BD01100000002701404F
:100EB0000068006C7047F8B5044640692546403527
:100EC0000E4608280BD02068C068C00709D0A06D66
:100ED00020210843A065002028750120F8BD0827BF
:100EE00000E00C2700F0D4FA009011E0701C0FD045
:100EF000002E05D000F0CCFA0099401AB04207D974
:100F0000A06D04210843A065002028750320F8BDCA
:100F1000206800683842E9D0A06D012149020843E9
:100F2000A0652068C16809058A0F0C21002A1AD122
:100F3000226A002A17D10268120714D58268530763
:100F40000122002B08DB43688B434360A06D130232
:100F500098431043A06506E0A06D20231843A065C8
:100F6000E06D1043E065A069002801D120680160B0
:100F70000020F8BD70B50446216800208968490743
:100F800021D425464035297D01291CD00121297510
:100F9000E169012904D02046FFF78CF9002811D11E
:100FA000A16D0A4A1140FF2201321143A1650021BF
:100FB000E165297522681C21116021688A68042373
:100FC0001A438A6070BD022070BD0000FEF1FFFF71
:100FD00002484168012211434160704700580140B6
:100FE00002484168042211434160704700580140A3
:100FF0000248416802221143416070470058014095
:10100000F8B504460068016849084900016000F02D
:101010003FFA00272546064620350EE000F038FA54
:10102000811B7D20C000814207D9E06B202108434D
:10103000E0632F7103206871F8BD20680068C00765
:10104000ECD12F71012068710020F8BD70B500242B
:10105000024620325179022903D00421C1630124C0
:101060003CE001680B680E25AB430B6001680B6820
:101070005B085B000B601A4B0168994201D10121AA
:1010800021E0174B1433994201D110211BE0144B7E
:101090002833994201D1891515E0114B3C3399420F
:1010A00001D189140FE00E4B5033994202D1012136
:1010B000090408E00A4B6433994202D10121090571
:1010C00001E001210906064B083B596001215171DD
:1010D00000211171816B002900D08847204670BD26
:1010E0000800024070B5002805D003462033597926
:1010F000002902D003E0012070BD002119710221F6
:101100005971046822683749C5680A408168466990
:10111000294305693543294385692943C56929431D
:10112000056A2943114321602F492F4C0268783109
:10113000A24206D18A6A120912018A628A6A40684A
:1011400049E0294C1434A24207D18A6AF024A24310
:101150008A628A6A406800013DE0234C2834A2423A
:1011600008D18A6A0F242402A2438A628A6A4068EC
:10117000000230E01C4C3C34A24208D18A6A0F24A1
:101180002403A2438A628A6A4068000323E0164C63
:101190005034A24208D18A6A0F242404A2438A62EE
:1011A0008A6A8088000416E00F4C6434A24208D199
:1011B0008A6A0F242405A2438A628A6A808800050D
:1011C00009E08A4209D18A6A0F242406A2438A626E
:1011D0008A6A0079000602438A6201205871002061
:1011E00070BD00000FC0FFFF08000240F8B50446C4
:1011F00020300579012D1ED001250571022646718A
:1012000020680768AF4307602046FFF723FC20688B
:1012100001683143016020680168042211430160C4
:101220002068016808221143016020680168294391
:1012300001600020F8BD0220F8BD01B5009802F061
:1012400009F908BD024841688215114341607047A1
:101250000020024003484168012211434160002000
:101260007047000000200240F8B5124D0746287C68
:1012700014460E46012807D0012028740E48FFF7B7
:101280003FFD002802D00CE00220F8BD002169617A
:10129000022F09D0012F09D0002F09D00648FFF7EF
:1012A0002FFD00212974F8BD3460FAE73480F8E797
:1012B0003470F6E79402002050C3000005484168EE
:1012C000C90705D00449C1600449C16000207047C6
:1012D0000120704700200240EFCDAB8905040302D6
:1012E00010B501F0C7FF10BD10B504494A690242AC
:1012F00002D04861FFF7F4FF10BD00000004014078
:10130000F8B500230124A7E027469F403A4070D05B
:101310004D68022D01D0122D14D1DD08AD002D181D
:1013200000952D6A5E07AC46F50E0F26AE46AE4020
:101330006546B543AC460E697546AE4065462E43DC
:10134000009D2E624D68012D05D0022D03D0112D78
:1013500001D0122D16D185680326AC465D00AE463D
:10136000AE406546B543AC46CE687546AE40654670
:101370002E43866046680D79BE43ED06ED0F9D4015
:101380003543456006685F000325BD40AE46AE4369
:101390000D79B446AE07B60FBE4065462E430660D3
:1013A000C6687546AE438D68BD403543C5604D681F
:1013B000ED0050D52B4D6E6B26436E639E082A4D73
:1013C000B6007519AC46AD689E07360F0F27B740BB
:1013D000BD4305273F07B84201D100271AE0234F3C
:1013E000B84201D1012715E0214FB84202D10227AE
:1013F00010E030E01F4FB84201D103270AE01E4F32
:10140000B84201D1042705E01C4FB84201D105279D
:1014100000E00627B7402F436546AF60184D2E68A1
:101420004F689643FF0300D516432E606E684F68E1
:101430009643BF0300D516436E60AE684F6896436F
:10144000FF0200D51643AE60EE684F689643BF02B8
:1014500000D51643EE605B1C0A681546DD4000D0DF
:1014600052E7F8BD001002400000014000040050A7
:1014700000080050000C005000100050001C0050EC
:1014800000040140002A01D08161704781627047E9
:1014900001484068704700003C000020F8B5224C2D
:1014A0006068401C6060214F3888401C388060783C
:1014B000401C607000251E4E25702078C000315CF5
:1014C000012909D181194A883B889A4204D13554AF
:1014D00001204870486880472078401CC0B22070C6
:1014E0001628EAD3607864281CD16570114F124E1B
:1014F0003868401C3860257020780C214843315CE6
:10150000012909D181194A683B689A4204D13554AE
:1015100001204870886880472078401CC0B2207045
:101520000228E9D3F8BD00003C0000207A0000202A
:10153000A80900207C000020580A002010B50448AB
:10154000016802221143016000F006F8002010BD7E
:10155000002002400020704710B50B48816B020448
:101560001143816300F04AF800F040F80748026830
:1015700008210A43026002688A43026000F02EF8E4
:1015800001F0F0FE10BD00000010024000200240FB
:10159000C106C90E0120884001490860704700005B
:1015A00080E200E0C106C90E0120884001490860C0
:1015B0007047000000E100E005490968C206D20E4C
:1015C00001209040014201D0012070470020704767
:1015D00000E200E010B503F057FC10BD02480168BE
:1015E0000215114301607047007000400248016815
:1015F00042151143016070470070004002480168C5
:10160000102291430160704700700040F8B56649B0
:10161000074601250020ED03624B634A4031102F3D
:101620006FD011DC012F77D0022F6CD0042F6BD03C
:10163000082F24D1C9680324240321407BD0BD0294
:101640006C10A9427CD0A0E00326584C3604202F11
:101650000BD0402F35D0FF3F012F10D1C96831404A
:1016600069D07C04A1426BD096E00B69096901271F
:1016700031403F04B94203D1990559E02846F8BDED
:1016800001256D04A94203D19907F8D54848F8BD52
:10169000B142FCD111688903F9D511680320000516
:1016A000014001200005091A09D0091A05D081421C
:1016B00001D14048F8BD2046F8BD3F48F8BD3F483D
:1016C000F8BDC9680125AD06294006D0A942F7D169
:1016D00091688907F4D53A48F8BD11688901FBD5AE
:1016E000D068D1688002374D000F2D5C0802810F51
:1016F000D068491CC0030AD41068C00605D520462E
:1017000006E045E008E023E030E0184600E02E481F
:101710006843FEF7EDFCF8BDCC68A407A40F0CD01D
:10172000022C0DD0012C10D0032CF4D109698905AD
:101730000029A3DBF8BD16E002E000F0D7F9F9E7D5
:1017400011684907F6D51846F4E700F0DFF9F1E72C
:10175000CC680C26344006D0082CF1D0042CF4D0F0
:101760000C2CE3D0E6E700F0B1F9E3E7CC68032600
:10177000B6023440F7D00127FF02BC42E0D07A1015
:101780009442E2D0B442D1D0D4E7A142DDD0D1E737
:10179000916B4902E7D4CDE7012212049142D4D0E3
:1017A000C8E700000024F4000010024000093D00DA
:1017B0008890000020A1070040420F0080841E0096
:1017C000006CDC02CC8E000800127A00F8B50446EA
:1017D00000785E4D800672D55C4E0027403EB06BAF
:1017E000C00004D4B06BA9050843B0630127584872
:1017F0000168C90511D40168821511430160FFF722
:1018000047FE009005E0FFF743FE0099401A642868
:1018100037D84F480068C005F5D53268032109055F
:1018200060680A400140914208D08103890F032972
:1018300004D13168890301D50120F8BD2A6903214B
:1018400009040A4022D0084090421FD02078800628
:101850001CD528692A6988430121C9040A432A61E1
:101860002A698A432A612861C0050FD5FFF710FE57
:10187000009008E0FFF70CFE0099411A35488142BC
:1018800001D90320F8BD28698005F3D56168880374
:10189000800F032805D132680005824301400A43C6
:1018A00032602869032261681204114008432861EC
:1018B000002F04D0B06B012109078843B063207862
:1018C000C00705D0E868A168800880000843E86088
:1018D0002078800705D5E8680C218843E168084333
:1018E000E8602078400706D5E8680321890288432C
:1018F00021690843E8602078000706D5E8680321DD
:101900000903884361690843E8602088C00506D55B
:10191000E868032109048843A1690843E860207846
:10192000400606D5E868012189068843216A0843F4
:10193000E8602078000606D5E8680321890488431A
:10194000E1690843E8600020F8BD00004010024053
:101950000070004088130000F8B5054653480E4655
:101960000068C007C00FB0420AD250480168490859
:101970004900314301600068C007C00FB0426FD119
:1019800028784B4C800705D5E068F0218843A9688A
:101990000843E0602878C00752D06868022817D052
:1019A000032818D02168012818D08905002957DAA2
:1019B000E168890889000143E160FFF769FD696812
:1019C0000746022912D003291CD0012926D033E072
:1019D00021688903EAE721688901E7E74907E5E724
:1019E000FFF756FDC11B3348814223D8E06800074A
:1019F000800F0228F4D123E0FFF74AFDC11B2D48D8
:101A0000814217D8E0680007800F0328F4D117E05F
:101A1000FFF73EFDC11B274881420BD8E068000755
:101A2000800F0128F4D10BE0FFF732FDC11B2148E4
:101A3000814201D90320F8BDE0680007800FF3D18F
:101A40001A480168C907C90FB1420BD90168490892
:101A50004900314301600068C007C00FB04201D0A7
:101A60000120F8BD2878400706D5E0680721090263
:101A70008843E9680843E0602878000707D5E068F4
:101A80000721C90288432969C9000843E06000F0C2
:101A90003DF8E168084A0906090F515CC84007494A
:101AA00008600320FFF756FD0020F8BD002002402B
:101AB0000010024088130000BC8E0008380000208F
:101AC00001480068704700003800002004480549BC
:101AD0000068C968044A4905490F515CC84070470D
:101AE0003800002000100240D58E00080448054947
:101AF0000068C968044A8904490F515CC8407047AE
:101B00003800002000100240D58E000810B5184A99
:101B1000D1680C20084004280BD0082810D00C28CD
:101B200010D050680004410F0120C003491C8840B8
:101B300010BD1068C00601D50E4810BD0E4810BD7E
:101B40000E4810BD88020E4B000F185C0902D368C6
:101B5000890F491CDB0301D5084A05E01268D2064B
:101B600001D5044A00E0044A5043FEF7C1FA10BD13
:101B70000010024000093D000024F40000127A0029
:101B8000CC8E0008F8B504460078FF4DC0074CD055
:101B9000E8680007800F022807D0E8680007800F78
:101BA000032809D1E868C00306D5286880033CD51E
:101BB0006068002875D038E0012062680004824225
:101BC00003D129680143296011E0052301211B0489
:101BD00089049A422A6802D10A432A60F1E78243C3
:101BE0002A602A680240009228688843286060685A
:101BF00000280DD0FFF74CFC0646E44F04E0FFF749
:101C000047FC801BB8427DD828688003F7D50CE0DC
:101C1000FFF73EFC0646DD4F04E0FFF739FC801B72
:101C2000B842F0D828688003F7D42078800741D5DF
:101C3000E8681F270007800F3F02012807D0E868E7
:101C40000007800F032809D1E868C00306D428687C
:101C5000400717D5E068012823D113E0E068002889
:101C600017D029680922914301432960FFF710FC2E
:101C7000064604E0FFF70CFC801B0228C3D8286846
:101C80004007F7D568682169B843090208436860CE
:101C900010E02868400840002860FFF7F9FB06467E
:101CA00005E090E0FFF7F4FB801B0228ABD8286822
:101CB0004007F7D42078C00676D5E868B44E000710
:101CC000800F0BD0E06900285DD02868FF2101312A
:101CD00008432860FFF7DCFB074644E028688005DE
:101CE00002D5E06900286ED0606A69683140884298
:101CF00012D903F007F90028AED16868616AB043D1
:101D0000084300E0E4E068606868218C0002000A93
:101D10000906084368600FE06968B14301436960E0
:101D20006868218C0002000A090608436860606A3E
:101D300003F0E8F800288FD1606A410B0120C0034E
:101D4000491C8840E968934A0906090F515CC8405C
:101D5000914908600320FFF7FDFB25E0FFF798FBA2
:101D6000C01B02288AD828688005F7D56868616A90
:101D7000B043084368606868218C0002000A0906C5
:101D80000843686010E02968FF2001308143296022
:101D9000FFF77EFB064604E0FFF77AFB801B022874
:101DA00084D828688005F7D420787C4E000723D596
:101DB00060690028306910D0012108433061FFF7C5
:101DC00067FB074605E009E1FFF762FBC01B02283D
:101DD0007ED830698007F7D50EE0400840003061BA
:101DE000FFF756FB074604E0FFF752FBC01B022833
:101DF0006ED830698007F7D42078400761D5A86B8A
:101E00000027C00005D4A86B012109070843A86377
:101E1000012763480168C90511D40168821511437F
:101E20000160FFF735FB009005E0FFF731FB0099FB
:101E3000401A64284CD85A480068C005F5D5FF20E0
:101E4000A2680130824203D131690143316111E05E
:101E500001218902002A07D005231B029A4203D1DF
:101E600032690A433261EFE7326982433261306995
:101E700088433061A06800280ED0FFF709FB00906E
:101E800006E0FFF705FB0099411A404881421FD840
:101E900030698005F5D50DE0FFF7FAFA009006E00D
:101EA000FFF7F6FA0099411A3848814210D8306994
:101EB0008005F5D4002F04D0A96B012000078143D1
:101EC000A9632078800630D53649A0694A1400E01D
:101ED0007DE0002816D0AB6801200343AB606B6B3C
:101EE00003436B63086A10430862FFF7D1FA0646A2
:101EF00004E0FFF7CDFA801B022868D8A8688007A5
:101F0000F7D512E0A86840084000A860086A90432E
:101F10000862FFF7BDFA064604E0FFF7B9FA801B36
:101F2000022854D8A8688007F7D4A06A002853D0A4
:101F3000E9680907890F032950D0012636060228CF
:101F4000286805D0B0432860FFF7A2FA044640E0B5
:101F5000B0432860FFF79CFA074604E0FFF798FAC1
:101F6000C01B022833D828688001F7D4216BE06AAF
:101F7000EA680843616BFD231B049A43114308433D
:101F8000E860286830430FE000100240881300002A
:101F900000E00000BC8E0008380000204010024025
:101FA00000700040000001402860FFF771FA04460D
:101FB00004E0FFF76DFA001B022808D828688001AA
:101FC000F7D509E0FFF764FA001B022801D90320C6
:101FD000F8BD28688001F5D40020F8BD0120F8BDC7
:101FE00030B5014620310A78012A15D001220A7045
:101FF00002234B700468CA2363620468532363623C
:1020000003689C6820252C439C600068FF23436282
:102010004A700020087030BD022030BD10B505F0B8
:10202000DDFD10BDF8B505460446203528780128A9
:102030001DD001202870022068702268CA205062DA
:10204000226853205062FF2001300026FF27814282
:102050001CD121688A6882438A60206881680122D5
:10206000120391438160FFF713FA009009E0022008
:10207000F8BDFFF70DFA0099411A7D20C00081429A
:102080001BD82068C068C007F3D020E020688168B2
:1020900001225202914381602068816812019143BC
:1020A0008160FFF7F5F900900DE0FFF7F1F9009975
:1020B000411A7D20C000814205D920684762032073
:1020C00068702E70F8BD2068C0688007EDD5206864
:1020D0004762012068702E700020F8BD10B50068BE
:1020E0000B464068C021C94301400002000ECC04E9
:1020F000D870E40E5C708C06A40E0904490F9C7025
:102100001970002A0AD103F085F8D870587803F0C6
:1021100081F85870987803F07DF89870002010BD11
:1021200030B50B460168896A59600168096949043C
:10213000490C9960006804680F48214601408802F4
:102140004D04800E18706D0E49065D70490E997031
:102150006102490E40242140D970002A0AD103F0BF
:1021600059F81870587803F055F85870987803F0BB
:1021700051F89870002030BD7F7F7F0070B504005B
:1021800005D0254620356878002802D006E00120D9
:1021900070BD00202870204600F042F802206870D0
:1021A0002168CA204862216853204862204603F013
:1021B00044F8FF210028206803D0416204206870A1
:1021C000E5E78268154B1A40826022689068636870
:1021D000A669184323693343184390602268E06876
:1021E00010612068026923891B041A430261206878
:1021F000C26880239A43C2602068C26C9208920031
:10220000C264E269606902432068C36C1A43C26415
:102210002068416201206870002070BDBFFF8FFF01
:1022200000B597B00420009000200A90FF200130F4
:1022300002906846FFF7A6FC002801D0FEF716FDC5
:1022400020200E90C0020F900EA8FFF7BFFA0028C2
:1022500001D0FEF70BFD08480169012292041143E9
:102260000161002201210220FFF7B4F90220FFF7EB
:1022700099F917B000BD000040100240FEB50646B7
:102280000446203630780B46012842D001203070B9
:102290000220707020681D46002720358068002AC3
:1022A00039D0400655D5187802F0B4FF287802F0EE
:1022B000B1FF19789878090408435978DA78090247
:1022C000120411430843297809060843D9690843D1
:1022D0005969084305469969586808430090216880
:1022E000CA204862216853204862FF205A6A0130A0
:1022F000802182424AD12268936883439360226896
:10230000D0680840FF388238D060FFF7C1F80190EC
:1023100029E00220FEBD400600D4DF70187802F0EC
:1023200081FF0204587802F07DFF00020243987892
:1023300002F078FF0243D87800040243287802F0C4
:1023400071FF00060243D8690243586902431546EB
:10235000C1E7DF70AAE7FFF79BF80199411A7D20DA
:10236000C00081422AD82068C068C007F3D0206826
:10237000C56121680098486420688168FF220132A5
:102380001143816020688168120130E02068826812
:1023900001235B029A4382602068C2680A401D499B
:1023A0005118C160FFF774F801900EE0FFF770F864
:1023B0000199411A7D20C000814206D92168FF2081
:1023C0004862032070703770FEBD2068C0688007C7
:1023D000ECD52068056221680098886420688168CF
:1023E0000122520211438160206881681201114369
:1023F000816009480268012149040A430260826839
:102400000A4382602168FF204862012070703770A3
:102410000020FEBD7FFDFFFF00040140F8B505462A
:102420000446203528780B46012815D00120287055
:10243000022068705878002A10D002F0EBFE9878DD
:1024400002F0E8FED8789E780004064358781978A0
:1024500000024903084316E00220F8BDC10603D577
:10246000EF2108400A305870D87802F0DBFE0604ED
:10247000587802F0D7FE00020643987802F0D2FEA8
:1024800006431878400306432168CA204862216841
:1024900053204862204602F0D0FE0027002811D1C8
:1024A00010480640206846602068C1688022914339
:1024B000C1602068806880060CD4204600F08CF84B
:1024C000002807D02168FF204862042068702F7020
:1024D0000120F8BD2168FF204862012068702F703C
:1024E0000020F8BD3FFFFF00F8B506460446203641
:1024F00030780D4601280ED0012030700220707017
:10250000206800278068002A07D040061AD528785E
:1025100002F080FE17E00220F8BD400600D4EF7004
:10252000287802F07FFE0204687802F07BFE000249
:102530000243A87802F076FE0243E87800040243E2
:1025400000920BE0EF702978A878090408436978B5
:10255000EA78090212041143084300902168CA2056
:102560004862216853204862204602F066FE002837
:102570001FD11849009808402168086020688168C8
:1025800001229204914381602969E8680843216827
:102590008A68104388602068C16880229143C160C6
:1025A0002068806880060CD4204600F015F80028CA
:1025B00007D02168FF204862042070703770012026
:1025C000F8BD2168FF20486201207070377000203C
:1025D000F8BD00007F7F7F0070B504460068C168C9
:1025E000A0229143C160FEF753FF7D260546F60009
:1025F00006E0FEF74DFF401BB04201D9032070BD3D
:102600002068C0688006F4D5002070BD10B504466F
:10261000006C002801D0FEF7F3FC606C002801D0AC
:10262000FEF7EEFC20684168022291434160206879
:10263000416849084900416001204034607400202D
:1026400010BD704770B5040006D025464035687C43
:102650000026002802D005E0012070BD2E7420461F
:1026600000F032F80220687420680168402291432B
:102670000160A168606822690843E168114308436A
:10268000616901220843A169520211400843E169CE
:102690000843216A0843A16A084321680860A069C9
:1026A0000421000C0840616A0843216848602168E1
:1026B000E06A08612068C16992009143C161666562
:1026C00001206874002070BD38B51C490546486B70
:1026D0008A1410434863086B012210430863086B97
:1026E0001040009001F000F9154C082060601020A7
:1026F000A0600020E06080202061400060618000D8
:10270000A0612020E061000220620E482060204687
:10271000FEF7E8FC2C64002211460A20A562FEF7B1
:1027200059FF0A20FEF73EFF002211461920FEF74E
:1027300051FF1920FEF736FF38BD0000001002409F
:10274000D008002030000240F8B504460027684653
:10275000078026464036707C012802D0707C2228F3
:102760007ED100290CD0002A0AD0002B08D0307C62
:10277000012875D001203074707C012802D003E05C
:102780000120F8BD322070746765A263A387E387D8
:102790002163A386E386A764E7640125A06A6D032D
:1027A000A84207D120680168A94301602068016838
:1027B0002943016020680168490603D4016840226A
:1027C000114301600121FF20E268C90205308A42FD
:1027D000616866D1002904D081420CD1E08E0128C5
:1027E00009D1206B21680088C860206B801C2063A1
:1027F000E08E401EE086E08E002843D1A06AA84209
:1028000046D12068016801221203114301603FE0B4
:102810002068C068A16B0880A06B801CA063B0E03A
:10282000002202212046069B03F006FE00287DD1EF
:10283000206B21680088C860206B801C2063E08EBC
:10284000401EE086E08E002808D1A06AA84205D18B
:10285000206801680122120311430160002200E098
:10286000CCE001212046069B03F0E6FD00287FD145
:102870002068C068A16B0880A06B801CA063E08FFB
:10288000401EE087E08E0028CAD1606800287BD116
:10289000002201212046069B03F0CEFD002867D1CF
:1028A000B6E7002904D081420BD1E08E012808D17F
:1028B000206B411C216321680078C860E08E401EB7
:1028C000E086E08E002845D1A06AA84205D12068A4
:1028D00001680122120311430160002201212046F8
:1028E000069B03F0A9FD002842D12068C068A16BB7
:1028F000087046E0002202212046069B03F09CFD62
:10290000002835D1206B411C216321680078C86004
:10291000E08E401EE086E08E00280AD1A06AA84220
:1029200007D1206802680121090300E020E00A4382
:102930000260002201212046069B03F07DFD002855
:1029400016D12068C268A06B411CA1630270E08FA1
:10295000401EE087E08E0028CCD16068002813D1AB
:10296000002201212046069B03F066FD002802D0CC
:102970000320F8BD08E02068C168A06B421CA26378
:102980000170E08F401EE087A06AA8420FD10022AC
:1029900001212046069B03F04FFD002802D0606D08
:1029A00002210EE02068C06869460880088801227C
:1029B00080212046069B03F03FFD002804D0606D77
:1029C000202108436065D3E701207074A06AA84203
:1029D00011D120688168C943C9060CD4616D0222F7
:1029E000114361650168A9430160206801682943BA
:1029F00001603774C4E637740020BAE70220B8E7F4
:102A000070B5064604464036707C0025012801D08A
:102A1000357454E000294FD0002A4DD0307C012875
:102A20004DD0012030741220707465652163A28638
:102A3000E286E564A564A563A587E5870121A06812
:102A4000C903884205D1206801680122920311431D
:102A500001600120A16A4003814207D121680A6810
:102A600082430A6021680A6802430A60216C1548A3
:102A70000863216C1448C862216C14484863606C78
:102A80000563606CC562606C4563E38E2268216BF0
:102A90000C32206CFEF7AAFB206841680222114329
:102AA0004160357420680168490603D401684022FA
:102AB00011430160002070BD3574012070BD0220FB
:102AC00070BD0000BF630008C9630008A16300086F
:102AD00070477047042204490428086902D09043D3
:102AE000086170471043FBE700E000E0094910B5BA
:102AF000401E884201D9012010BD074C60610321AE
:102B0000081F02F0C1F90020A06107202061002009
:102B100010BD0000FFFFFF0000E000E070B50246BE
:102B20002032137D012B1BD0012313750224547511
:102B3000046865687026B5436560046865680E685A
:102B4000354365600468A5688026B543A5600068C4
:102B5000846849680C43846053750020107570BD0B
:102B6000022070BD70B5040005D025462035687D73
:102B7000002802D006E0012070BD00202875204604
:102B800000F00AF802206875211D206804F032FE6A
:102B900001206875002070BD70470268D36801216C
:102BA0000B43D360006802680A430260002070474C
:102BB000F8B5054604462035287D012817D00127A1
:102BC0002F7502206875226890687726FF23B0432E
:102BD0001B02984390600868502837D00EDC2028EC
:102BE00057D006DC00284ED0102840D14EE00220FD
:102BF000F8BD302850D0402839D13CE060282DD095
:102C0000702817D001221203801A0ED090422ED1C4
:102C1000CB684A688968206804F027FE20688168CC
:102C2000012292031143816021E020688168C90874
:102C3000C900F8E7CB684A688968206804F015FE87
:102C400021688868B0433043886010E0CA684968EA
:102C5000206804F084FE5021206806E0CA684968B4
:102C6000206804F08DFE6021206804F009FE6F7575
:102C700000202875F8BDCA684968206804F06FFE16
:102C800040212068F1E700212068EEE7102120684C
:102C9000EBE720212068E8E730212068E5E770476E
:102CA00070B50446006801690025C94389070029F9
:102CB00015DBC168C943890711D4E91E01610120F0
:102CC0002075206880698007204602D0FFF7E7FF63
:102CD00004E000F0A0F8204600F0E2F82575206836
:102CE0000169C943490717D4C168C943490713D4C7
:102CF0000421C94301610220207520688069800594
:102D0000800F204602D0FFF7CAFF04E000F083F8EE
:102D1000204600F0C5F8257520680169C9430907F8
:102D200016D4C168C943090712D40821C9430161F7
:102D3000042020752068C0698007204602D0FFF774
:102D4000AEFF04E000F067F8204600F0A9F8257512
:102D500020680169C943C90617D4C168C943C906B7
:102D600013D41021C9430161082020752068C0696F
:102D70008005800F204602D0FFF791FF04E000F0AD
:102D80004AF8204600F08CF8257520680169C9438F
:102D9000C90708D1C168C943C90704D1891E0161A7
:102DA000204600F07EF820680169C943490609D42D
:102DB000C168C943490605D44021C9430161204681
:102DC00000F070F870BD70B504462034237D012BEF
:102DD0000CD00125257502236375002A08D0042A2A
:102DE0000AD0082A0CD00C2A11D10DE0022070BDA7
:102DF000006804F04DFD0AE0006804F061FD06E0A3
:102E0000006804F076FD02E0006804F08DFD657551
:102E10000020207570BD704770B5040005D02546B0
:102E20002035687D002802D006E0012070BD00201A
:102E30002875204600F00AF802206875211D2068D8
:102E400004F0D8FC01206875002070BD0248816B39
:102E500001221143816370470010024010B50446FF
:102E60000068012204F0F6FC206801680122114389
:102E70000160002010BD000010B50446006800226B
:102E800004F0E8FC2068016A044A114203D1016899
:102E9000490849000160002010BD00001111000028
:102EA000704770477047704770470000F8B5026878
:102EB0000446D06911680607360F11D183060FD575
:102EC0008B060DD55348824202D1534805F064FA6F
:102ED00052482168814202D1514801F0A9FBF8BD56
:102EE00095682023002E65D0EE07F60FFF272137C7
:102EF0000F4037435ED0C70706D0CF0504D5012762
:102F00001762E26E3A43E266820708D5EA0706D006
:102F1000276802223A62E26E04273A43E2664207D9
:102F200008D5EA0706D0256804222A62E26E022547
:102F30002A43E266020709D50A461A40324305D001
:102F4000236808221A62E36E1343E366E26E002AE6
:102F5000C5D0800604D5880602D5204604F0C1FFFE
:102F6000E06E000703D42068806840061CD5204628
:102F700004F0A8FF20688168490611D582684021C5
:102F80008A438260606E00280AD026498163606EA1
:102F9000FEF75CF80028A2D0606E816B8847F8BD10
:102FA0002046FFF781FFF8BD2046FFF77DFF002098
:102FB000E066F8BD2646C7026036002F0ADA6D02C9
:102FC00008D50120000510627372B3722046FFF726
:102FD0006AFFF8BD05060FD50D060DD50D488242D6
:102FE00002D10D4805F058FA0C4821688142F0D111
:102FF0000B4801F009FDF8BD4006FCD54806FAD59E
:103000002046146840218C431460737200F07FF8EE
:10301000F8BD000000380140040C002000440040CE
:1030200034050020B17E000870B5040005D02546A7
:103030006035687A002802D006E0012070BD0020CB
:103040002872204600F026F8242068722068016863
:10305000490849000160606A002802D0204604F057
:1030600091FE204604F07CFF0128E7D020684168EB
:103070000922D20291434160206881682A2291434B
:10308000816020680168012211430160204604F03C
:10309000DFFE70BDF0B50668194F05201949022200
:1030A000012303240425000785B0BE4210D14E6BD6
:1030B00057033E434E6361026E463EC66946FEF7C5
:1030C0001FF9002211461B20FEF784FA1B2013E093
:1030D0000D4FBE4212D18E6B01277F043E438E639B
:1030E0000C216E463EC66946FEF70AF900221146DB
:1030F0001C20FEF76FFA1C20FEF754FA05B0F0BD55
:103100000038014000100240004400407047704702
:103110007CB51E49064609780020002934D01C4899
:103120004168C9430907FBD41A4C606B65152843F5
:10313000606300211848FDF71BFE184800901848EE
:10314000019069461448FDF769FEA0140190694694
:1031500000961148FDF762FE0F48FDF70BFF0021B6
:10316000C9430D48FDF7A7FE0B48FDF7A1FE0A492C
:1031700080B20A6893680226334393600968032289
:103180000A60616BA94361637CBD000060000020A0
:10319000007000400010024010090020FFFF0700EF
:1031A0000110000010B5094C2078AA280CD0FEF7B9
:1031B00085F8FEF747F8AA20207058220449201D00
:1031C000FCF7F0FFFEF746F810BD0000000008080D
:1031D000408F000810B5FEF73DF810BD10B5FEF7A2
:1031E0006DF8FEF72FF810BD014600200A0A00D046
:1031F0000820084A114201D004221043064A114215
:1032000001D002221043054A114201D00121084396
:1032100070470000F0F00000CCCC0000AAAA00002B
:1032200038B50B231B07C518114B0FD01C152D1BD0
:1032300018D02D1B19D0A542DD6A05D108242543DD
:10324000DD62DB6A234007E08024F8E7DC6A0125C1
:103250002C43DC62DB6A2B40009311601146FEF7C1
:103260004FF838BDDD6A0224E9E7DD6A0424E6E7A9
:103270000010024010B5FFF7B7FF81000248405828
:10328000002800D0804710BD1C0300204069814306
:1032900001D00020704701207047000070B51C4627
:1032A00015460E460846FFF79FFF0A49002C0DD031
:1032B00080000C50304601F01CFC044600222946D8
:1032C000FEF788F92046FEF76DF970BD00228000F8
:1032D0000A5070BD1C03002010B5D2B2FEF7D2F820
:1032E00010BD000010B50648FFF712FF011E05D003
:1032F0000448054A008B5043FCF7FAFE80B210BD2B
:10330000000002446000F81FB80B000070B51148BF
:10331000FFF7FEFE104C01001AD0208B0F4A5043DD
:10332000FCF7E6FE05460E48FFF7F2FE68430B4940
:10333000FCF7DEFE618B0522401A12035043E28B3C
:10334000511AFCF7EBFE0F214902401880B270BD04
:103350000025E8E7000002446000F81FB80B0000F9
:1033600000000448F0B587B014216846FCF733FF2D
:10337000224CE06A01210843E062E06A08400590BF
:10338000E06A02252843E062E06A28400590E06A8E
:1033900004263043E062E06A30400590E06A80270E
:1033A0003843E062E06A69463840059003200190A6
:1033B000002002901248009005200007FDF7A0FFB2
:1033C0001048009069461048FDF79AFF69460F487B
:1033D000FDF796FF69460E48FDF792FFE06A400848
:1033E0004000E062E06AA843E062E06AB043E06265
:1033F000E06AB843E06207B0F0BD00000010024090
:10340000FF9F0000FFFF0000000400500008005074
:10341000001C005010B50E4C88B06078002814D104
:103420001C216846FCF7D7FE00F02EFA00F096F853
:1034300000F046FB03F010FA684603F099F9012109
:10344000402003F0D1FE0120607008B010BD0000E4
:103450006000002070B5410EC0017D220023FCF702
:1034600071FE054600F072F8044600E000BF00F06F
:103470006DF8001BA842F9D370BD000070B5054679
:103480000C4600222048FEF74BFE002229461E482B
:103490006668FEF723FE002221461B48FEF740FE29
:1034A0006068B042F1D1E878184A01465043C01C28
:1034B0008308880726D0164968783D22064650437F
:1034C00002463C3A7000801EC1408807D10F89181F
:1034D000800F4910081AC018A978401E08180D4915
:1034E0003C2248436178E123514322781B015A432F
:1034F0008918A27810180818074A61688002511AC2
:10350000401870BD0549D7E75C030020B5050000F1
:10351000A0AA990080510100FF030000505544000B
:10352000032070470148006870470000A80300208E
:1035300000B587B0694605A8FFF7A0FF02490968F2
:1035400007B0401A00BD0000A803002000B587B0F6
:10355000694605A8FFF792FF07B000BD10B5084CFB
:10356000207800280AD100F041F8FF2101310548F8
:10357000FEF758FD00F06AF80120207010BD000031
:10358000440000205C03002010B50D4C00210420F5
:1035900000F076FC01200B494004486121688868EE
:1035A000C0040BD5C868C00508D5C8688022104083
:1035B000FF388238C8602046FEF730FD10BD00009D
:1035C0005C0300200004014010B50446FFF7B0FF83
:1035D000201A032801D9002100E00121042000F075
:1035E0004FFC204600F03EF810BD000010B5144915
:1035F000144886B0002412C01F2101608460046159
:103600001149446141600838FEF7B8FD6946CC7540
:103610000120487588750875002205A90948FEF73C
:10362000FDFE009401940494002269460548039429
:10363000FEF75AFF0348FEF7D3FC06B010BD0000AA
:10364000002800405C030020FF03000010B5044C7C
:103650002046211D1830FFF711FF206010BD00002B
:10366000A8030020F0B587B0044614223F4901A802
:10367000FCF798FD3D485038406E009000F07EF811
:103680003B4802993B4A401AA105890D081887B2A8
:10369000A10A68468078534202E08918401C80B233
:1036A0009942FAD26A461579E122120102E0891A9A
:1036B0006D1CADB29142FAD26A46547902E0641CA4
:1036C000A4B23C393C29FAD2927951188EB2012128
:1036D000890203E07A1A761C97B2B6B28F42F9D209
:1036E00003E03C3E641CB6B2A4B23C2EF9D203E027
:1036F0003C3C6D1CA4B2ADB23C2CF9D203E0183DA9
:10370000401CADB280B2182DF9D26946C97889073C
:1037100069464A7827D01849491E515C814202D235
:10372000FCF7E6FC08461249CA1B10492C394A60CE
:10373000052252068A618E704C700A460D70203246
:1037400010706846C079C8700020C861FF224861C7
:103750000132C8604A620861024608462438FEF712
:103760008DFD07B0F0BD04490C31D5E7AC03002056
:10377000FF03000080AEFEFF988F000810B5FF2108
:1037800001310748FEF74EFC05480168C8688022F1
:103790001040FF388238C86002499002486110BD6D
:1037A0005C0300200004014010B5410EC0017D22E1
:1037B0000023FCF7C7FC10BDF0B52948294B016C6C
:1037C000284C284D274E274A0868143328343C35A6
:1037D0005036904201D102201BE0984201D12020B6
:1037E00017E0A04202D10120400212E0A84202D11B
:1037F000012040030DE0B04202D10120400408E066
:10380000184F6437B84202D10120400501E0012081
:103810004006144F083F78600868904201D10420A8
:103820001BE0984201D1402017E0A04202D10120C4
:10383000800212E0A84202D1012080030DE0B042D4
:1038400002D10120800408E006496431884202D197
:103850000120800501E0012080067860F0BD0000B5
:10386000C40300200800024001B582B00020C0431C
:103870000090012301AA02A90248FEF765FF6846ED
:1038800080880EBDC403002010B5144812490160A1
:10389000144A134B0021126803E05208491C0729FF
:1038A00001D29A42F9D8C900C16100218160016149
:1038B0004161FF22C16005328162426001220162E2
:1038C0005202826141620548FEF7BCFE002801D029
:1038D000FDF7CCF910BD000000300140C40300200A
:1038E0000024F4003800002030B585B0142168466B
:1038F000FCF771FC0220019002900320039000204D
:1039000004906A4608210F48FFF78AFC0524240723
:103910006A4640212046FFF783FC6A468021204604
:10392000FFF77EFC01210191CD0302916A462946F1
:103930002046FFF775FC012229462046FFF7CCFC04
:1039400005B030BD0004005038B5154801210068AD
:10395000C90202688A430A4302601248C16A01220E
:103960001143C162C06A0524104002229503240756
:1039700000902946204600F051FA6068A843606034
:1039800002222946204600F05DFA012229462046FF
:1039900000F04EFA606A000100092043606238BD01
:1039A000C40300200010024038B5124800680168C6
:1039B0000122D202914301600F48C16A01221143E2
:1039C000C162C06A05241040D5032407009029462F
:1039D000204600F023FA6068A8436060022229466E
:1039E000204600F02FFA00222946204600F020FA57
:1039F000A56138BDC40300200010024070B50C461C
:103A00000546FFF7A1FF224629460248FEF7F8FFC8
:103A100070BD0000C403002010B50848046CFEF718
:103A2000F5FD206801680422914301602068016867
:103A3000022291430160FFF7B7FF10BDC4030020CD
:103A400009480168012212041143016001688903D9
:103A5000FCD5C16889088900891CC160C168090753
:103A6000890F0229FAD170470010024008B51348A7
:103A7000016801221143016001684907FCD5016812
:103A8000012212061143016001688901FCD5C16859
:103A900003221143C160C1680907890F0329FAD1C4
:103AA0000268012109048A43026002680A40009208
:103AB0000168012292049143016008BD0010024098
:103AC0007FB50120134C8007206000256560FF2032
:103AD00025619030A560E0602046FFF79DF96020E9
:103AE0000090022001900295002269462046FFF7CF
:103AF0006AF9102000904520019002950422694641
:103B00002046FFF760F92068C16801229202114344
:103B1000C1607FBD7009002010B5012206499207DF
:103B2000401E0A60C860002048600861886008463E
:103B3000FFF772F910BD00007009002010B50649AA
:103B400000200968486201460348FFF787F904210D
:103B50000148FFF783F910BD7009002010B50C4C27
:103B600001202168C043086120680169C943C90771
:103B7000FBD10748FFF780F904210548FFF77CF9DE
:103B80002168002048622168C01E086110BD000045
:103B90007009002000BFFDE710B5144C2078012803
:103BA0000AD0601E007801280DD002280DD003280D
:103BB0000DD004280DD00FE0052000F099F800206A
:103BC00020700B490BE0002004E0032002E00220FB
:103BD00000E0052000F0B0F8012020704B210548DE
:103BE00004F056F8034804F065F810BD49000020C1
:103BF0009D0300001C04002010B500F017F80749D1
:103C0000074803F0D5FF4B21054804F041F805496A
:103C100000200870491E087010BD0000993B000884
:103C20001C0400204900002070470000F0B51D4C26
:103C300091B0E06A02252843E062E06A012628404C
:103C40000F90202000900020029003271648019634
:103C5000039700686946FDF753FBE06A2843E0627A
:103C6000E06A069628400F904020059000200790BB
:103C70000D480897806805A9FDF742FBE06A2843D4
:103C8000E062E06A0B9628400F9080200A900020A6
:103C90000C9005480D97C0680AA9FDF731FB11B0DB
:103CA000F0BD0000001002404C00002010B50020C4
:103CB00000F042F8AF24A4002046FDF7BEFA02202F
:103CC00000F03AF82046FDF7B8FA032000F034F887
:103CD0002046FDF7B2FA052000F00AF82046FDF76D
:103CE000ACFA02490120087010BD00004800002015
:103CF00010B5104C010019D002290ED02046C06822
:103D0000032910D005290DD100228021FDF7BAFB2F
:103D1000002220212068FDF7B5FB00224021A06889
:103D2000FDF7B0FB10BD00228021F9E70022202121
:103D30002068F5E74C00002070B505460520FFF728
:103D4000D7FF104C002D19D0022D0DD0032D11D00E
:103D5000052D0ED101228021E068FDF793FB0122A1
:103D600020212068FDF78EFB01224021A068FDF78D
:103D700089FB70BD01228021E068F8E70122202143
:103D80002068F4E74C000020F8B5D46893685569C2
:103D9000234314692C43234394692343D469234365
:103DA000946A2343104C6418203CE67F85590F4FDA
:103DB0003D401D438551E57F03460C33EF5856685F
:103DC000EE50E67F1B1FF7581568F550E47F031D82
:103DD000E658156A360C36042E43E650526A00F057
:103DE00011F80120F8BD0000DD8E00080F80FFFFF4
:103DF000034A51182039C97F4058C007C00F704787
:103E00003490000810B589000F24091F8C408030C1
:103E1000836A8A40A3431343836210BD10B50368CD
:103E200049434C000C19A34351430B43036010BD9D
:103E300010B5C36849434C000C19A34351430B43CD
:103E4000C36010BD10B5836849434C000C19A343EF
:103E500051430B43836010BD10B5EFF3108272B66F
:103E6000064B00295C6803D0012903D1044300E01C
:103E700084435C6082F3108810BD00009C00002029
:103E800010B5EFF3108272B6064B00291C6803D000
:103E9000012903D1044300E084431C6082F31088AD
:103EA00010BD00009C00002030B589B005460024FC
:103EB000202214496846FCF775F9002D09D0012D20
:103EC00010D0022D17D0032D18D01424204609B08D
:103ED00030BD68460078032802D0FF20C33007E0D9
:103EE000322005E0684600780328F9D07D20C00024
:103EF000FCF7C0FDEAE719208001F9E7FF20F53063
:103F0000F6E700000800080800207047054A002175
:103F1000531840335B7C4354491C0429F8DB0020D0
:103F2000704700000400080870B514460D460646A8
:103F3000FFF7D8F9308000202880FFF7E7F90A2141
:103F40004843000A2080002070BD00000246002087
:103F5000C82A02D8024A0A60704711207047000040
:103F60003004002070B5134C0D4601280CD00220FF
:103F7000FFF7E2FE3220FDF760F90220FFF7B8FEFE
:103F8000A078AA280FD012E00020FFF7D5FE32203B
:103F9000FDF753F90020FFF7ABFEA078AA2806D161
:103FA000294605A001E0294609A004F047FE0020AB
:103FB00070BD0000040008085258204F4B2E2052BC
:103FC0005353493D2025642064426D0A0D000000D2
:103FD0005258204B4F2E20525353493D20256420E8
:103FE00064426D0A0D00000070B505460024074EBE
:103FF000FFF7F4F83019295D40304174FFF7EAF813
:10400000641C042CF4DB002070BD000004000808D0
:1040100010B504460749084803F0CAFD7D20C000DA
:1040200044432146044803F033FE034803F042FEB4
:10403000002010BDE54E00080C05002010B5044618
:104040000649074803F0B4FD2146054803F020FE69
:10405000034803F02FFE002010BD0000D94E0008D9
:104060002005002010B5024803F05CFE002010BDC2
:104070000C05002010B5024803F054FE002010BDCE
:104080002005002010B5022001F0C0F9002010BD6D
:1040900010B5014610220248FCF77CFD012010BD3E
:1040A0003102080810B5014610220248FCF780FDD5
:1040B000012010BD3102080810B501460A2202484D
:1040C000FCF768FD012010BD5102080810B501463B
:1040D00004220248FCF75EFD012010BD5B020808C7
:1040E00010B5014608220248FCF754FD012010BD1E
:1040F0005F02080810B50B4CA07A002810D02046AB
:10410000A038817800290BD101468031898CC01CF0
:10411000C9B200F019FC0448012101730020A0720B
:1041200010BD0000D4050020F406002010B50146A3
:1041300008220248FCF72EFD012010BD04020808E9
:1041400010B5014608220248FCF732FD012010BDDF
:104150000402080870B58CB0002069460870282158
:1041600001A8FCF738F81F4CA520E16A012508706A
:10417000E11FF9390846E030827C0B79D01C83427C
:104180001BD10846F3300646C91DFCF70BF8636ADD
:104190006A4601A93046984700280ED06846027842
:1041A000E16A901C4870E06A01A9801CFBF7FAFFE5
:1041B00068460078801CC5B207E068460078E16A6E
:1041C000801C4870E06A857003252946E06AFCF788
:1041D000FFFAE16A48556D1CE9B2E06A00F0B4FBF1
:1041E0000CB070BD3406002070B5134CA520E16AF8
:1041F00025460870203DA87CE16A801C4870E16A71
:104200000020887020460D38E16906468847E06A3C
:10421000AA7C3146C01CFBF7C5FFA87CC01CC5B2F8
:104220002946E06AFCF7D4FAE16A48556D1CE9B208
:10423000E06A00F089FB70BD3406002070B5164CB2
:10424000A520E16A0870E26A02215170E11FF93984
:104250000A46E032927C0D790120D31C9D420DD19B
:104260000846F3300646C91DFBF79CFF0020E16AB3
:1042700003258870216A3046884702E0E16A0325F9
:1042800088702946E06AFCF7A3FAE16AC870042145
:10429000E06A00F059FB70BD34060020014901209E
:1042A000087070474800002010B5014608220248F7
:1042B000FCF770FC012010BD2002080810B5014673
:1042C00001220248FCF766FC012010BD0F0208081D
:1042D00010B5014601220248FCF75CFC012010BD2C
:1042E0000E02080810B5014608220248FCF752FCED
:1042F000012010BD2802080810B501460822024816
:10430000FCF756FC012010BD2802080810B5014634
:1043100001220248FCF73EFC012010BD0D020808F6
:1043200010B5014601220248FCF742FC012010BDF5
:104330000D02080810B5014601220248FCF72AFCCC
:10434000012010BD0C02080810B5014601220248E8
:10435000FCF72EFC012010BD0C020808F8B500F097
:1043600095F83D4D3B48A8633D493C482E460860C2
:10437000803E30460024047004214170394F6F6341
:1043800001468470A0318C72374AEA622C868C71A7
:10439000FF362C85A021C01CC136FBF71CFFAC8466
:1043A000A0213148FBF717FF284632214030FBF7A8
:1043B00012FF2846A03005210172417205462B49A3
:1043C0006035E9632A492964014680310C76072269
:1043D00032718472C4720A46D0322038C2620486B6
:1043E0000C75EC8680213230FBF7F5FE1A486C869E
:1043F00080218038FBF7EFFE7471B4711D48A8640A
:104400007473347339461C4803F0D2FBFF24FF3425
:104410002146194803F03CFC1748E96B143003F0BF
:10442000C7FB15482146143003F032FC12481349EB
:10443000283003F0BDFB10481149283003F028FC58
:104440001049092000F07CFF0F49082000F078FF98
:10445000F8BD00008D440008B405002028230000AA
:104460005C000020F545000804070020D54900083D
:10447000F14A000800440040940800209D420008D2
:1044800060EA00003D470008F540000810B5224CE6
:10449000204820604B20C00160600020A060E060E8
:1044A0002061A061E0610C212062616160620120F5
:1044B000A0632046FEF7B8FD002201211C20FDF775
:1044C00089F81C20FDF76EF801222046A16812032E
:1044D0004030FF23914204D12169002918D10F49AE
:1044E0000AE07F2200290ED001231B07994204D144
:1044F000216900290AD03F21818320680168202298
:104500001143016010BD2169002901D08283F4E7C5
:104510008383F2E70044004024080020FF010000EC
:10452000F7B50026134D0E700C462B78012103279A
:104530000222012B03D0042B01D0677006E0007823
:104540000423012804D0002807D0627002200DE067
:104550002B70094803F0AEFB00E029706670402024
:10456000A070C020E07028782071052002990870A2
:104570000120FEBD48000020BC08002010B5014607
:1045800010220248FCF706FB012010BD410208087A
:1045900010B5014610220248FCF70AFB012010BDAD
:1045A0004102080810B5014610220248FCF7F2FA51
:1045B000012010BD1002080810B501461022024863
:1045C000FCF7F6FA012010BD1002080810B50146EC
:1045D00004220248FCF7DEFA012010BD00020808A0
:1045E00010B5014604220248FCF7E2FA012010BD92
:1045F000000208080B4A10B50021104651730A4BFF
:1046000040388364FF38013803468184803B197049
:1046100004245C70054B436313461033C36211736B
:1046200010BD0000F406002000440040F5450008DD
:10463000F8B504462646FF360120C1363073707344
:104640003C4803F06FFBFF20C9300059406A6946BF
:104650000870207821462546A031E71C80350028C7
:1046600009D0012819D0032823D0042831D00020F4
:10467000207070735AE068460078A5280AD100209F
:10468000887269460978C1550121A9842886A070DD
:1046900021703DE0686B80473AE068460078A98C5D
:1046A000C855A88C401CA88468460078288503203B
:1046B0000DE068460078A98CC855A88C401CA884D9
:1046C000288D401E80B22885012821D10420207029
:1046D0001EE001208872A98C1748FCF779F8014682
:1046E000684602780920914216D169460978AA8C59
:1046F000D155A98C491CA984298D491E29850021E1
:10470000A1707173217070710121B17100F070FEA0
:10471000707B012807D009E00121A1707071B1718F
:1047200000F066FEB6E7034803F0C4FA00203073D9
:10473000F8BD00009408002037050020F8B50020DF
:1047400069460870664948798B79000218430C461F
:10475000C30BA03445040A46E377EF0F0605803209
:10476000A777360D96878878002805D01521D01DAB
:10477000F930806C8162F8BD594C01212046FF342C
:10478000E030082510220134002B07D0F3D0002F91
:104790006ED0082EEFD0402E67D19BE0002FEAD1DB
:1047A0004F4B1B79032B12D0E16AA5200870E16AF8
:1047B00002204870E16A88700321E06AFCF708F87B
:1047C000E16AC8700421E06A00F0BEF8F8BD082E66
:1047D00032D007DC330003F067FF0848161A2023A5
:1047E00026292C480C2E33D006DC092E27D00A2E81
:1047F00028D00B2E39D128E0832E33D0902E2AD00A
:10480000912E32D12BE004218174364801E0857469
:104810003548E061FFF7E8FCF8BD81743348F8E7FC
:1048200081743348F5E781743248F2E78174324885
:10483000EFE782743148ECE785743148E9E7857425
:104840003048E6E782743048E3E782742F48E0E7B7
:1048500082742F48DDE7042181742E48D9E78574DE
:104860002D48D6E781742D48D3E700F07FF8F8BDD6
:10487000072E23D00ADC012E16D0022E18D0032ECC
:1048800019D0042EF1D18174254809E0092E18D0E1
:104890000A2E19D00B2E1AD0832EE6D1817421480E
:1048A0002062FFF7CBFCF8BD042181741E48F7E7B6
:1048B00085741E48F4E781741D48F1E782741D4831
:1048C000EEE785741C48EBE782741C48E8E78274C5
:1048D0001B48E5E781741B486062FFF73BFCF8BDAD
:1048E00034050020CD4500082D410008354300085F
:1048F0000D430008D1420008BD420008A54500084C
:10490000A9420008E5420008914000087D450008E2
:10491000B9400008CD400008E14000089D4900086A
:1049200021430008B1490008E14500084141000861
:1049300049430008B9450008F9420008A5400008AD
:10494000914500082145000810B50C460A4601466D
:104950000548FBF727FC04486E300475FF38A13882
:1049600000F0A6F810BD00006606002010B50A4C45
:10497000A520E16A0870E16A02204870E16A05201A
:1049800088700321E06AFBF723FFE16AC870042105
:10499000E06AFFF7D9FF10BD3406002010B50146CC
:1049A00001220248FCF7F6F8012010BD09030808AF
:1049B00010B5064C014601222046FCF7F9F8012209
:1049C00003492046FCF7E6F8012010BD090308085A
:1049D000D00B002070B50A4C012020730025214621
:1049E00065730520A03908724872064A6031CA63AF
:1049F0000A46F0328039CA6202F0EEFE257370BDBD
:104A0000F4060020D5490008F8B504462546FF35D0
:104A10000120C13528736873234803F083F92946C0
:104A2000A0390E7A0B460846002212336030062E5B
:104A30000AD00527072E15D06A731C480F7201682B
:104A4000802291430160F8BDCA72428ED25C836CB1
:104A50009A62428E521C4286C28E521EC286072025
:104A60000872F8BD468EF35C866CB362438E0726EF
:104A70005B1C4386C38E5B1E9BB2C3860E72002BEB
:104A8000EFD10123CB726A730F72806C2021C16158
:104A9000FF34A13405486276026880218A430260AF
:104AA000014803F03FF9F8BDA80800200044004089
:104AB000014610B5FF3121310A7A052A15D10A467F
:104AC000A03201231373537314460023403ACB7270
:104AD000FF305386A130007DD0860620087203483F
:104AE0000168802211430160237310BD004400401F
:104AF0007047FF220132811A90420CD009DC08284D
:104B00000DD008DC012808D0022806D0042802D1E4
:104B100005E00F221202072070470520704706208B
:104B20007047000010B50448002101730121817213
:104B300000F070F910BD0000D00B002010B5044843
:104B4000002101730121817200F064F910BD0000A1
:104B5000D00B002010B5044800210173022181729E
:104B600000F058F910BD0000D00B002010B504482B
:104B7000002101730121817200F04CF910BD000089
:104B8000D00B002010B5044800210173012181726F
:104B900000F040F910BD0000D00B002010B5044813
:104BA000002101730121817200F034F910BD000071
:104BB000D00B002010B5034900208872084600F091
:104BC00029F910BDD00B002010B5034900208872D0
:104BD000084600F01FF910BDD00B002010B50349A6
:104BE00000208872084600F015F910BDD00B002097
:104BF00010B5034800210173817200F00BF910BD5C
:104C0000D00B002010B5034800210173817200F021
:104C100001F910BDD00B002010B50448002101732C
:104C20000221817200F0F6F810BD0000D00B0020C8
:104C300010B50448002101730221817200F0EAF8E6
:104C400010BD0000D00B002010B5044800210173F6
:104C50000221817200F0DEF810BD0000D00B0020B0
:104C600010B530480021C1752F48C078302829D0B0
:104C700014DC042840D008DC00281FD0012832D0E2
:104C8000022833D0032849D133E0052837D006283D
:104C900038D0102810D0202840D110E00107090F8B
:104CA0003CD10011001F030003F0FEFC0A080F12A4
:104CB0001517193835322F38FFF77CFF10BDFFF775
:104CC00083FF10BDFFF78AFF10BDFFF791FF10BDF6
:104CD000FFF798FF10BD15A002E015A000E015A099
:104CE00003F0ACFF10BDFFF71DFF10BDFFF726FF5F
:104CF00010BDFFF72FFF10BDFFF738FF10BDFFF706
:104D000041FF10BDFFF74AFF10BDFFF79DFF10BD2B
:104D1000FFF78EFF10BDFFF77FFF10BDFBF718FEFA
:104D200010BD0000EC020020D00B00203700000076
:104D3000380000003900000070B509210E48FBF76B
:104D40004AFA0D480621801FFBF745FA0A4C002558
:104D5000153CE57202F0E4FA012221460748FBF710
:104D600019FF00F075F80548E5700622211D093885
:104D7000FBF710FF70BD0000E50B002009030808D9
:104D800010B50649064802F013FF0649044802F030
:104D90007FFF034802F08EFF10BD0000A94D000800
:104DA000F00B002060EA000010B51648C07A012818
:104DB0001ED01548007E01281AD0144C207B0128F3
:104DC00016D0204609211530FBF705FA20460621AA
:104DD0000F30FBF700FA012221460D48FBF7DAFEFF
:104DE0000020E0700A480622211D0938FBF7D2FE98
:104DF0000648203002F02EFF0448203002F05AFF0F
:104E000010BD0000A80A0020EC020020D00B0020FA
:104E10000903080810B5827A0C480023C17A002AD9
:104E200007D0012A0CD0022A02D10C2000F0E0FAAF
:104E300010BD012902D0FBF7D7FB10BDC372F4E708
:104E40000129FBD0FBF7DEFC10BD0000D00B0020D9
:104E500010B50A4C2078002801D0FF2806D1032085
:104E60002070012205490648FBF7A2FE20780109BF
:104E700000076170000FA07010BD0000D00B002073
:104E800009030808704700008307FF22DB0E9A40E1
:104E90008907090E994000280BDA0007000F08382F
:104EA000830808489B001818C36993430B43C361E8
:104EB0007047830804489B001B18186890430843F8
:104EC0001860704700ED00E000E400E010B501203C
:104ED00000F080FA10BD00000149012048707047C1
:104EE0006C00002010B5022000F074FA10BD70476D
:104EF00010B5034901200870022000F06BFA10BDC4
:104F00006C00002070B517490023CA681206120F02
:104F100018D18A6B154CD500134A02D5126822406D
:104F200009E08E6B01252D072E438E6312688E6B70
:104F30002240AE438E63A24204D1032189038842FA
:104F400000D101230A48016849084900194301605A
:104F50000068C007C00F984201D0012070BD00203A
:104F600070BD0000001002400070004000180000FA
:104F7000002002403EB512A103C90090002001911B
:104F800002901149114802F013FE104C68460C3C87
:104F9000C07821680004014368460079000201439B
:104FA0006846407901430A4841430848216002F0BD
:104FB0006FFE012020726072044802F07BFE3EBD4D
:104FC000000000000002000009500008B40A0020A0
:104FD0002605000008B5002168460170064907480B
:104FE00002F0E6FD012269460548FBF7D3FD0549BD
:104FF000024802F04DFE08BD51500008C80A0020CA
:1050000008030808102700000A4810B5437A014633
:105010000122097A012B01D0022B07D1042906D0E5
:10502000C27200F023F80F2000F0E2F910BD00F08A
:1050300003F810BDA80A002010B5FFF7CBFF034905
:105040000020C87200F036F810BD0000A80A002049
:1050500010B505480121C1720221417201720E2072
:1050600000F0C6F910BD0000A80A002010B50F49D5
:1050700000220B7A0E48012B0CD0022B0CD0032BF4
:105080000DD12023C3704C7A0123012C08D0022CAF
:1050900008D008E0102100E03021C170027310BD7B
:1050A000027300E003738B7210BD0000A80A002099
:1050B000D00B002010B5034802F0CCFD014802F0EF
:1050C000F9FD10BDC80A00200002C9B208437047AC
:1050D00010B501F093FA002010BD10B5002806D0DD
:1050E000012807D0022808D0032810D109E000F0D9
:1050F0002BFA0CE000F0C6F909E000F0C3F9C82073
:1051000003E000F0BFF9FF202D3000F0D5F90020BA
:1051100010BDF8B5074616460D4600240320FEF7DD
:105120000BFE012D02D0022D0AD101E0642201E024
:105130004B22D2003146384600F0EDF9012800D06C
:1051400031240320FEF7D4FD2046F8BD10B500F051
:10515000D9F9002010BD0000F7B5002584B006463F
:105160001F492F4628466C464200401CA152082881
:10517000FADB082E02D3352007B0F0BD01F05EFA4D
:1051800000F0ACF90020FEF7D7FD1EE00120FCF78F
:1051900054F801F03FFA69006D1C6052B54200D12D
:1051A00000250022104604E04100615A89180AB225
:1051B000401CB042F8DB31461046FAF7AFFF0599C4
:1051C00000B2884201DA012703E001F031FA002839
:1051D000DCD00020FEF78CFD069807700020CBE79E
:1051E000FF7F0000F8B514460D46074600F076F93B
:1051F00001F09AFA0026012803D02E80267030464E
:10520000F8BD384600F070F901F01EFA2880012040
:105210002070F4E701090A2200075143000F4018EB
:10522000C0B27047002102E00A38C0B2491C0A2807
:10523000FAD20907090E0843704770B504460068A2
:10524000C168490613D40021C943C160FCF720F9A5
:105250007D260546F60006E0FCF71AF9401BB04231
:1052600001D9032070BD2068C0684006F4D5002035
:1052700070BD10B5FEF788F910BD000070B50920AB
:1052800001F0ECFD0546062001F0E8FD04040720CE
:1052900001F0E4FD00020443082001F0DFFD0443B7
:1052A000200A0102184A611A514380315043090A09
:1052B00046180021092001F097FF3B2001F0CEFDA8
:1052C0004024204301463B2001F08EFF3B2001F0AB
:1052D000C5FD8006FAD40D4801F074FE3B2001F0B4
:1052E000BDFD204301463B2001F07EFF3B2001F045
:1052F000B5FD8006FAD42946092001F075FF304635
:1053000001F060FE70BD0000093D000000A1BC334B
:10531000EFF3108172B60122824003488368934301
:1053200081F31088836070478800002010B500F07A
:1053300013F810BDEFF3108072B680F31088704739
:10534000EFF3108272B68000024B195082F310887E
:1053500070470000080E002070B51B4C1FE00021B4
:10536000030C01D110210004030E01D10002083109
:10537000030F01D10001091D144B000F185C4118E7
:10538000EFF3108072B61F23591A01238B409A4302
:1053900080F3108888000E492260085880472268F0
:1053A00060681040DBD1EFF3108572B6104661687B
:1053B000E2680840A1681140084301D1FFF7BAFF35
:1053C00085F3108870BD0000880000203B90000825
:1053D000080E0020EFF3108172B6012282400348CC
:1053E00083681A4381F31088826070478800002028
:1053F000EFF3108172B601228240034803681A431A
:1054000081F31088026070478800002070B5084C56
:1054100001218140E568E16001E0FFF787FFE16875
:10542000A0680842F9D0A068E5608843A06070BD1C
:1054300088000020054A0021531840331B7B435449
:10544000491C0529F8DB002070470000040008080B
:1054500001480079704700002400080870B505462F
:105460000024074EFDF7BAFE3019295D4030017364
:10547000FDF7B0FE641C052CF4DB002070BD0000BD
:105480000400080830B58BB001F063F82C220949FC
:105490006846FAF787FE00246D4660004119497896
:1054A000285C01F0B3F8641C162CF6D301F084F8E4
:1054B0000BB030BD8490000810B50446D7210E20F3
:1054C00001F0A4F8C82C04D0FF3C2D2C05D11021EC
:1054D00000E00921122001F099F810BD10B5052057
:1054E00001F090F8012010BD10B50446322001F003
:1054F00081F80F2801D9002010BD214601F074F871
:10550000012010BD10B501F015F8002001F07AF867
:1055100001F02AF810BDF8B515460E46074600F012
:10552000FFFF0446032001F06DF8F1002B462246F0
:10553000384602F051FA012801D00020F8BD01F0F0
:1055400001F90120F8BD000070B586B001F001F846
:1055500000F0E6FF05460E2810DD134B00240FCBAC
:10556000009001A80EC06E46600081194978305C39
:1055700001F04CF8641C082CF6D310E00A491822FC
:1055800010316846FAF70EFE00246E46600081195D
:105590004978305C01F03AF8641C0C2CF6D32846AC
:1055A00000F0C4FF06B070BD5C90000810B500F0BC
:1055B000DBFB10BD10B5044612F08AFE002801D0B6
:1055C0005B2108E0204612F07EFE040006D012F0B7
:1055D00073FE5B212046FFF777FD10BD12F06CFED5
:1055E0000028EDD110BD0000FEB5504D04462878CE
:1055F000002801D01120FEBD002C09D03B206946B7
:1056000008716846FEF782FC002803D0102187E06D
:105610001320FEBD684600793B2801D01220FEBD54
:1056200042496C20091DFEF791FC69680029EDD004
:105630000028EBD10846643000F096FB060004D049
:105640006868FEF761FC3046FEBD68460188686800
:105650008184627B0021022A02D0012A18D021E035
:105660000323334A8360C260016122698262024679
:10567000267E203216742F4F6669BE4204D1FF2168
:10568000F531C16253740DE0C1620221517409E029
:10569000294AC160826001610121322211546946A8
:1056A0004988818621680160616841600146627BAA
:1056B00040318A75A2688265227B012A02D0022AC3
:1056C00002D004E0642201E04B22D2008A83237BD3
:1056D00068221354194EA2683C23B24202D1CB83F4
:1056E000174812E0174EB24204D10820C8837D202B
:1056F00000010AE0144EB24202D1CB830C4804E010
:10570000124EB24209D11248CB830884607B042830
:1057100009D0012028700020FEBDFEF7F5FB142102
:10572000FFF7D2FCFEBD0220F4E70000D400002009
:1057300088130000E0930400FF01000000EE020067
:1057400008520000D4300000A08C00000077010057
:10575000A86100003EB5069D1C46012D06D0002321
:10576000002805D00C2905D930203EBD0123F7E7DC
:1057700033203EBD002A01D1012D0AD000920293B0
:105780000246054801940B460121406800F042FAA8
:105790003EBD31203EBD0000D400002070B50D4656
:1057A0001B4C0146207801282FD160680A6882606E
:1057B0004A68C26089680161C90508D5154A816DCA
:1057C000914204D114498165144A60210A5256213C
:1057D000095C012907D100F00FFB61680028C88629
:1057E00007D020318D7460685621095C022902D0EF
:1057F00009E0412070BD8168002902D0C0680628F8
:1058000001D2402070BD02202070002070BD000039
:10581000D4000020A08C000000EE0200085200001E
:10582000F0B587B01F4600266B461E760446054637
:1058300040340B0002F038FF0511043114507000A1
:10584000002007E0831DDBB25B19115C2033401C94
:105850009977C0B2B842F5D35EE0107820715BE072
:1058600005AA04A903A8FEF75FFB002803D00002E5
:10587000923007B0F0BD08202071684680896071C1
:10588000000AA0716846008AE071000A207268462A
:10589000808A60720012A0723EE005AA04A903A8E3
:1058A000FEF742FB002802D000029330E1E7092016
:1058B0002071684680896071000AA0716846008A7C
:1058C000E071000A20726846808A60720012A0723D
:1058D000608C6430E0721FE0012605AA04A903A8C9
:1058E000FEF722FB002802D000029530C1E70A2013
:1058F00020716A46C8219089FAF7FAFB60716A46FE
:10590000C821108AFAF7F4FBA0716A4614200A2114
:10591000105EFAF703FCE07112F0DAFC002801D007
:10592000000212E02A462946334655323E3106A887
:105930006E4607C62846394644300C9A12F0CAFC17
:10594000050004D012F0B8FC2802903091E712F064
:10595000B3FC0028E4D16946207D097E0843207508
:10596000002086E7490009185C22098B125A836DD2
:10597000514302685B085118C91A8A4201D80121B3
:1059800001E00021C943826AC06A48431018704789
:10599000FEB50446403017460190827D23466433AD
:1059A000002548484E1C0093042A1AD0022A18D019
:1059B000A18E002901D0814205D9184600F03BFC98
:1059C0004005400DA086A08C002801D07F2805D975
:1059D000009800F030FC4006400EA084012F3CD01F
:1059E0006DE0A18C002901D0814205D9184600F054
:1059F00022FC4005400DA084012F2BD1012120461F
:105A000000F0A2F805460121204600F0B2F8014658
:105A1000A08C01232A4600F069FCA0842083019910
:105A2000C98B42186283401A2FE00021204600F003
:105A30008BF807460021204600F09BF80146A08C19
:105A400001233A4600F052FC69000919A0846D1C3C
:105A50000883EDB2B542E8D3FEBDE08E0123401DC0
:105A600082B2A08E082100F041FCA086A08C002309
:105A70002622042100F03AFCA084A18E21874A1C32
:105A80006287491EA18720836083A083FEBDE08ECC
:105A90000123801D82B2A08E072100F027FCA08682
:105AA000A08C00232622042100F020FCA0846800A2
:105AB0000019A18E0187A18C6D1C0183EDB2B54246
:105AC000E5D3FEBDFF070000F8B505460E460446C7
:105AD0004035A87D49000F19042822D0022820D083
