:020000040800F2
:1000000090170020D500000855420008293D00083F
:1000100000000000000000000000000000000000E0
:10002000000000000000000000000000915E0008D9
:100030000000000000000000BF42000885690008C1
:10004000E7000008E70000081F460008E700000876
:10005000E70000085113000861130008711300083D
:10006000E7000008E7000008E9120008F5120008A0
:10007000E7000008E7000008E7000008E7000008C4
:10008000E7000008E7000008E700000800000000A3
:10009000E7000008E7000008E7000008E7000008A4
:1000A000E7000008E7000008E7000008E700000894
:1000B000E7000008B945000800000000E70000085C
:1000C0000348854600F010F900480047E97500082C
:1000D000901700200448804704480047FEE7FEE7E9
:1000E000FEE7FEE7FEE7FEE7196A0008C100000828
:1000F00030B50B46014600202022012409E00D46C0
:10010000D5409D4205D31D469540491B2546954047
:1001100040191546521E002DF1DC30BD70B500248B
:100120002546002801DA01244042002901DA012590
:100130004942FFF7DDFFAC4200D04042002C00D026
:10014000494270BDF0B51FB40646002082B0054696
:100150004024019100901BE0019922460F46304651
:1001600000F0B1F8049A059B801A994110D310460B
:100170001946224600F097F8361A8F410197224619
:1001800001200021009F00F08EF838184D410090AA
:100190002046641E0028DFDC019B00982946324679
:1001A00007B0F0BDF0B51FB486B0002000900190FC
:1001B00002900698069980B204900798090C0204F0
:1001C0000014114307900027089D099806913E46A8
:1001D0003C4603900398A9B20204000C03900498D3
:1001E0002D0C154348430021224600F05CF8C71946
:1001F000714110340E46402CECDB3846029A00F078
:1002000052F8009A019B8018009059410298019180
:10021000103002904028CCDB00980BB0F0BD0346B4
:100220000B439B0703D009E008C9121F08C0042A2A
:10023000FAD203E00B780370401C491C521EF9D21D
:100240007047D2B201E00270401C491EFBD27047D9
:100250000022F6E710B513460A4604461946FFF792
:10026000F0FF204610BD421C0178401C0029FBD144
:10027000801A704730B505460020034600E05B1C3D
:10028000934205D2EC5CC85C201A01D1002CF6D157
:1002900030BD0321001D401E037812021A43491E7F
:1002A000F9D51046704710B5202A04DB0146203AE4
:1002B0009140002010BD914020239C1A0346E3404A
:1002C0001943904010BD10B5202A04DB0846203A9F
:1002D000D040002110BD0B46D340D0402024A21AAC
:1002E00091400843194610BD064C0125064E05E015
:1002F000E36807CC2B430C3C98471034B442F7D347
:10030000FFF7E2FEEC8B00081C8C000870B58C181F
:100310000578401C6B075B0F01D10378401C2A1144
:1003200006D10278401C03E006780E70401C491C80
:100330005B1EF9D12B0705D40023521E0DD40B7080
:10034000491CFAE70378401CCB1A921C03E01D7885
:100350000D70491C5B1C521EF9D5A142D8D3002058
:1003600070BD000038B50446064805490068FFF72F
:10037000BFFE604300E0401E00900028FBD138BD66
:1003800040420F004C000020F8B504460068816828
:100390008907890F012902D10168C90722D1816823
:1003A000114A10261140012500290ED181682943E8
:1003B00081600120FFF7D6FF01F018FC07460CE032
:1003C00001F014FCC01B0A2807D9A06D3043A065BA
:1003D000E06D2843E0650120F8BD20680068C04357
:1003E000C007EDD10020F8BD17000080F0B5002354
:1003F000844618461A4601279400654600212D5967
:1004000056013C468C40254202D001237018C0B2F0
:10041000491CC9B2202901D2002BF2D0521CD2B201
:10042000032A01D2002BE7D0F0BD000070B50D46C5
:10043000044604F039FB002827D1607B02280AD04B
:100440001349606888420FD10021124804F0D4FC9F
:100450000446104813E00F480021183004F0CCFC8B
:1004600004460C4818300AE00B4988420ED109486E
:1004700000210C3004F0C0FC044606480C30286013
:10048000002C03D004F0B6FA204670BD002070BDE9
:100490008041F435DC000020602EF936F0B585B0DF
:1004A0000546002001AA014640311154401CC0B24B
:1004B0000C28F8D300265CE0122003F073FE00281D
:1004C0000BD1002302221946184604F0E5FB040074
:1004D00024D103F0A1FE002803D00002C23005B0F1
:1004E000F0BD122003F05EFE00280BD10023022293
:1004F0001946012004F0D0FB04000FD103F08CFE5C
:10050000002802D00002C330E9E7122003F04AFEBF
:1005100000280BD104F002FC040003D003F06CFEB1
:100520002046DCE703F078FE002802D00002C43049
:10053000D5E70124122003F035FE002810D1024631
:1005400000900223214601A804F0C4FB070003D059
:1005500003F052FE3846C2E703F05EFE002802D0E8
:100560000002C630BBE7641CE4B20C2CE2D9761C56
:10057000F6B2AE42A0D30020B1E710B503F012FEF0
:10058000002801D103F048FE10BD0000F3B500249F
:1005900095B026460C94072802D3CA2017B0F0BDA8
:1005A000CE4A0125002700280FD0CD4B022101287B
:1005B00011D0042812D0CB4B022817D0032820D00A
:1005C00005282CD006283BD048E0C7480490C748EF
:1005D000069205903AE0C648049301E0C5480493AA
:1005E0000590069268460177457733E0C348059049
:1005F000C348C14A0690049268460577417708923D
:1006000009E0BD480490BD4805900692684605770C
:100610004177B94808904F21C94309930DE0B94883
:100620000490B9480590B948069068460577417727
:10063000B7484021C9430993089008A801720DE00A
:10064000B4480490B4480590B448069068460577CD
:1006500004214177089708A8099707720DA904A8F3
:10066000FFF7E4FE002899D1169901A80B0006F0C7
:1006700055FD07053A5D849DFB2EF100AA21015529
:10068000641CA4B20C2CFAD36846407F049D012858
:1006900005D10D98FFF7AAFEA1494843451900244A
:1006A00000230C2201A9284604F054FB06007CD14B
:1006B0000120FFF762FF060004D004F09BF930022E
:1006C000C7306BE7641CA4B2032CE9D3FEE0684694
:1006D000407F012805D02220FFF7E0FE040060D112
:1006E000F4E00520F8E7122003F05CFD00280ED1AD
:1006F000012004F013FB040005D003F07DFD04F09D
:1007000079F9204605E003F087FD00280CD00002AF
:10071000CD30002808D0010A4929D2D10DA904A85A
:10072000FFF784FE0028CCD10120D5E721464031D7
:100730000155641CA4B20C2CF8D3022312AA0C217C
:10074000009504F0C7FA04002BD10120002112AA61
:10075000545C0B4630339C4200D00020491C89B2C7
:10076000082901D20128F3D0002103F0C5FC0400C0
:1007700072D004F03FF9200254E06A4A05980EA9AD
:10078000135D0B55641CA4B20F2CF9D30BA9009177
:100790001E230EAA002104F03DFA04005CD09B2C1D
:1007A0005AD004F027F92046F8E67EE00755641C8D
:1007B000A4B2082CFAD3002406E05B48844203D19B
:1007C00023206946C87201E06846C77201230C22E3
:1007D00001A9002004F0BEFA05000CD10BA800907E
:1007E00004230EAA0121002004F014FA05469B28D8
:1007F00005D0002D07D004F0FDF82846CEE6761C83
:10080000B6B2002004E00C98401C80B20C9001208D
:100810006A462C21515E03F06FFC050004D004F001
:10082000E9F82802C130B9E60C986946000A8871D7
:100830000C98C871888D64300872300A48728E72C4
:100840000620FFF79AFE050007D004F0D3F828022F
:10085000C830A3E63DE007E038E0641C7D20A4B288
:10086000C0008442A9D331E06846407F049D01283E
:1008700005D10D98FFF7BAFD2949484345190920CC
:1008800003F090FC060018D1643568460571290A0A
:100890004171290C8171290EC1710023042201A923
:1008A000284604F057FA060003D004F0A3F83046B7
:1008B00074E603F0B1FC060004D004F09BF83002AB
:1008C000C9306BE6641CA4B2092CD8D304F092F8AA
:1008D00064E604F08FF8CC2060E6000000EE020031
:1008E000C07AC635400D0300D09CBE3308E6D33332
:1008F0008041F435602EF93600EA0637C0A7F73696
:10090000A08C000050AD0737106BF836007701005F
:10091000A070083724C21A04748E5804D430000022
:10092000E0930400CD850008E7030000F0B505461C
:100930008DB000204E4C09900A900B902022211D72
:100940006846FFF76CFC607D012833D100215C22F2
:1009500028786D1C0346303B092B01D8D8B20BE038
:100960000346613B052B01D8573804E00346413B61
:10097000052B1FD83738C0B210281BD2CB175B0FFE
:100980005B18DB109E0009ABF718D617F60EB618E9
:1009900076097601961BB0403B68491C0343121F41
:1009A0003B601829D4DB08AA32A1284606F0D8FFFC
:1009B000012802D002200DB0F0BD68460078022860
:1009C00011D102F0A5FC0998A06202F08BFC02F0A4
:1009D0009FFC0A98E06202F085FC02F099FC0B98FB
:1009E000206302F07FFC68460078032811D102F0F2
:1009F0008FFC0998606302F075FC02F089FC0A988C
:100A0000A06302F06FFC02F083FC0B98E06302F03D
:100A100069FC68460078042811D102F079FC099835
:100A2000206402F05FFC02F073FC0A98606402F03C
:100A300059FC02F06DFC0B98A06402F053FC03F02B
:100A4000D9FF002812D16C4601A804F02DF8002827
:100A50000CD16846008CC1B209A804F0CDF9002879
:100A600004D1201D04F020F80028A4D00120A2E722
:100A7000040008082C256875000000001CB501A8BA
:100A800003F0CEFF002801D005201CBD6846007988
:100A90000090684643798279C17902A007F076FA1E
:100AA00000201CBD253032582530325825303258B0
:100AB000253032580D0A00007CB5684603F0B4FFBB
:100AC000002801D005207CBD00246D46295D05A0CD
:100AD00007F05CFA641C082CF8DB04A007F056FA57
:100AE00000207CBD25303258000000000D0A0000B7
:100AF00010B503F087FE014602A007F047FA002078
:100B000010BD000025640A0D0000000010B501783A
:100B1000302902D0312904D006E04078002806D0E0
:100B200002E04078002801D0022010BD012003F02F
:100B300083FE002010BD000000B587B000210591A4
:100B400001910291012203A90392009105AB04AA2D
:100B500015A106F005FF032802DD022007B000BD45
:100B60000598002803980BD0C2B204980123C0B2A4
:100B700001A904F091F800280DD09B2811D008E0BD
:100B8000C2B204980023C0B201A904F085F800287D
:100B900005D00520E2E7102101A806F019FE00208B
:100BA000DCE70620DAE7000025752C25752C256486
:100BB0000000000070B58AB00024019402940394F0
:100BC0000126054604940594089406AA01A90796EF
:100BD000069406F08DFE01280DD106984000295C90
:100BE0002C290BD1401907AB08AA17A1401C06F00D
:100BF000B7FE022802D902200AB070BD089800286A
:100C00000DD007980096C3B2069804AAC1B201A8F5
:100C100004F060F800280FD09B2813D00AE0079852
:100C20000094C3B2069804AAC1B201A804F052F815
:100C3000002805D00520DFE7102104A806F0C8FD34
:100C40000020D9E70620D7E725752C257500000080
:100C500010B502F0D9FB014602A007F097F9002079
:100C600010BD000025750D0A0000000010B50548F4
:100C70008078AA2804D004A007F088F9002010BDCD
:100C800002A0F9E704000808300D0A00310D0A003F
:100C900038B56A460CA106F063FE012805D100981C
:100CA0000A4C002803D0012805D0022038BD02F0EC
:100CB0002FFB002002E002F02BFBAA20A07002F024
:100CC00011FB002038BD0000257500000400080855
:100CD00010B5002004F022F8002010BD10B503F07C
:100CE000B7FD014602A007F051F9002010BD000039
:100CF00025640D0A0000000008B56A4607A106F049
:100D00002FFE012806D169460020085603F0E8FDB1
:100D1000012801D0022008BD002008BD25686864B4
:100D20000000000010B50B480079012806D0022809
:100D300006D0032809D0042805D108E006A000E069
:100D400006A007F023F9002010BD05A0F9E706A0D2
:100D5000F7E7000004000808310D0A00320D0A0010
:100D600033430D0A00000000340D0A0010B501786D
:100D70005A4C8CB0312906D0322920D0332944D0A6
:100D8000342974D076E04078002873D12022544969
:100D90006846FFF744FA02F0BBFA20226946201D9C
:100DA000FFF73DFA02F09EFA03F024FE00287DD101
:100DB00001A803F079FE002878D10E2089E0407860
:100DC000002857D14649202220316846FFF727FAEC
:100DD000A06A0890E06A0990206B0A9002F098FAE5
:100DE00020226946201DFFF71AFA02F07BFA03F071
:100DF00001FE00286AD101A803F056FE002865D143
:100E0000142003F06DFD012129E04178632901D010
:100E100043292FD1807800282CD13149202240311C
:100E20006846FFF7FCF9606B0890A06B0990E06BD7
:100E30000A9002F06DFA20226946201DFFF7EFF9B3
:100E400002F050FA03F0D6FD00283FD101A803F0CC
:100E50002BFE00283AD10D2003F042FD002108A806
:100E600003F0CAFF002831D135E000E002E040780D
:100E7000002802D002200CB010BD19492022603198
:100E80006846FFF7CCF9206C0890606C0990A06C64
:100E90000A9002F03DFA20226946201DFFF7BFF9B3
:100EA00002F020FA03F0A6FD002800E00EE00DD1CC
:100EB00001A803F0F9FD002808D1142003F010FD6B
:100EC000012108A803F098FF002801D00120D2E7F3
:100ED000142003F005FD0020CDE700000400080801
:100EE0006C840008BFF34F8F04490348C860BFF308
:100EF0004F8F00BFFDE700000400FA0500ED00E0A1
:100F000010B502F0F3F9002010BD01207047000079
:100F100010B504480021415E03A007F037F8002017
:100F200010BD00000400080825642064420D0A007A
:100F300008B56A4608A106F013FD012801D0022079
:100F400008BD02F0E5F9684604490088088002F00F
:100F5000C9F9002008BD00002568640004000808E5
:100F600008B5002100916A4614A106F0F9FC012899
:100F70001FDC0098002809D01149124A41189142FB
:100F800009D203F037FD002100980EE003F09EFF28
:100F900004F078FD0FE00C496538884209D203F06F
:100FA00029FD0A4900984843002103F067FF002803
:100FB00001D0022008BD002008BD000025750000FA
:100FC000FF1E0AFAFFE8A4358303000040420F0029
:100FD00070B5002401782546312906D0322908D081
:100FE00033290BD0342914D029E041782C2914D08E
:100FF00025E041782C2922D101240EE081782C298A
:101000001DD14178432901D0632918D10324C07828
:1010100004E041782C2912D1042480783038062845
:101020000DD8C6B203F0E6FC31462046FFF7AEFA13
:10103000002800D0012504F025FD284670BD0220BF
:1010400070BD00001CB5002100910191012401AB8D
:101050006A461BA106F084FC02282CDC0198642857
:1010600004D04B21C90088420DD1022400980028E9
:101070000ED01549154A411891420ED203F0BAFC20
:101080002146009813E0002815D10098002812D1BD
:1010900003F01CFF04F0F6FC0FE00D4965388842B0
:1010A00009D203F0A7FC0B4900984843214603F0FE
:1010B000E5FE002801D002201CBD00201CBD000060
:1010C00025752C2575000000FF1E0AFAFFE8A435DF
:1010D0008303000040420F001CB5002201A96846AE
:1010E00003F0BCFC68460179009806F061FB17A08C
:1010F00006F04CFF022201A9684603F0AFFC6846E7
:101100000179009806F054FB10A006F03FFF012281
:1011100001A9684603F0A2FC68460179009806F030
:1011200047FB0AA006F032FF032201A9684603F03C
:1011300095FC68460179009806F03AFB03A006F09A
:1011400025FF03A006F022FF00201CBD0D0A0000B1
:10115000582D435542452D53464F5820312E312EA0
:10116000300D0A0010B502221449012386B0002870
:101170001ED0012804D002281AD0032807D117E076
:10118000CA6A1A43CA62C96AC907C90F05914100F0
:101190000B4A8000515A00910021029103210391D2
:1011A000084901930858694600F058FC06B010BD84
:1011B000CC6A1443CC62C96A1140E7E700100240D0
:1011C000208100080400002010B5054A4100515A52
:1011D000044A80001058002200F002FD10BD0000FB
:1011E000208100080400002010B5054A4100515A32
:1011F000044A80001058012200F0F2FC10BD0000EB
:10120000208100080400002010B506F027FE06F03B
:10121000A1FE10BDF8B51A4F00261A4C0DE000F0E3
:10122000D7F82168012878540CD00D2813D00A284B
:1012300011D03F291CD0491C216002F077FD012804
:10124000EDD0F8BD0E482168FFF702F807202660B0
:1012500006F02EF9F8BD0029EFD07E540D4608485F
:10126000266006F0E5F929460548FEF7F1FFE4E7B8
:101270000348FEF7EDFF0420266006F019F9DCE7CD
:10128000580500205800002030B587B0142168466A
:10129000FEF7DEFF032001900020029003204003B0
:1012A000104C0090E06A01210843E062E06A0840C7
:1012B000059005206946000700F0D0FBE06A400871
:1012C0004000E062606B0125AD052843606300F0DB
:1012D000A3FA00F0B1FA00F0A7FA606BA8436063CC
:1012E00007B030BD0010024010B502F02FFB04F033
:1012F0006BFD10BD10B506F015FD10BD10B50468EE
:1013000063608368102B036803D099600068C26033
:1013100010BD9A600068C16010BD000010B50446A1
:1013200005280ED90849094805F002FE214607485C
:1013300005F066FE054805F075FE012003F040FA51
:1013400010BD00F052FB10BD9D4200086006002059
:1013500010B5012000F076FB022000F073FB10BDF9
:1013600010B5042000F06EFB082000F06BFB10BDF0
:1013700010B5102000F066FB202000F063FB402039
:1013800000F060FB802000F05DFBFF20013000F0EA
:1013900059FB0120400200F055FB0120800200F0C3
:1013A00051FB0120C00200F04DFB0120000300F0C2
:1013B00049FB0120400300F045FB0120800300F0C1
:1013C00041FB0120C00300F03DFB10BDFEE7000023
:1013D000EFF3108172B6054AD368D05C5B1C5B07E3
:1013E0005B0F81F31088D360704700007404002005
:1013F000F8B5054604464035287D0026012808D06A
:1014000001202875206881688907890F01290ED17C
:1014100001E00220F8BD0168C90708D0A06D2021B5
:101420000843A0650126002028753046F8BDA16D4F
:10143000FF220132914302221143A165C16889074D
:10144000890F0091C16889088900C160206881689E
:1014500092071143816000F0C9FB07460EE000F0DF
:10146000C5FBC01B0A2809D9A06D022188431021A1
:101470000843A065002028750120F8BD2068806819
:101480000028ECDB2068C168009A1143C160A06DA0
:1014900080088000401CA065C5E70000F8B506463E
:1014A0000D464036317D01290DD00121317501688D
:1014B0008A68520709D5816D202211438165002079
:1014C00030750120F8BD0220F8BD174B6A68D805B9
:1014D00047109A42154C8A6A2B6812D05B035B0B4B
:1014E0001A438A622968490305D5A1680143A160AE
:1014F0000A20FEF737FF2868800312D5A06838431A
:101500000EE05B035B0B9A438A622968490302D5AC
:10151000A1688143A1602868800302D5A068B84310
:10152000A06000203075F8BD0110000000270140C8
:101530000068006C7047000070B5040006D0A06D14
:10154000264600254036002802D006E0012070BD66
:10155000E5653575204600F0D1F8A06DC00603D4CE
:1015600021688868400705D5A06D10210843A06553
:101570003575EBE7A06DFF22013290430222104344
:10158000A06588688207920F5A48012A02D10A682A
:10159000D2072BD1032362689B079A4205D05B4296
:1015A0009A4202D05B009A4209D10A6992009208DD
:1015B0000A6121680A6963681A430A610CE00A69D2
:1015C000920092080A6181680F229204914381601F
:1015D00081686268114381602168CA6818239A4350
:1015E000CA602168CA68A3681A43CA608168012278
:1015F0005206914381608168228F520611438160B7
:1016000020688168C90004D481680122120711434F
:1016100081602068C168384A1140C1602169E06872
:10162000022923D000210843216A226B490352007A
:1016300011430843616B0843A16989030843E169C9
:10164000C90308432168CA681043C860A06A0146FC
:10165000FF39C23905D0E16A08432168CA681043DE
:10166000C860606A0121012802D00BE00421DAE79A
:10167000206A002823D0A06D20221043A065E06DD1
:101680000843E065206C012820681FD00169C90764
:1016900003D0016949084900016120684169C9080E
:1016A000C900416120684169E26B11434161E56510
:1016B000A06D80088000401CA065002070BD2068DF
:1016C000C26801231B041A43C260DBE70269FF23DF
:1016D0009B009A43026120680269636CE66C1A43BE
:1016E000A36C33431A430261206802690A43026112
:1016F000D3E70000002701401902FEFF7047F8B54C
:1017000004464069254640350E4608280BD020681F
:10171000C068C00709D0A06D20210843A065002043
:1017200028750120F8BD082700E00C2700F05EFABC
:10173000009011E0701C0FD0002E05D000F056FA7A
:101740000099401AB04207D9A06D04210843A06552
:10175000002028750320F8BD206800683842E9D0D1
:10176000A06D012149020843A0652068C1680905F0
:101770008A0F0C21002A1AD1226A002A17D1026886
:10178000120714D5826853070122002B08DB436837
:101790008B434360A06D130298431043A06506E09D
:1017A000A06D20231843A065E06D1043E065A0699B
:1017B000002801D1206801600020F8BD70B5044602
:1017C000216800208968490721D425464035297DB4
:1017D00001291CD001212975E169012904D0204685
:1017E000FEF7D2FD002811D1A16D0A4A1140FF2257
:1017F00001321143A1650021E165297522681C2190
:10180000116021688A6804231A438A6070BD02202F
:1018100070BD0000FEF1FFFF024841684908490021
:1018200041607047005801400248416804229143DA
:1018300041607047005801400248416802229143CC
:101840004160704700580140F8B5044600680168DF
:1018500049084900016000F0C9F9002725460646FD
:1018600020350EE000F0C2F9811B7D20C0008142CE
:1018700007D9E06B20210843E0632F7103206871D2
:10188000F8BD20680068C007ECD12F710120687195
:101890000020F8BD70B5002805D0034620335979E3
:1018A000002902D003E0012070BD0021197102213E
:1018B0005971046822683749C5680A4081684669D9
:1018C000294305693543294385692943C569294366
:1018D000056A2943114321602F492F4C0268783152
:1018E000A24206D18A6A120912018A628A6A406893
:1018F00049E0294C1434A24207D18A6AF024A24359
:101900008A628A6A406800013DE0234C2834A24282
:1019100008D18A6A0F242402A2438A628A6A406834
:10192000000230E01C4C3C34A24208D18A6A0F24E9
:101930002403A2438A628A6A4068000323E0164CAB
:101940005034A24208D18A6A0F242404A2438A6236
:101950008A6A8088000416E00F4C6434A24208D1E1
:101960008A6A0F242405A2438A628A6A8088000555
:1019700009E08A4209D18A6A0F242406A2438A62B6
:101980008A6A0079000602438A62012058710020A9
:1019900070BD00000FC0FFFF08000240F8B504460C
:1019A00020300579012D1ED00125057102264671D2
:1019B00020680768AF4307602046FFF79FFC206858
:1019C000016831430160206801680422114301600D
:1019D00020680168082211430160206801682943DA
:1019E00001600020F8BD0220F8BD01B5009801F0AB
:1019F000FBFD08BD024841688215114341607047F4
:101A00000020024003484168012211434160002048
:101A1000704700000020024005484168C90705D012
:101A20000449C1600449C16000207047012070472B
:101A300000200240EFCDAB890504030210B501F090
:101A4000B3FC10BD10B504494A69024202D0486196
:101A5000FFF7F4FF10BD000000040140F8B50023BB
:101A60000124A7E027469F403A4070D04D68022DE0
:101A700001D0122D14D1DD08AD002D1800952D6A6E
:101A80005E07AC46F50E0F26AE46AE406546B54342
:101A9000AC460E697546AE4065462E43009D2E62EB
:101AA0004D68012D05D0022D03D0112D01D0122D2E
:101AB00016D185680326AC465D00AE46AE4065464D
:101AC000B543AC46CE687546AE4065462E4386604B
:101AD00046680D79BE43ED06ED0F9D4035434560E8
:101AE00006685F000325BD40AE46AE430D79B4469F
:101AF000AE07B60FBE4065462E430660C668754603
:101B0000AE438D68BD403543C5604D68ED0050D58E
:101B10002B4D6E6B26436E639E082A4DB6007519D9
:101B2000AC46AD689E07360F0F27B740BD4305276B
:101B30003F07B84201D100271AE0234FB84201D134
:101B4000012715E0214FB84202D1022710E030E012
:101B50001F4FB84201D103270AE01E4FB84201D1FE
:101B6000042705E01C4FB84201D1052700E00627F5
:101B7000B7402F436546AF60184D2E684F689643B7
:101B8000FF0300D516432E606E684F689643BF036F
:101B900000D516436E60AE684F689643FF0200D5CD
:101BA0001643AE60EE684F689643BF0200D51643F9
:101BB000EE605B1C0A681546DD4000D052E7F8BDB8
:101BC00000100240000001400004005000080050D6
:101BD000000C005000100050001C00500004014098
:101BE000002A01D081617047816270470148006816
:101BF000704700005000002002480168491C016045
:101C0000704700005000002010B50648016802220D
:101C100011430160032000F007F800F007F80020EE
:101C200010BD0000002002400020704710B5094898
:101C3000816B02041143816300F03CF800F032F83C
:101C40000548016808221143016000F023F801F003
:101C50001BFC10BD0010024000200240C106C90E4E
:101C600001208840014908607047000000E100E061
:101C700005490968C206D20E01209040014201D0F8
:101C8000012070470020704700E200E010B502F02C
:101C9000E3FA10BD02480168021511430160704764
:101CA000007000400248016842151143016070470E
:101CB00000700040024801681022914301607047A3
:101CC00000700040094B1A689208920002431A60A3
:101CD0000748026904239A430261012903D040BFE7
:101CE00020BF20BF704730BF704700000070004029
:101CF00000ED00E00548016802221143016004483C
:101D0000016904221143016130BF70470070004037
:101D100000ED00E00A4B1A689208920002431A6034
:101D200008480369042213430361012906D040BF18
:101D300020BF20BF016991430161704730BFF9E7BF
:101D40000070004000ED00E0F8B5044600785E4DFC
:101D5000800672D55C4E0027403EB06BC00004D4B4
:101D6000B06BA9050843B063012758480168C9054D
:101D700011D40168821511430160FFF737FF00900D
:101D800005E0FFF733FF0099401A642837D84F4821
:101D90000068C005F5D532680321090560680A406E
:101DA0000140914208D08103890F032904D1316891
:101DB000890301D50120F8BD2A69032109040A40DD
:101DC00022D0084090421FD0207880061CD5286978
:101DD0002A6988430121C9040A432A612A698A437E
:101DE0002A612861C0050FD5FFF700FF009008E0C9
:101DF000FFF7FCFE0099411A3548814201D90320C2
:101E0000F8BD28698005F3D561688803800F032831
:101E100005D132680005824301400A4332602869D7
:101E2000032261681204114008432861002F04D086
:101E3000B06B012109078843B0632078C00705D043
:101E4000E868A168800880000843E860207880077F
:101E500005D5E8680C218843E1680843E8602078EC
:101E6000400706D5E86803218902884321690843B1
:101E7000E8602078000706D5E86803210903884355
:101E800061690843E8602088C00506D5E868032139
:101E900009048843A1690843E8602078400606D514
:101EA000E868012189068843216A0843E8602078B0
:101EB000000606D5E868032189048843E1690843E0
:101EC000E8600020F8BD00004010024000700040B3
:101ED00088130000F8B5054653480E460068C00751
:101EE000C00FB0420AD25048016849084900314346
:101EF00001600068C007C00FB0426FD128784B4C1A
:101F0000800705D5E068F0218843A9680843E060B0
:101F10002878C00752D06868022817D0032818D044
:101F20002168012818D08905002957DAE168890855
:101F300089000143E160FFF759FE696807460229FD
:101F400012D003291CD0012926D033E0216889034F
:101F5000EAE721688901E7E74907E5E7FFF746FE79
:101F6000C11B3348814223D8E0680007800F022854
:101F7000F4D123E0FFF73AFEC11B2D48814217D868
:101F8000E0680007800F0328F4D117E0FFF72EFE6A
:101F9000C11B274881420BD8E0680007800F012849
:101FA000F4D10BE0FFF722FEC11B2148814201D989
:101FB0000320F8BDE0680007800FF3D11A480168DC
:101FC000C907C90FB1420BD901684908490031431B
:101FD00001600068C007C00FB04201D00120F8BD09
:101FE0002878400706D5E068072109028843E96898
:101FF0000843E0602878000707D5E0680721C90298
:1020000088432969C9000843E06000F017F8E168D7
:10201000084A0906090F515CC840074908600320B7
:10202000FFF702FE0020F8BD002002400010024031
:1020300088130000088200084C00002010B5184AE0
:10204000D1680C20084004280BD0082810D00C2898
:1020500010D050680004410F0120C003491C884083
:1020600010BD1068C00601D50E4810BD0E4810BD49
:102070000E4810BD88020E4B000F185C0902D36891
:10208000890F491CDB0301D5084A05E01268D20616
:1020900001D5044A00E0044A5043FEF729F810BD78
:1020A0000010024000093D000024F40000127A00F4
:1020B00018820008F8B504460078FF4DC0074CD0E0
:1020C000E8680007800F022807D0E8680007800F43
:1020D000032809D1E868C00306D5286880033CD5E9
:1020E0006068002875D038E00120626800048242F0
:1020F00003D129680143296011E0052301211B0454
:1021000089049A422A6802D10A432A60F1E782438D
:102110002A602A6802400092286888432860606824
:1021200000280DD0FFF762FD0646E44F04E0FFF7FC
:102130005DFD801BB8427DD828688003F7D50CE090
:10214000FFF754FD0646DD4F04E0FFF74FFD801B0F
:10215000B842F0D828688003F7D42078800741D5AA
:10216000E8681F270007800F3F02012807D0E868B2
:102170000007800F032809D1E868C00306D4286847
:10218000400717D5E068012823D113E0E068002854
:1021900017D029680922914301432960FFF726FDE2
:1021A000064604E0FFF722FD801B0228C3D82868FA
:1021B0004007F7D568682169B84309020843686099
:1021C00010E02868400840002860FFF70FFD064631
:1021D00005E090E0FFF70AFD801B0228ABD82868D5
:1021E0004007F7D42078C00676D5E868B44E0007DB
:1021F000800F0BD0E06900285DD02868FF210131F5
:1022000008432860FFF7F2FC074644E02868800591
:1022100002D5E06900286ED0606A69683140884262
:1022200012D902F0B1F80028AED16868616AB043F3
:10223000084300E0E4E068606868218C0002000A5E
:102240000906084368600FE06968B14301436960AB
:102250006868218C0002000A090608436860606A09
:1022600002F092F800288FD1606A410B0120C00370
:10227000491C8840E968934A0906090F515CC84027
:10228000914908600320FFF7CFFC25E0FFF7AEFC83
:10229000C01B02288AD828688005F7D56868616A5B
:1022A000B043084368606868218C0002000A090690
:1022B0000843686010E02968FF20013081432960ED
:1022C000FFF794FC064604E0FFF790FC801B022811
:1022D00084D828688005F7D420787C4E000723D561
:1022E00060690028306910D0012108433061FFF790
:1022F0007DFC074605E009E1FFF778FCC01B0228DA
:102300007ED830698007F7D50EE040084000306184
:10231000FFF76CFC074604E0FFF768FCC01B0228CF
:102320006ED830698007F7D42078400761D5A86B54
:102330000027C00005D4A86B012109070843A86342
:10234000012763480168C90511D40168821511434A
:102350000160FFF74BFC009005E0FFF747FC009998
:10236000401A64284CD85A480068C005F5D5FF20AB
:10237000A2680130824203D131690143316111E029
:1023800001218902002A07D005231B029A4203D1AA
:1023900032690A433261EFE7326982433261306960
:1023A00088433061A06800280ED0FFF71FFC009022
:1023B00006E0FFF71BFC0099411A404881421FD8F4
:1023C00030698005F5D50DE0FFF710FC009006E0C0
:1023D000FFF70CFC0099411A3848814210D8306947
:1023E0008005F5D4002F04D0A96B0120000781439C
:1023F000A9632078800630D53649A0694A1400E0E8
:102400007DE0002816D0AB6801200343AB606B6B06
:1024100003436B63086A10430862FFF7E7FB064655
:1024200004E0FFF7E3FB801B022868D8A868800758
:10243000F7D512E0A86840084000A860086A9043F9
:102440000862FFF7D3FB064604E0FFF7CFFB801BD3
:10245000022854D8A8688007F7D4A06A002853D06F
:10246000E9680907890F032950D00126360602289A
:10247000286805D0B0432860FFF7B8FB044640E069
:10248000B0432860FFF7B2FB074604E0FFF7AEFB5E
:10249000C01B022833D828688001F7D4216BE06A7A
:1024A000EA680843616BFD231B049A431143084308
:1024B000E860286830430FE00010024088130000F5
:1024C00000E00000088200084C000020401002409C
:1024D00000700040000001402860FFF787FB0446C1
:1024E00004E0FFF783FB001B022808D8286880015E
:1024F000F7D509E0FFF77AFB001B022801D903207A
:10250000F8BD28688001F5D40020F8BD0120F8BD91
:1025100030B5014620310A78012A15D001220A700F
:1025200002234B700468CA23636204685323636206
:1025300003689C6820252C439C600068FF2343624D
:102540004A700020087030BD022030BD10B504F084
:1025500005FD10BDF8B504460220264620367070F1
:102560002168CA204862216853204862204602F050
:102570003AF8FF27002842D12168086021682748DF
:102580004860206881684907490F8160FFF72EFB8A
:1025900005460BE0FFF72AFB411B7D20C00081426E
:1025A00004D92068476203207070F8BD2068C068B5
:1025B0004007EFD5206881680025856021681848AC
:1025C00048612168174808612068C5612068056274
:1025D0002068C5622068C5632068456420688564FA
:1025E0002068C560206805642068C564206880682C
:1025F00080060AD4204600F0FBFA002805D02068A7
:102600004762042070700120F8BD206847622046B0
:1026100000F008F9757035700020F8BD0121000048
:10262000FFFF0000FF007F00F8B505460446203597
:10263000287801281DD001202870022068702268A7
:10264000CA205062226853205062FF2001300026C9
:10265000FF2781421CD121688A6882438A602068F2
:1026600081680122120391438160FFF7BFFA009055
:1026700009E00220F8BDFFF7B9FA0099411A7D2060
:10268000C00081421BD82068C068C007F3D020E09A
:10269000206881680122520291438160206881682C
:1026A000120191438160FFF7A1FA00900DE0FFF75E
:1026B0009DFA0099411A7D20C000814205D9206809
:1026C0004762032068702E70F8BD2068C0688007DC
:1026D000EDD520684762012068702E700020F8BD9B
:1026E00010B500680B464068C021C9430140000294
:1026F000000ECC04D870E40E5C708C06A40E0904A5
:10270000490F9C701970002A0AD101F059FFD87046
:10271000587801F055FF5870987801F051FF987083
:10272000002010BD30B50B460168896A5960016808
:1027300009694904490C9960006804680F482146FA
:10274000014088024D04800E18706D0E49065D70C0
:10275000490E99706102490E40242140D970002A27
:102760000AD101F02DFF1870587801F029FF587038
:10277000987801F025FF9870002030BD7F7F7F00A2
:1027800070B5040005D0254620356878002802D0B1
:1027900006E0012070BD00202870204600F04CF8B3
:1027A000022068702168CA2048622168532048626C
:1027B000204601F018FFFF210028206803D0416265
:1027C00004206870E5E78268154B1A408260226831
:1027D00090686368A669184323693343184390607F
:1027E0002268E06810612068026923891B041A438B
:1027F00002612068C26880239A43C2602068C26C6C
:1028000092089200C264E269606902432068C36C66
:102810001A43C2642068416201206870002070BDC4
:10282000BFFF8FFF034801690122920491430161B8
:10283000704700004010024000B597B0042000909F
:1028400000200A90FF20013002906846FFF732FC1A
:10285000002801D0FEF7BAFD20200E90C0020F9094
:102860000EA8FFF771FA002801D0FEF7AFFD084867
:102870000169012292041143016100220121022019
:10288000FFF704FA0220FFF7E9F917B000BD0000D6
:1028900040100240FEB506460446203630780B460E
:1028A000012842D0012030700220707020681D463F
:1028B000002720358068002A39D0400655D5187881
:1028C00001F07EFE287801F07BFE197898780904E3
:1028D00008435978DA780902120411430843297829
:1028E00009060843D96908435969084305469969A7
:1028F0005868084300902168CA2048622168532024
:102900004862FF205A6A0130802182424AD12268FF
:102910009368834393602268D0680840FF38823808
:10292000D060FFF763F9019029E00220FEBD400668
:1029300000D4DF70187801F04BFE0204587801F0E3
:1029400047FE00020243987801F042FE0243D87825
:1029500000040243287801F03BFE00060243D869D8
:102960000243586902431546C1E7DF70AAE7FFF743
:102970003DF90199411A7D20C00081422AD8206882
:10298000C068C007F3D02068C5612168009848641A
:1029900020688168FF2201321143816020688168CC
:1029A000120130E02068826801235B029A43826052
:1029B0002068C2680A401D495118C160FFF716F926
:1029C00001900EE0FFF712F90199411A7D20C00035
:1029D000814206D92168FF20486203207070377059
:1029E000FEBD2068C0688007ECD5206805622168BC
:1029F0000098886420688168012252021143816036
:102A00002068816812011143816009480268012130
:102A100049040A43026082680A4382602168FF20F9
:102A200048620120707037700020FEBD7FFDFFFFFF
:102A300000040140F8B505460446203528780B46C9
:102A4000012815D001202870022068705878002ACB
:102A500010D001F0B5FD987801F0B2FDD8789E78DD
:102A6000000406435878197800024903084316E029
:102A70000220F8BDC10603D5EF2108400A30587086
:102A8000D87801F0A5FD0604587801F0A1FD0002F8
:102A90000643987801F09CFD0643187840030643EE
:102AA0002168CA204862216853204862204601F00C
:102AB0009AFD0027002811D1104806402068466082
:102AC0002068C16880229143C160206880688006C8
:102AD0000CD4204600F08CF8002807D02168FF2095
:102AE0004862042068702F700120F8BD2168FF2023
:102AF0004862012068702F700020F8BD3FFFFF0082
:102B0000F8B506460446203630780D4601280ED02A
:102B10000120307002207070206800278068002A31
:102B200007D040061AD5287801F04AFD17E00220A8
:102B3000F8BD400600D4EF70287801F049FD02048A
:102B4000687801F045FD00020243A87801F040FDDD
:102B50000243E8780004024300920BE0EF7029780A
:102B6000A878090408436978EA7809021204114335
:102B7000084300902168CA204862216853204862B7
:102B8000204601F030FD00281FD118490098084068
:102B90002168086020688168012292049143816065
:102BA0002969E868084321688A68104388602068BA
:102BB000C16880229143C1602068806880060CD47F
:102BC000204600F015F8002807D02168FF20486251
:102BD0000420707037700120F8BD2168FF20486222
:102BE0000120707037700020F8BD00007F7F7F00EB
:102BF00070B504460068C168A0229143C160FEF729
:102C0000F5FF7D260546F60006E0FEF7EFFF401BC8
:102C1000B04201D9032070BD2068C0688006F4D599
:102C2000002070BD10B50446006C002801D0FEF7EE
:102C30000BFE606C002801D0FEF706FE206841689C
:102C4000022291434160206841684908490041607F
:102C5000012040346074002010BD704770B504003E
:102C600006D025464035687C0026002802D005E0C5
:102C7000012070BD2E74204600F032F802206874E6
:102C800020680168402291430160A1686068226960
:102C90000843E16811430843616901220843A169BF
:102CA000520211400843E1690843216A0843A16ABE
:102CB000084321680860A0690421000C0840616A8B
:102CC0000843216848602168E06A08612068C1699A
:102CD00092009143C161666501206874002070BD57
:102CE00038B51C490546486B8A1410434863086B85
:102CF000012210430863086B1040009000F0BEFEF4
:102D0000154C082060601020A0600020E06080204A
:102D10002061400060618000A0612020E06100022D
:102D200020620E4820602046FEF7B4FD2C6400228D
:102D300011460A20A562FEF7A9FF0A20FEF78EFFC2
:102D4000002211461920FEF7A1FF1920FEF786FF89
:102D500038BD000000100240D403002030000240C3
:102D6000F8B5044600276846078026464036707C42
:102D7000012802D0707C22287ED100290CD0002AA4
:102D80000AD0002B08D0307C012875D00120307487
:102D9000707C012802D003E00120F8BD322070745D
:102DA0006765A263A387E3872163A386E386A7649D
:102DB000E7640125A06A6D03A84207D12068016875
:102DC000A943016020680168294301602068016807
:102DD000490603D401684022114301600121FF200C
:102DE000E268C90205308A42616866D1002904D0D0
:102DF00081420CD1E08E012809D1206B2168008826
:102E0000C860206B801C2063E08E401EE086E08E50
:102E1000002843D1A06AA84246D120680168012257
:102E20001203114301603FE02068C068A16B088075
:102E3000A06B801CA063B0E0002202212046069B0C
:102E400002F08EFE00287DD1206B21680088C860CA
:102E5000206B801C2063E08E401EE086E08E002800
:102E600008D1A06AA84205D1206801680122120396
:102E700011430160002200E0CCE001212046069BC6
:102E800002F06EFE00287FD12068C068A16B088028
:102E9000A06B801CA063E08F401EE087E08E0028BE
:102EA000CAD1606800287BD1002201212046069B00
:102EB00002F056FE002867D1B6E7002904D081420F
:102EC0000BD1E08E012808D1206B411C21632168C1
:102ED0000078C860E08E401EE086E08E002845D174
:102EE000A06AA84205D1206801680122120311439B
:102EF0000160002201212046069B02F031FE0028DD
:102F000042D12068C068A16B087046E0002202210F
:102F10002046069B02F024FE002835D1206B411C80
:102F2000216321680078C860E08E401EE086E08E54
:102F300000280AD1A06AA84207D1206802680121AE
:102F4000090300E020E00A4302600022012120463C
:102F5000069B02F005FE002816D12068C268A06B0F
:102F6000411CA1630270E08F401EE087E08E0028C4
:102F7000CCD16068002813D1002201212046069B95
:102F800002F0EEFD002802D00320F8BD08E0206822
:102F9000C168A06B421CA2630170E08F401EE087F5
:102FA000A06AA8420FD1002201212046069B02F010
:102FB000D7FD002802D0606D02210EE02068C068B5
:102FC000694608800888012280212046069B02F07D
:102FD000C7FD002804D0606D202108436065D3E759
:102FE00001207074A06AA84211D120688168C94389
:102FF000C9060CD4616D0222114361650168A943C1
:10300000016020680168294301603774C4E63774A1
:103010000020BAE70220B8E770B5064604464036FD
:10302000707C0025012801D0357454E000294FD070
:10303000002A4DD0307C01284DD001203074122060
:10304000707465652163A286E286E564A564A56364
:10305000A587E5870121A068C903884205D12068BA
:10306000016801229203114301600120A16A40031B
:10307000814207D121680A6882430A6021680A6890
:1030800002430A60216C15480863216C1448C86229
:10309000216C14484863606C0563606CC562606CA9
:1030A0004563E38E2268216B0C32206CFEF776FCC0
:1030B000206841680222114341603574206801682C
:1030C000490603D40168402211430160002070BD0D
:1030D0003574012070BD022070BD0000E75A000861
:1030E000F15A0008C95A00087047704770B5044685
:1030F0002034237D012B0CD0012525750223637517
:10310000002A08D0042A0AD0082A0CD00C2A11D18F
:103110000DE0022070BD006803F0E3FC0AE00068E7
:1031200003F0F7FC06E0006803F00CFD02E0006825
:1031300003F023FD65750020207570BD70B5040097
:1031400005D025462035687D002802D006E0012004
:1031500070BD00202875204600F00AF8022068752E
:10316000211D206803F082FC01206875002070BDDD
:103170000248816B012211438163704700100240B5
:1031800010B504460068012203F0A0FC2068016825
:10319000012211430160002010BD000010B504465B
:1031A0000068002203F092FC2068016A044A114280
:1031B00003D10168490849000160002010BD0000EA
:1031C0001111000010B51248017800291ED101220A
:1031D000027011480F49016000210164C161D307E9
:1031E0008161436082638160C16001620723416243
:1031F000C3630261C1620422426101630748416BFB
:103200004215114341630448FEF796F910BD0000D2
:10321000550000200024014014040020001002404A
:103220007CB51E49064609780020002934D01C4888
:103230004168C9430907FBD41A4C606B65152843E4
:10324000606300211848FEF7D3F81848009018482A
:10325000019069461448FEF721F9A01401906946CF
:1032600000961148FEF71AF90F48FEF7A7FA002159
:10327000C9430D48FEF743FA0B48FEF759F90A49CE
:1032800080B20A6893680226334393600968032278
:103290000A60616BA94361637CBD0000550000209A
:1032A000007000400010024014040020FFFF0700DF
:1032B0000110000010B5094C2078AA280CD0FEF7A8
:1032C000ABFBFEF797FBAA20207058220449201D73
:1032D000FCF7A5FFFEF796FB10BD000000000808F4
:1032E000EC84000810B5FEF78DFB10BD10B5FEF79D
:1032F00093FBFEF77FFB582203490448FCF78FFF3E
:10330000FEF780FB10BD0000EC84000804000808F4
:1033100010B5FEF781FBFEF76DFB10BD01460020E6
:103320000A0A00D00820084A114201D004221043A2
:10333000064A114201D002221043054A114201D02F
:103340000121084370470000F0F00000CCCC0000E1
:10335000AAAA000038B50B231B07C518114B0FD0C4
:103360001C152D1B18D02D1B19D0A542DD6A05D1C7
:1033700008242543DD62DB6A234007E08024F8E768
:10338000DC6A01252C43DC62DB6A2B400093116070
:103390001146FEF763FB38BDDD6A0224E9E7DD6A0A
:1033A0000424E6E70010024010B5FFF7B7FF8100E4
:1033B00002484058002800D0804710BDD4020020A9
:1033C00070B51C4615460E460846FFF7A7FF0A498A
:1033D000002C0DD080000C50304600F023FF044636
:1033E00000222946FEF752FC2046FEF737FC70BD4E
:1033F000002280000A5070BDD402002010B5D2B265
:10340000FEF7EEFB10BD000010B50648FFF708FF01
:10341000011E05D00448054A008B5043FCF768FEA6
:1034200080B210BD000002446000F81FB80B00001D
:1034300070B51148FFF7F4FE104C01001AD0208B34
:103440000F4A5043FCF754FE05460E48FFF7E8FECE
:1034500068430B49FCF74CFE618B0522401A1203AE
:103460005043E28B511AFCF759FE0F2149024018D4
:1034700080B270BD0025E8E7000002446000F81F3C
:10348000B80B000000000448F0B587B0142168466E
:10349000FCF7DEFE224CE06A01210843E062E06AAC
:1034A00008400590E06A02252843E062E06A28406F
:1034B0000590E06A04263043E062E06A30400590FF
:1034C000E06A80273843E062E06A69463840059048
:1034D0000320019000200290124800900520000770
:1034E000FEF7BCFA1048009069461048FEF7B6FA9D
:1034F00069460F48FEF7B2FA69460E48FEF7AEFA83
:10350000E06A40084000E062E06AA843E062E06AE6
:10351000B043E062E06AB843E06207B0F0BD00008B
:1035200000100240FF9F0000FFFF00000004005059
:1035300000080050001C005010B5104C88B0607896
:10354000002818D11C216846FCF782FEFFF73AFEDE
:1035500000F064FA00F0CCF800F07CFB04F07EFC94
:1035600002F01AFD684602F0A3FC0121402003F09E
:10357000DBF90120607008B010BD0000550000208C
:1035800010B586B014216846FCF762FE0320019056
:1035900000200524240702906A4680212046FFF778
:1035A000D9FE6A4640212046FFF7D4FE6A4608212C
:1035B0000648FFF7CFFE01216A46C9032046FFF700
:1035C000C9FE02F0BBFC06B010BD000000040050B4
:1035D00010B50349012008700248FEF7BBFF10BD7B
:1035E000540000201403002070B5410EC0017D225C
:1035F0000023FCF7A7FD054600F072F8044600E042
:1036000000BF00F06DF8001BA842F9D370BD0000A8
:1036100070B505460C4600222048FFF783F80022CB
:1036200029461E486668FFF75BF8002221461B48C2
:10363000FFF778F86068B042F1D1E878184A01469F
:103640005043C01C8308880726D0164968783D225D
:103650000646504302463C3A7000801EC14088072F
:10366000D10F8918800F4910081AC018A978401E78
:1036700008180D493C2248436178E12351432278E0
:103680001B015A438918A27810180818074A616864
:103690008002511A401870BD0549D7E71403002075
:1036A000B5050000A0AA990080510100FF030000A9
:1036B00050554400032070470148006870470000DF
:1036C0006003002000B587B0694605A8FFF7A0FF9A
:1036D0000249096807B0401A00BD000060030020DD
:1036E00000B587B0694605A8FFF792FF07B000BD97
:1036F00010B5084C207800280AD100F041F8FF21CD
:1037000001310548FEF790FF00F06AF801202070B3
:1037100010BD0000540000201403002010B50D4C13
:103720000021042000F06AFC01200B49400448619C
:1037300021688868C0040BD5C868C00508D5C8686A
:1037400080221040FF388238C8602046FEF7FEFE17
:1037500010BD0000140300200004014010B5044611
:10376000FFF7B0FF201A032801D9002100E0012152
:10377000042000F043FC204600F03EF810BD00009D
:1037800010B51449144886B0002412C01F210160EE
:10379000846004611149446141600838FEF7F0FF1C
:1037A0006946CC750120487588750875002205A901
:1037B0000948FFF73FF900940194049400226946F8
:1037C00005480394FFF79CF90348FEF7A1FE06B0F5
:1037D00010BD00000028004014030020FF0300007B
:1037E00010B5044C2046211D1830FFF711FF206052
:1037F00010BD000060030020F0B587B0044614221D
:103800003F4901A8FCF70BFD3D485038406E009041
:1038100000F07EF83B4802993B4A401AA105890D09
:10382000081887B2A10A68468078534202E08918D6
:10383000401C80B29942FAD26A461579E1221201FF
:1038400002E0891A6D1CADB29142FAD26A465479EF
:1038500002E0641CA4B23C393C29FAD29279511896
:103860008EB20121890203E07A1A761C97B2B6B2B1
:103870008F42F9D203E03C3E641CB6B2A4B23C2EA7
:10388000F9D203E03C3C6D1CA4B2ADB23C2CF9D2A1
:1038900003E0183D401CADB280B2182DF9D2694644
:1038A000C978890769464A7827D01849491E515C6A
:1038B000814202D2FCF71CFC08461249CA1B10497F
:1038C0002C394A60052252068A618E704C700A4675
:1038D0000D70203210706846C079C8700020C86131
:1038E000FF2248610132C8604A6208610246084608
:1038F0002438FEF7CFFF07B0F0BD04490C31D5E7FF
:1039000064030020FF03000080AEFEFF3082000849
:1039100010B5FF2101310748FEF786FE0548016812
:10392000C86880221040FF388238C860024990027F
:10393000486110BD140300200004014010B5410E81
:10394000C0017D220023FCF7FDFB10BDF0B5294826
:10395000294B016C284C284D274E274A0868143300
:1039600028343C355036904201D102201BE0984269
:1039700001D1202017E0A04202D10120400212E034
:10398000A84202D1012040030DE0B04202D1012043
:10399000400408E0184F6437B84202D101204005C6
:1039A00001E001204006144F083F7860086890420B
:1039B00001D104201BE0984201D1402017E0A04231
:1039C00002D10120800212E0A84202D1012080032E
:1039D0000DE0B04202D10120800408E006496431C4
:1039E000884202D10120800501E001208006786034
:1039F000F0BD00007C0300200800024001B582B049
:103A00000020C0430090012301AA02A90248FFF749
:103A1000A7F9684680880EBD7C03002010B51448C5
:103A200012490160144A134B0021126803E0520846
:103A3000491C072901D29A42F9D8C900C161002165
:103A4000816001614161FF22C16005328162426093
:103A5000012201625202826141620548FFF7FEF8CD
:103A6000002801D0FDF7B2FC10BD0000003001407D
:103A70007C0300200024F4004C00002030B585B009
:103A800014216846FCF7E4FB022001900290032019
:103A90000390002004906A4608210F48FFF75AFC63
:103AA000052424076A4640212046FFF753FC6A4656
:103AB00080212046FFF74EFC01210191CD030291A8
:103AC0006A4629462046FFF745FC01222946204642
:103AD000FFF794FC05B030BD0004005038B5154820
:103AE00001210068C90202688A430A430260124841
:103AF000C16A01221143C162C06A0524104002223A
:103B00009503240700902946204600F05FF960687D
:103B1000A843606002222946204600F06BF901228A
:103B20002946204600F05CF9606A00010009204344
:103B3000606238BD7C0300200010024038B5124896
:103B4000006801680122D202914301600F48C16AF6
:103B500001221143C162C06A05241040D503240725
:103B600000902946204600F031F96068A843606063
:103B700002222946204600F03DF90022294620462F
:103B800000F02EF9A56138BD7C0300200010024032
:103B900070B50C460546FFF7A1FF224629460248AC
:103BA000FFF73AFA70BD00007C03002010B508480A
:103BB000046CFFF737F82068016804229143016024
:103BC00020680168022291430160FFF7B7FF10BD32
:103BD0007C0300200948016801221204114301609E
:103BE00001688903FCD5C16889088900891CC16006
:103BF000C1680907890F0229FAD1704700100240F5
:103C000008B51348016801221143016001684907A2
:103C1000FCD5016801221206114301600168890187
:103C2000FCD5C16803221143C160C1680907890F2F
:103C30000329FAD10268012109048A43026002685B
:103C40000A4000920168012292049143016008BD7C
:103C5000001002407FB50120134C80072060002532
:103C60006560FF2025619030A560E0602046FFF789
:103C700065FA6020009002200190029500226946BA
:103C80002046FFF733FA102000904520019002955E
:103C9000042269462046FFF729FA2068C1680122FC
:103CA00092021143C1607FBD2005002010B50122A2
:103CB00006499207401E0A60C860002048600861FB
:103CC00088600846FFF73AFA10BD00002005002082
:103CD00010B5064900200968486201460348FFF70D
:103CE0004FFA04210148FFF74BFA10BD20050020D0
:103CF00010B50C4C01202168C0430861206801699F
:103D0000C943C907FBD10748FFF748FA0421054812
:103D1000FFF744FA2168002048622168C01E08614C
:103D200010BD00002005002000BFFDE7EFF310816B
:103D300072B605488268C068824201D0012000E066
:103D4000002081F31088704774040020F8B5D4680F
:103D500093685569234314692C432343946923438F
:103D6000D4692343946A2343104C6418203CE67FB3
:103D700085590F4F3D401D438551E57F03460C3368
:103D8000EF585668EE50E67F1B1FF7581568F55040
:103D9000E47F031DE658156A360C36042E43E650C0
:103DA000526A00F007F80120F8BD000029820008DF
:103DB0000F80FFFF10B589000F24091F8C40803051
:103DC000836A8A40A3431343836210BD10B503681E
:103DD00049434C000C19A34351430B43036010BDEE
:103DE00010B5C36849434C000C19A34351430B431E
:103DF000C36010BD10B5836849434C000C19A34340
:103E000051430B43836010BD70B5044600680E46F5
:103E10000025C007C00F2AD1F168706822680843E6
:103E20003169144B1A40114308432060B16860683F
:103E3000032212039043084360607169A068121165
:103E400090430843A060900000F016F800280ED0C0
:103E50003268002A0BD0010E0602500800233018E9
:103E600001255941FCF76EF90003000BE06028467C
:103E700070BD0000F3E9FFEF10B512490024C968D6
:103E8000014001208002091A12D0091A14D081427F
:103E900007D100F023F8002801D00124E4032046D4
:103EA00010BD00F031FA00F015FA00F021FA01E03F
:103EB00000F02AFA0446F2E700F008F80028EED0F5
:103EC000014CECE7401002400024F4000248006876
:103ED0004007C00F70470000001002400248006910
:103EE0008005C00F704700004010024010B50B481D
:103EF0000168002904D000F02BF800F044F810BD50
:103F00004068002804D000F029F800F03DF810BD0A
:103F100000F006F800F036F810BD00009C0000200C
:103F200010B5EFF3108472B6FFF72AFBFFF750FBD2
:103F30000648016804221143016001680822114308
:103F4000016084F31088FDF7D5FE10BD00700040BD
:103F500010B501210020FDF7B5FE10BD10B5EFF33F
:103F6000108472B6FFF70CFB054801680422114368
:103F7000016084F3108801210846FDF7CBFE10BDD7
:103F8000007000407047704710B5EFF3108472B6B0
:103F90000F48016801221143016001684907FCD5FF
:103FA0000168012212061143016001688901FCD5F4
:103FB000C16803221143C160C1680907890F032941
:103FC000FAD1FFF75BFD01F0E7FF84F3108810BD25
:103FD0000010024010B5EFF3108272B6064B0029B4
:103FE0005C6803D0012903D1044300E084435C6092
:103FF00082F3108810BD00009C00002010B5EFF384
:10400000108272B6064B00291C6803D0012903D127
:10401000044300E084431C6082F3108810BD00005C
:104020009C00002030B589B00546002420221449A8
:104030006846FCF7F4F8002D09D0012D10D0022DB0
:1040400017D0032D18D01424204609B030BD68467F
:104050000078032802D0FF20C33007E0322005E0BB
:10406000684600780328F9D07D20C000FDF756F996
:10407000EAE719208001F9E7FF20F530F6E70000B4
:104080000800080800207047054A002153184033F3
:104090005B7C4354491C0429F8DB00207047000076
:1040A00004000808044A0260002903D01E2008709A
:1040B000002070471E2070476400002070B5144631
:1040C0000D460646FFF7A0F9308000202880FFF754
:1040D000AFF90A214843000A2080002070BD00008B
:1040E00002460020C82A02D8024A0A6070471120FE
:1040F000704700009805002070B5134C0D4601284C
:104100000CD00220FDF770F83220FDF76EFC022083
:10411000FDF75AF8A078AA280FD012E00020FDF78A
:1041200063F83220FDF761FC0020FDF74DF8A07820
:10413000AA2806D1294605A001E0294609A003F0D6
:1041400025FF002070BD0000040008085258204FD1
:104150004B2E20525353493D2025642064426D0A62
:104160000D0000005258204B4F2E20525353493D12
:104170002025642064426D0A0D00000070B50546DC
:104180000024074EFFF7C4F83019295D4030417410
:10419000FFF7A8F8641C042CF4DB002070BD0000BD
:1041A0000400080810B504460749084802F0C0FE9C
:1041B0007D20C00044432146044802F021FF03480B
:1041C00002F030FF002010BDB54200087406002048
:1041D00010B504460649074802F0AAFE21460548E4
:1041E00002F00EFF034802F01DFF002010BD00008A
:1041F000A94200088806002010B5024802F04AFFD4
:10420000002010BD7406002010B5024802F042FFE5
:10421000002010BD8806002010B5022000F0D0FA62
:10422000002010BDFF220132811A90420CD009DC1F
:1042300008280DD008DC012808D0022806D0042860
:1042400002D105E00F2212020720704705207047B7
:1042500006207047704700008307FF22DB0E9A405C
:104260008907090E994000280BDA0007000F08386B
:10427000830808489B001818C36993430B43C36124
:104280007047830804489B001B1818689043084334
:104290001860704700ED00E000E400E010B5012078
:1042A00000F072FA10BD000001490120487070470B
:1042B0008200002010B5022000F066FA10BD7047A1
:1042C00010B5034901200870022000F05DFA10BD0E
:1042D000820000200449C968F0221140034A0909FC
:1042E000515CC8407047000000100240088200087E
:1042F0000349C968034A4905490F515CC8407047E2
:10430000001002402182000810B50C49CA680C2038
:1043100002400B4805D0042A09D0082A09D00C2AEB
:1043200009D049680904490F491C884010BD054857
:1043300010BD054810BD00F009F810BD0010024086
:10434000008000000024F40000127A0010B50B4831
:10435000C16801231B040A4A194002D0994200D1C6
:104360005210C168C0680902890F8002054B000F16
:10437000185C491C5043FBF7BBFE10BD0010024007
:104380000024F4001882000870B517490023CA6899
:104390001206120F18D18A6B154CD500134A02D59C
:1043A0001268224009E08E6B01252D072E438E6393
:1043B00012688E6B2240AE438E63A24204D1032169
:1043C0008903884200D101230A480168490849004D
:1043D000194301600068C007C00F984201D0012056
:1043E00070BD002070BD0000001002400070004051
:1043F00000180000002002400002C9B208437047C4
:1044000010B501F09BFC002010BD000070B50D46FA
:1044100006465C2400F020FA024606A1064802F097
:1044200069FE05493160002D01D028700024204626
:1044300070BD0000257300009C06002010B5002808
:1044400006D0012807D0022808D0032810D109E09F
:1044500000F09EFA0CE000F003FA09E000F000FA28
:10446000C82003E000F0FCF9FF202D3000F012FA24
:10447000002010BDF8B5074616460D46002403205F
:10448000FCF7B2FE012D02D0022D0AD101E0642218
:1044900001E04B22D2003146384600F061FA012893
:1044A00000D031240320FCF78FFE2046F8BD10B564
:1044B0000024002806D0012807D0022807D0312484
:1044C000204610BD00F017FA05E0642001E04B2003
:1044D000C00000F01EFA0128F2D03624F0E710B533
:1044E00000F027FA002010BD10B500F02BFA0128CB
:1044F00001D0372010BD002010BD0000F7B5002509
:1045000084B006461F492F4628466C464200401C90
:10451000A1520828FADB082E02D3352007B0F0BDDF
:1045200001F02CFC00F0C8F90020FCF75DFE1EE055
:104530000120FDF75AFA01F00DFC69006D1C605274
:10454000B54200D100250022104604E04100615A26
:1045500089180AB2401CB042F8DB31461046FBF71E
:10456000DDFD059900B2884201DA012703E001F080
:10457000FFFB0028DCD00020FCF726FE0698077021
:104580000020CBE7FF7F0000F8B514460D46074634
:1045900000F092F901F068FC0026012803D02E807B
:1045A00026703046F8BD384600F08CF901F0ECFB7F
:1045B000288001202070F4E710B503F0E9FB10BD5E
:1045C00001090A2200075143000F4018C0B270478A
:1045D000002102E00A38C0B2491C0A28FAD20907B1
:1045E000090E0843704770B504460068C168490663
:1045F00013D40021C943C160FDF7F8FA7D260546B2
:10460000F60006E0FDF7F2FA401BB04201D90320A4
:1046100070BD2068C0684006F4D5002070BD10B59C
:10462000FFF77CF810BD000070B5092001F0B6FF5F
:104630000546062001F0B2FF0404072001F0AEFF9A
:1046400000020443082001F0A9FF0443200A0102EC
:10465000184A611A514380315043090A4618002113
:10466000092002F061F93B2001F098FF402420432B
:1046700001463B2002F058F93B2001F08FFF8006F5
:10468000FAD40D4802F03EF83B2001F087FF2043AA
:1046900001463B2002F048F93B2001F07FFF8006F5
:1046A000FAD42946092002F03FF9304602F02AF8F0
:1046B00070BD0000093D000000A1BC33EFF3108184
:1046C00072B60122824003488368934381F31088C5
:1046D000836070478800002010B500F017F810BD07
:1046E00010B5EFF3108472B6FFF700FC84F3108866
:1046F00010BD0000EFF3108272B68000024B19501B
:1047000082F3108870470000BC06002070B51B4C77
:104710001FE00021030C01D110210004030E01D180
:1047200000020831030F01D10001091D144B000FD5
:10473000185C4118EFF3108072B61F23591A012339
:104740008B409A4380F3108888000E4922600858F5
:104750008047226860681040DBD1EFF3108572B6A5
:1047600010466168E2680840A1681140084301D121
:10477000FFF7B6FF85F3108870BD000088000020A9
:1047800044850008BC060020EFF3108172B60122B8
:104790008240034883681A4381F31088826070471F
:1047A00088000020EFF3108172B601228240034896
:1047B00003681A4381F31088026070478800002064
:1047C00070B5084C01218140E568E16001E0FFF728
:1047D00083FFE168A0680842F9D0A068E5608843DB
:1047E000A06070BD88000020054A002153184033A6
:1047F0001B7B4354491C0529F8DB0020704700004F
:1048000004000808014800797047000024000808E7
:1048100070B505460024074EFEF77AFD3019295D74
:1048200040300173FEF75EFD641C052CF4DB0020B4
:1048300070BD00000400080810B50446FEF768FDCE
:1048400002480471FEF74EFD10BD00002400080868
:1048500010B501F0F9F910BD00487047BC00002008
:1048600030B58BB001F015FA2C2209496846FBF7E8
:10487000D6FC00246D46600041194978285C01F09F
:1048800065FA641C162CF6D301F036FA0BB030BD75
:104890008C85000810B50446D7210E2001F056FA89
:1048A000C82C04D0FF3C2D2C05D1102100E009219B
:1048B000122001F04BFA10BD10B5052001F042FAAC
:1048C000012010BD10B50446322001F033FA0F2844
:1048D00001D9002010BD214601F026FA012010BDAB
:1048E000014610B50A390B2901D3002010BD01F093
:1048F000B5F9012010BD10B501F0A6F9044603205A
:1049000001F020FA204602F0D1F9012800D0002061
:1049100010BD70B5044601F097F90546032001F07B
:1049200011FA2146284602F0F3F9012800D00020B0
:1049300070BD10B501F09EF9002001F003FA01F0FE
:10494000B3F910BD10B502F035FA02F039FA01F0F2
:1049500099FA002001F0F6F901F0A6F9012010BD46
:10496000F8B515460E46074601F06EF904460320D9
:1049700001F0E8F9F1002B462246384602F044F9EE
:10498000012801D00020F8BD01F07CFA0120F8BD1B
:1049900070B586B001F07DF901F056F905460E2894
:1049A00010DD134B00240FCB009001A80EC06E4603
:1049B000600081194978305C01F0C8F9641C082C4A
:1049C000F6D310E00A49182210316846FBF727FC9D
:1049D00000246E46600081194978305C01F0B6F918
:1049E000641C0C2CF6D3284601F034F906B070BDD7
:1049F0006485000870B5094C0025207800280BD08C
:104A00006068FFF73FFB002800D0202500212170BF
:104A10002946FFF7F1FC70BD212070BDD4000020B5
:104A200010B500F013FD10BD10B5044613F06EFC78
:104A3000002801D05B2108E0204613F048FC040068
:104A400006D013F03DFC5B212046FFF7D5FC10BDDE
:104A500013F036FC0028EDD110BD000010B5002386
:104A6000002A08D0012A0DD0022A0ED0032A0FD026
:104A70005D21184611E00B4A0260002910D00E207B
:104A800008700DE0FFF70EFB04E0FFF7BFFC01E04C
:104A900013F022FC002803D05C21FFF7ADFC10BD11
:104AA000002010BDB8850008FEB5504D044628789A
:104AB000002801D01120FEBD002C09D03B20694602
:104AC00008716846FFF7E0FA002803D0102187E05C
:104AD0001320FEBD684600793B2801D01220FEBDA0
:104AE00042496C20091DFFF7FBFA69680029EDD0E7
:104AF0000028EBD10846643000F0A8FC060004D082
:104B00006868FFF7BFFA3046FEBD684601886868EE
:104B10008184627B0021022A02D0012A18D021E080
:104B20000323334A8360C2600161226982620246C4
:104B3000267E203216742F4F6669BE4204D1FF21B3
:104B4000F531C16253740DE0C1620221517409E074
:104B5000294AC160826001610121322211546946F3
:104B60004988818621680160616841600146627BF5
:104B700040318A75A2688265227B012A02D0022A0E
:104B800002D004E0642201E04B22D2008A83237B1E
:104B900068221354194EA2683C23B24202D1CB833F
:104BA000174812E0174EB24204D10820C8837D2076
:104BB00000010AE0144EB24202D1CB830C4804E05B
:104BC000124EB24209D11248CB830884607B04287C
:104BD00009D0012028700020FEBDFFF753FA1421F0
:104BE000FFF70AFCFEBD0220F4E70000D40000201D
:104BF00088130000E0930400FF01000000EE0200B3
:104C000008520000D4300000A08C000000770100A2
:104C1000A8610000FFB581B01DA10A9D09681D4C67
:104C200000912178022902D0562005B0F0BD042160
:104C30002170626800216B465618603636795F5CD9
:104C4000BE4201D05520F0E7491CC9B20429F3D374
:104C5000002802D1104600F0A7FA02460123049969
:104C6000029800F005FB0028DFD1039A02996068E2
:104C700000F04EFC02219B2808D00028D5D16068A6
:104C80004030408C288021700020CEE72170CCE796
:104C900098BADCFED40000207FB5012B07D0002499
:104CA000022528436D462873002902D003E0012421
:104CB000F6E7012B0AD0684616C00548002303AA70
:104CC0001946406800F018FB04B070BD3420FBE7C3
:104CD000D40000203EB5069D1C46012D06D00023C1
:104CE000002805D00C2905D930203EBD0123F7E767
:104CF00033203EBD002A01D1012D0AD0009202933B
:104D00000246054801940B460121406800F0F4FA80
:104D10003EBD31203EBD0000D40000200EB502286B
:104D200001D335200EBD002802D0012803D004E0B5
:104D30000321072301E00421052302200022019022
:104D4000034800920292406800F0D6FA0EBD0000BF
:104D5000D4000020FFB526A083B09C46006813460F
:104D60000290002904D00C2B04D9522007B0F0BDCA
:104D70005320FBE71F4C2078022801D05120F5E793
:104D8000032020706068002202AD861860363679F4
:104D9000AF5CBE4201D05020E8E7521CD2B2042AD8
:104DA000F3D30022009265460A460195012100F0E6
:104DB00027FC0028DAD1606800F0F7FD002803D056
:104DC0005421FFF719FBD1E70398002804D10021F3
:104DD000606800F0EBF9039002460021606800F083
:104DE000A6FD0028C2D1022020700020BEE70000EE
:104DF00098BADCFED400002070B50D461B4C01466D
:104E0000207801282FD160680A6882604A68C260F1
:104E100089680161C90508D5154A816D914204D19F
:104E200014498165144A60210A525621095C0129FE
:104E300007D100F053FB61680028C88607D02031F5
:104E40008D7460685621095C022902D009E0412076
:104E500070BD8168002902D0C068062801D24020B8
:104E600070BD02202070002070BD0000D400002022
:104E7000A08C000000EE02000852000070B5124D38
:104E8000044628780E46002801D0582070BD002026
:104E9000FFF7D4FA002801D057210DE02046FFF794
:104EA000AFFA040004D13046FFF701FB040006D03E
:104EB000FFF715FB57212046FFF79EFA70BD032030
:104EC0002870002070BD0000D400002070B50B4C8D
:104ED0002078032801D05A2070BDFFF705FB00257C
:104EE000002803D1FFF7FBFA002804D025705921D0
:104EF000FFF782FA70BD2570002070BDD40000203D
:104F0000F0B587B01F4600266B461E760446054660
:104F100040340B0002F002F9051104311450700006
:104F2000002007E0831DDBB25B19115C2033401CBD
:104F30009977C0B2B842F5D35EE0107820715BE09B
:104F400005AA04A903A8FFF7B9F8002803D00002B6
:104F5000923007B0F0BD08202071684680896071EA
:104F6000000AA0716846008AE071000A2072684653
:104F7000808A60720012A0723EE005AA04A903A80C
:104F8000FFF79CF8002802D000029330E1E70920E7
:104F90002071684680896071000AA0716846008AA5
:104FA000E071000A20726846808A60720012A07266
:104FB000608C6430E0721FE0012605AA04A903A8F2
:104FC000FFF77CF8002802D000029530C1E70A20E4
:104FD00020716A46C8219089FBF78AF860716A4699
:104FE000C821108AFBF784F8A0716A4614200A21B0
:104FF000105EFBF793F8E07113F088F9002801D0F8
:10500000000212E02A462946334655323E3106A8B0
:105010006E4607C62846394644300C9A13F078F994
:10502000050004D013F04CF92802903091E713F0FA
:1050300047F90028E4D16946207D097E08432075A0
:10504000002086E7490009185C22098B125A836DFB
:10505000514302685B085118C91A8A4201D80121DC
:1050600001E00021C943826AC06A484310187047B2
:10507000FEB50446403017460190827D23466433D6
:10508000002548484E1C0093042A1AD0022A18D042
:10509000A18E002901D0814205D9184600F03DFCBF
:1050A0004005400DA086A08C002801D07F2805D99E
:1050B000009800F032FC4006400EA084012F3CD046
:1050C0006DE0A18C002901D0814205D9184600F07D
:1050D00024FC4005400DA084012F2BD10121204646
:1050E00000F0A4F805460121204600F0B4F801467E
:1050F000A08C01232A4600F06BFCA0842083019938
:10510000C98B42186283401A2FE00021204600F02C
:105110008DF807460021204600F09DF80146A08C3E
:1051200001233A4600F054FC69000919A0846D1C63
:105130000883EDB2B542E8D3FEBDE08E0123401DE9
:1051400082B2A08E082100F043FCA086A08C002330
:105150002622042100F03CFCA084A18E21874A1C59
:105160006287491EA18720836083A083FEBDE08EF5
:105170000123801D82B2A08E072100F029FCA086A9
:10518000A08C00232622042100F022FCA0846800C9
:105190000019A18E0187A18C6D1C0183EDB2B5426F
:1051A000E5D3FEBDFF07000040697047F8B505462E
:1051B0000E4604464035A87D49000F19042822D028
:1051C000022820D0388F801F81B2204600F055F988
:1051D0000090388F2D8C0621401EFAF789FF114868
:1051E0004B2241434819398BD200514308180E4BCA
:1051F00000992268594309185118A26D5208891A5A
:10520000002E06D00BE0388BA98B48432168091883
:10521000F3E762681018A26D5208801A60610846B0
:10522000F8BD0000A8610000E0930400F8B5024654
:105230004032958B0C461746806D2946FAF758FF89
:105240000646388C2946FAF753FF311AF88B60432B
:10525000081A80B2F8BD70B5044640340D46A18BE3
:10526000208CFAF745FFE18B6943401880B270BD8E
:1052700070B5054614460E460120FFF7DFF80028FA
:1052800001D0000217E02046FFF7BAF8040002D070
:10529000FFF725F90EE03046FEF784FF0400F7D152
:1052A000012D0AD113F032F8040006D0FFF717F9E8
:1052B000FEF7A2FF2002E03070BD002070BD70B587
:1052C00005461E4614460846FFF7B8F800280FD1D9
:1052D0002046FFF795F8040007D130216956324681
:1052E0000520FFF70BF9040003D0FFF7F8F820467C
:1052F00070BDFFF7F4F870BDFEB504468C4600257E
:105300000A9809992E46012800D101264D480778B0
:10531000022F01D06020FEBD03274A4800290770F4
:1053200011D002200290009061460196204600F0C4
:1053300067F90028EFD1204600F037FB002804D0A1
:1053400000026130FEBD0020ECE727464037B87D03
:10535000022804D12069E568000A00022061ABB28E
:105360002046029A0A9900F0A4F9002805D07E2868
:10537000E8D1344A02211170FEBD002E3AD0314EE0
:105380000420307020460A9A089900F071F900282C
:1053900004D09B28F0D102213170FEBD0A9801286B
:1053A00028D1032030700220FEF73CFE002802D0F6
:1053B00000026430FEBD00200090024601900823E8
:1053C0000221204600F01CF90028F3D1204600F00D
:1053D000ECFA002802D000026230FEBDB87D02283F
:1053E00000D1194D0022ABB220460A9900F061F9B4
:1053F0000028F2D1387D01281FD100203875009097
:105400000246019005230421204600F0F9F8002807
:10541000E3D1204600F0C9FA002802D00002633030
:10542000FEBDB87D022800D1E5680222ABB220465D
:105430000A9900F03EF90028F2D1024902200870D2
:105440000020FEBDD4000020280A000010B504464C
:1054500012F05CFF002801D0000207E0204612F0A5
:1054600031FF040004D012F02BFF2002993010BD50
:1054700012F026FF0028EFD110BDF3B5002081B057
:105480000A46044600900621501EFAF747FE401CCB
:105490000021C2B201231DE0019E8D000020AE1943
:1054A0004D01AC4610E01D46B76885402F4207D03D
:1054B000641CE4B2A24203D165462D18EDB20095FA
:1054C000401CC0B2202801D29442ECD1491CC9B280
:1054D000032901D29442DFD10098FEBD70B50023AC
:1054E0001A460124002195002D18AE6825468D40EE
:1054F0002E4201D05B1C9BB2491CC9B22029F5D3B6
:10550000521CD2B2032AEDD30620434398B270BD99
:10551000F7B58AB000270A980497623016463C46D1
:1055200008970797099005AA68460999FFF72CF88C
:1055300005466846007D012816D10B98012825D024
:10554000012200206946335C0C5CA34200D000229B
:10555000401CC0B20F28F6D30A986221415E104663
:10556000FEF7CAFD040000D0012738462843DAD0F0
:10557000FEF7B5FF06466846007D002802D0FEF71C
:105580003BFE08900B98012816D018E006A9684643
:1055900012F0B8FF04900028E6D16846007E01288A
:1055A000E3D100216A46081DC0B2105C7054491C4A
:1055B000C9B20829F7D3D7E712F082FE0790049802
:1055C000002801D000020DE0002D01D0280209E0E2
:1055D000002E01D0300205E008980028F2D1002CFE
:1055E00003D020029A300DB0F0BD07980028E9D111
:1055F0006846007D002801D00020F4E79B20F2E7F8
:10560000F8B5079D0E460446069F0095FFF778FC07
:10561000002826D1012E06D91248E08311486230B5
:105620002084114816E05520005D1049102808D24A
:10563000400040184038818CE183018E2184808FA6
:1056400008E00A38801040000A5AE2834018818935
:105650002184008B60842A4639462046FFF708FDE6
:105660000020F8BD67AF0000BEB10000DC85000877
:1056700070B515460E460446012A06D1FEF7CCFD4C
:10568000002802D00002983070BD5620005D62698B
:1056900002280CD019212B460120FFF7E9FD002834
:1056A000F2D1324601212046FFF732FF70BD2221A0
:1056B000F1E7FFB5044600208BB002900746089042
:1056C0000C98012800D1012725464035A87D2646A3
:1056D0002036012801D0002F04D000210991012893
:1056E00003D01AE00120099017E0B07C012814D102
:1056F0000D98002811D0002F0FD00A20FEF752FD80
:10570000002803D0000270300FB0F0BDFEF784FD1A
:10571000002802D000027130F6E70E98002848D029
:10572000A87D02284FD10E98FEF752FD002802D026
:1057300000027730E8E700212046FFF783FC0246AD
:10574000717C04AB2046FFF7BAFD002802D00002AE
:105750007630D9E76846007C002802D001280DD0B9
:1057600013E0A0680299401E88420ED90320FEF77C
:1057700059FC002809D000027930C5E7FEF744FD46
:10578000002802D000027830BEE70298401CC0B268
:105790000290A168814203D96846007C0128C2D1E9
:1057A00020694107C2080298490F1018C00040182C
:1057B0002061A87D022806D16846007C012802D01D
:1057C00000286FD0A7E000200A9000900D98401CA0
:1057D0000290009884E020460099FFF7E7FC02461B
:1057E0002046009900F0A3F800288DD1A87D02285A
:1057F00002D12169491C21610099002927D10C9906
:10580000012902D001280CD021E0022807D0142061
:10581000FEF7C8FC00281AD00002753074E7132088
:10582000F6E7B07C012812D10D99E08E491CFAF7F9
:105830005FFC01461420FAF75BFC0890002806D0B4
:10584000FEF7B0FC002802D0000272305CE7099835
:10585000FEF7E8FB002802D00002743054E7A87D70
:10586000022839D10D990098884235D2002808D1F4
:105870007D208001FEF7ACFC002802D000027B30C6
:1058800042E70098401CC1B22046FFF7DBFB02460E
:10589000717C04AB2046FFF712FD002803D0000204
:1058A0007A3031E735E06846007C00280BD00D984F
:1058B0000099401E81420FD1FEF7A6FC00280BD0B4
:1058C00000027D3020E7FEF79FFC002802D0000296
:1058D0007C3019E701200A900098401CC0B200906B
:1058E0000299884203D20A98002800D173E7A87D64
:1058F000012810D1B07C01280DD1089800280AD0C9
:10590000002F08D1FEF788FC002804D00002733075
:10591000FAE67E20F8E60020F6E6C17882780902F1
:10592000114342780378100218434840704770B51D
:10593000044688B015460E460020FEF77FFD00287D
:1059400001D0000229E02846FEF75AFD050003D0E9
:10595000FEF7C5FD280220E0AA20694608704870BD
:1059600070000019C18B25460A0A69468A70807F3B
:10597000C8704035687D3346001FC2B2A81E01A919
:1059800000F04CF860346A7D217A6846FEF772FDBB
:10599000040005D0FEF7A3FD2002973008B070BDCB
:1059A000FEF79DFD0028CCD1F8E708B5818C6A464A
:1059B0001170090A51705621095C012904D1818EA8
:1059C0009170808E000AD0701046FEF7D7FB08BD9C
:1059D000F0B5012B07D006237F2507245B1E641E2C
:1059E000002804D004E009230B4D0B24F6E72846D9
:1059F0000646E640F707FF0F0646DE40F60740047E
:105A0000F60F000CB74201D00126304328409042E7
:105A1000E6D88842E4D3F0BDFF070000F0B50025CA
:105A2000844628462C4602E00C54401CC0B29042EA
:105A3000FAD39800124B0024C6181EE0802360465B
:105A4000005D0F5D1842705D0DD0002809D0002068
:105A5000584307430A480F55001F405D801CC5B2DC
:105A600007E00120F4E75843074305480F55001F9E
:105A7000455D5B08E3D1641CE4B29442DED3F0BD23
:105A80000486000810B50F48FFF70EF80D4C083CCF
:105A90002079022804D1204601212830FFF7ACF9F3
:105AA0002079032804D1074800212C30FFF7A4F9FE
:105AB0002079042804D1034801213830FFF79CF9EC
:105AC00010BD00000C00080810B5806A0021C186D6
:105AD000C187012251210A54416D102211434165B1
